{
	"data": {
		"bytecode": {
			"linkReferences": {},
			"object": "6080604052348015600e575f80fd5b50606a80601a5f395ff3fe6080604052348015600e575f80fd5b50600436106026575f3560e01c8063c298557814602a575b5f80fd5b60306032565b005b56fea26469706673582212200b464a20235d6565e8e1004deadf9c28980c2b558cc08aa0d5807f642172d94664736f6c634300081a0033",
			"opcodes": "PUSH1 0x80 PUSH1 0x40 MSTORE CALLVALUE DUP1 ISZERO PUSH1 0xE JUMPI PUSH0 DUP1 REVERT JUMPDEST POP PUSH1 0x6A DUP1 PUSH1 0x1A PUSH0 CODECOPY PUSH0 RETURN INVALID PUSH1 0x80 PUSH1 0x40 MSTORE CALLVALUE DUP1 ISZERO PUSH1 0xE JUMPI PUSH0 DUP1 REVERT JUMPDEST POP PUSH1 0x4 CALLDATASIZE LT PUSH1 0x26 JUMPI PUSH0 CALLDATALOAD PUSH1 0xE0 SHR DUP1 PUSH4 0xC2985578 EQ PUSH1 0x2A JUMPI JUMPDEST PUSH0 DUP1 REVERT JUMPDEST PUSH1 0x30 PUSH1 0x32 JUMP JUMPDEST STOP JUMPDEST JUMP INVALID LOG2 PUSH5 0x6970667358 0x22 SLT KECCAK256 SIGNEXTEND CHAINID BLOBBASEFEE KECCAK256 0x23 TSTORE PUSH6 0x65E8E1004DEA 0xDF SWAP13 0x28 SWAP9 0xC 0x2B SSTORE DUP13 0xC0 DUP11 LOG0 0xD5 DUP1 PUSH32 0x642172D94664736F6C634300081A003300000000000000000000000000000000 "
		},
		"gasEstimates": {
			"creation": {
				"codeDepositCost": "21200",
				"executionCost": "73",
				"totalCost": "21273"
			},
			"external": {
				"foo()": "121"
			}
		},
		"methodIdentifiers": {
			"foo()": "c2985578"
		}
	},
	"abi": [
		{
			"inputs": [],
			"name": "foo",
			"outputs": [],
			"stateMutability": "nonpayable",
			"type": "function"
		}
	]
}