{
	"contract/2数据类型/05_lesson.sol": {
		"Lesson05": {
			"abi": [
				{
					"inputs": [
						{
							"internalType": "uint256",
							"name": "a",
							"type": "uint256"
						}
					],
					"name": "f0",
					"outputs": [
						{
							"internalType": "uint256",
							"name": "",
							"type": "uint256"
						}
					],
					"stateMutability": "pure",
					"type": "function"
				},
				{
					"inputs": [],
					"name": "f0_selector",
					"outputs": [
						{
							"internalType": "bytes4",
							"name": "",
							"type": "bytes4"
						}
					],
					"stateMutability": "pure",
					"type": "function"
				},
				{
					"inputs": [],
					"name": "f0_selector_abi",
					"outputs": [
						{
							"internalType": "bytes4",
							"name": "",
							"type": "bytes4"
						}
					],
					"stateMutability": "pure",
					"type": "function"
				},
				{
					"inputs": [
						{
							"internalType": "bytes4",
							"name": "selector",
							"type": "bytes4"
						},
						{
							"internalType": "uint256",
							"name": "x",
							"type": "uint256"
						}
					],
					"name": "select",
					"outputs": [
						{
							"internalType": "uint256",
							"name": "",
							"type": "uint256"
						}
					],
					"stateMutability": "nonpayable",
					"type": "function"
				}
			],
			"devdoc": {
				"kind": "dev",
				"methods": {},
				"version": 1
			},
			"evm": {
				"assembly": "    /* \"contract/2\\xe6\\x95\\xb0\\xe6\\x8d\\xae\\xe7\\xb1\\xbb\\xe5\\x9e\\x8b/05_lesson.sol\":121:731  contract Lesson05 {... */\n  mstore(0x40, 0x80)\n  callvalue\n  dup1\n  iszero\n  tag_1\n  jumpi\n  0x00\n  dup1\n  revert\ntag_1:\n  pop\n  dataSize(sub_0)\n  dup1\n  dataOffset(sub_0)\n  0x00\n  codecopy\n  0x00\n  return\nstop\n\nsub_0: assembly {\n        /* \"contract/2\\xe6\\x95\\xb0\\xe6\\x8d\\xae\\xe7\\xb1\\xbb\\xe5\\x9e\\x8b/05_lesson.sol\":121:731  contract Lesson05 {... */\n      mstore(0x40, 0x80)\n      callvalue\n      dup1\n      iszero\n      tag_1\n      jumpi\n      0x00\n      dup1\n      revert\n    tag_1:\n      pop\n      jumpi(tag_2, lt(calldatasize, 0x04))\n      shr(0xe0, calldataload(0x00))\n      dup1\n      0x2ae1431c\n      eq\n      tag_3\n      jumpi\n      dup1\n      0x32cdf8a7\n      eq\n      tag_4\n      jumpi\n      dup1\n      0x4c93bab5\n      eq\n      tag_5\n      jumpi\n      dup1\n      0xfe6cd306\n      eq\n      tag_6\n      jumpi\n    tag_2:\n      0x00\n      dup1\n      revert\n        /* \"contract/2\\xe6\\x95\\xb0\\xe6\\x8d\\xae\\xe7\\xb1\\xbb\\xe5\\x9e\\x8b/05_lesson.sol\":424:502  function f0(uint a) external   pure returns(uint) {... */\n    tag_3:\n      tag_7\n      0x04\n      dup1\n      calldatasize\n      sub\n      dup2\n      add\n      swap1\n      tag_8\n      swap2\n      swap1\n      tag_9\n      jump\t// in\n    tag_8:\n      tag_10\n      jump\t// in\n    tag_7:\n      mload(0x40)\n      tag_11\n      swap2\n      swap1\n      tag_12\n      jump\t// in\n    tag_11:\n      mload(0x40)\n      dup1\n      swap2\n      sub\n      swap1\n      return\n        /* \"contract/2\\xe6\\x95\\xb0\\xe6\\x8d\\xae\\xe7\\xb1\\xbb\\xe5\\x9e\\x8b/05_lesson.sol\":510:604  function f0_selector() public pure returns(bytes4) {... */\n    tag_4:\n      tag_13\n      tag_14\n      jump\t// in\n    tag_13:\n      mload(0x40)\n      tag_15\n      swap2\n      swap1\n      tag_16\n      jump\t// in\n    tag_15:\n      mload(0x40)\n      dup1\n      swap2\n      sub\n      swap1\n      return\n        /* \"contract/2\\xe6\\x95\\xb0\\xe6\\x8d\\xae\\xe7\\xb1\\xbb\\xe5\\x9e\\x8b/05_lesson.sol\":148:416  function select(bytes4 selector, uint x) external returns (uint) {... */\n    tag_5:\n      tag_17\n      0x04\n      dup1\n      calldatasize\n      sub\n      dup2\n      add\n      swap1\n      tag_18\n      swap2\n      swap1\n      tag_19\n      jump\t// in\n    tag_18:\n      tag_20\n      jump\t// in\n    tag_17:\n      mload(0x40)\n      tag_21\n      swap2\n      swap1\n      tag_12\n      jump\t// in\n    tag_21:\n      mload(0x40)\n      dup1\n      swap2\n      sub\n      swap1\n      return\n        /* \"contract/2\\xe6\\x95\\xb0\\xe6\\x8d\\xae\\xe7\\xb1\\xbb\\xe5\\x9e\\x8b/05_lesson.sol\":612:726  function f0_selector_abi() public pure returns(bytes4) {... */\n    tag_6:\n      tag_22\n      tag_23\n      jump\t// in\n    tag_22:\n      mload(0x40)\n      tag_24\n      swap2\n      swap1\n      tag_16\n      jump\t// in\n    tag_24:\n      mload(0x40)\n      dup1\n      swap2\n      sub\n      swap1\n      return\n        /* \"contract/2\\xe6\\x95\\xb0\\xe6\\x8d\\xae\\xe7\\xb1\\xbb\\xe5\\x9e\\x8b/05_lesson.sol\":424:502  function f0(uint a) external   pure returns(uint) {... */\n    tag_10:\n        /* \"contract/2\\xe6\\x95\\xb0\\xe6\\x8d\\xae\\xe7\\xb1\\xbb\\xe5\\x9e\\x8b/05_lesson.sol\":468:472  uint */\n      0x00\n        /* \"contract/2\\xe6\\x95\\xb0\\xe6\\x8d\\xae\\xe7\\xb1\\xbb\\xe5\\x9e\\x8b/05_lesson.sol\":493:494  a */\n      dup2\n        /* \"contract/2\\xe6\\x95\\xb0\\xe6\\x8d\\xae\\xe7\\xb1\\xbb\\xe5\\x9e\\x8b/05_lesson.sol\":486:494  return a */\n      swap1\n      pop\n        /* \"contract/2\\xe6\\x95\\xb0\\xe6\\x8d\\xae\\xe7\\xb1\\xbb\\xe5\\x9e\\x8b/05_lesson.sol\":424:502  function f0(uint a) external   pure returns(uint) {... */\n      swap2\n      swap1\n      pop\n      jump\t// out\n        /* \"contract/2\\xe6\\x95\\xb0\\xe6\\x8d\\xae\\xe7\\xb1\\xbb\\xe5\\x9e\\x8b/05_lesson.sol\":510:604  function f0_selector() public pure returns(bytes4) {... */\n    tag_14:\n        /* \"contract/2\\xe6\\x95\\xb0\\xe6\\x8d\\xae\\xe7\\xb1\\xbb\\xe5\\x9e\\x8b/05_lesson.sol\":553:559  bytes4 */\n      0x00\n        /* \"contract/2\\xe6\\x95\\xb0\\xe6\\x8d\\xae\\xe7\\xb1\\xbb\\xe5\\x9e\\x8b/05_lesson.sol\":580:596  this.f0.selector */\n      shl(0xe0, 0x2ae1431c)\n        /* \"contract/2\\xe6\\x95\\xb0\\xe6\\x8d\\xae\\xe7\\xb1\\xbb\\xe5\\x9e\\x8b/05_lesson.sol\":573:596  return this.f0.selector */\n      swap1\n      pop\n        /* \"contract/2\\xe6\\x95\\xb0\\xe6\\x8d\\xae\\xe7\\xb1\\xbb\\xe5\\x9e\\x8b/05_lesson.sol\":510:604  function f0_selector() public pure returns(bytes4) {... */\n      swap1\n      jump\t// out\n        /* \"contract/2\\xe6\\x95\\xb0\\xe6\\x8d\\xae\\xe7\\xb1\\xbb\\xe5\\x9e\\x8b/05_lesson.sol\":148:416  function select(bytes4 selector, uint x) external returns (uint) {... */\n    tag_20:\n        /* \"contract/2\\xe6\\x95\\xb0\\xe6\\x8d\\xae\\xe7\\xb1\\xbb\\xe5\\x9e\\x8b/05_lesson.sol\":207:211  uint */\n      0x00\n        /* \"contract/2\\xe6\\x95\\xb0\\xe6\\x8d\\xae\\xe7\\xb1\\xbb\\xe5\\x9e\\x8b/05_lesson.sol\":225:237  bool success */\n      dup1\n        /* \"contract/2\\xe6\\x95\\xb0\\xe6\\x8d\\xae\\xe7\\xb1\\xbb\\xe5\\x9e\\x8b/05_lesson.sol\":239:256  bytes memory data */\n      0x00\n        /* \"contract/2\\xe6\\x95\\xb0\\xe6\\x8d\\xae\\xe7\\xb1\\xbb\\xe5\\x9e\\x8b/05_lesson.sol\":268:272  this */\n      address\n        /* \"contract/2\\xe6\\x95\\xb0\\xe6\\x8d\\xae\\xe7\\xb1\\xbb\\xe5\\x9e\\x8b/05_lesson.sol\":260:278  address(this).call */\n      0xffffffffffffffffffffffffffffffffffffffff\n      and\n        /* \"contract/2\\xe6\\x95\\xb0\\xe6\\x8d\\xae\\xe7\\xb1\\xbb\\xe5\\x9e\\x8b/05_lesson.sol\":302:310  selector */\n      dup6\n        /* \"contract/2\\xe6\\x95\\xb0\\xe6\\x8d\\xae\\xe7\\xb1\\xbb\\xe5\\x9e\\x8b/05_lesson.sol\":312:313  x */\n      dup6\n        /* \"contract/2\\xe6\\x95\\xb0\\xe6\\x8d\\xae\\xe7\\xb1\\xbb\\xe5\\x9e\\x8b/05_lesson.sol\":279:314  abi.encodeWithSelector(selector, x) */\n      add(0x24, mload(0x40))\n      tag_28\n      swap2\n      swap1\n      tag_12\n      jump\t// in\n    tag_28:\n      mload(0x40)\n      0x20\n      dup2\n      dup4\n      sub\n      sub\n      dup2\n      mstore\n      swap1\n      0x40\n      mstore\n      swap1\n      not(0xffffffffffffffffffffffffffffffffffffffffffffffffffffffff)\n      and\n      0x20\n      dup3\n      add\n      dup1\n      mload\n      0xffffffffffffffffffffffffffffffffffffffffffffffffffffffff\n      dup4\n      dup2\n      dup4\n      and\n      or\n      dup4\n      mstore\n      pop\n      pop\n      pop\n      pop\n        /* \"contract/2\\xe6\\x95\\xb0\\xe6\\x8d\\xae\\xe7\\xb1\\xbb\\xe5\\x9e\\x8b/05_lesson.sol\":260:315  address(this).call(abi.encodeWithSelector(selector, x)) */\n      mload(0x40)\n      tag_29\n      swap2\n      swap1\n      tag_30\n      jump\t// in\n    tag_29:\n      0x00\n      mload(0x40)\n      dup1\n      dup4\n      sub\n      dup2\n      0x00\n      dup7\n      gas\n      call\n      swap2\n      pop\n      pop\n      returndatasize\n      dup1\n      0x00\n      dup2\n      eq\n      tag_33\n      jumpi\n      mload(0x40)\n      swap2\n      pop\n      and(add(returndatasize, 0x3f), not(0x1f))\n      dup3\n      add\n      0x40\n      mstore\n      returndatasize\n      dup3\n      mstore\n      returndatasize\n      0x00\n      0x20\n      dup5\n      add\n      returndatacopy\n      jump(tag_32)\n    tag_33:\n      0x60\n      swap2\n      pop\n    tag_32:\n      pop\n        /* \"contract/2\\xe6\\x95\\xb0\\xe6\\x8d\\xae\\xe7\\xb1\\xbb\\xe5\\x9e\\x8b/05_lesson.sol\":224:315  (bool success, bytes memory data) = address(this).call(abi.encodeWithSelector(selector, x)) */\n      swap2\n      pop\n      swap2\n      pop\n        /* \"contract/2\\xe6\\x95\\xb0\\xe6\\x8d\\xae\\xe7\\xb1\\xbb\\xe5\\x9e\\x8b/05_lesson.sol\":334:341  success */\n      dup2\n        /* \"contract/2\\xe6\\x95\\xb0\\xe6\\x8d\\xae\\xe7\\xb1\\xbb\\xe5\\x9e\\x8b/05_lesson.sol\":326:366  require(success, \"Function call failed\") */\n      tag_34\n      jumpi\n      mload(0x40)\n      0x08c379a000000000000000000000000000000000000000000000000000000000\n      dup2\n      mstore\n      0x04\n      add\n      tag_35\n      swap1\n      tag_36\n      jump\t// in\n    tag_35:\n      mload(0x40)\n      dup1\n      swap2\n      sub\n      swap1\n      revert\n    tag_34:\n        /* \"contract/2\\xe6\\x95\\xb0\\xe6\\x8d\\xae\\xe7\\xb1\\xbb\\xe5\\x9e\\x8b/05_lesson.sol\":395:399  data */\n      dup1\n        /* \"contract/2\\xe6\\x95\\xb0\\xe6\\x8d\\xae\\xe7\\xb1\\xbb\\xe5\\x9e\\x8b/05_lesson.sol\":384:408  abi.decode(data, (uint)) */\n      dup1\n      0x20\n      add\n      swap1\n      mload\n      dup2\n      add\n      swap1\n      tag_37\n      swap2\n      swap1\n      tag_38\n      jump\t// in\n    tag_37:\n        /* \"contract/2\\xe6\\x95\\xb0\\xe6\\x8d\\xae\\xe7\\xb1\\xbb\\xe5\\x9e\\x8b/05_lesson.sol\":377:408  return abi.decode(data, (uint)) */\n      swap3\n      pop\n      pop\n      pop\n        /* \"contract/2\\xe6\\x95\\xb0\\xe6\\x8d\\xae\\xe7\\xb1\\xbb\\xe5\\x9e\\x8b/05_lesson.sol\":148:416  function select(bytes4 selector, uint x) external returns (uint) {... */\n      swap3\n      swap2\n      pop\n      pop\n      jump\t// out\n        /* \"contract/2\\xe6\\x95\\xb0\\xe6\\x8d\\xae\\xe7\\xb1\\xbb\\xe5\\x9e\\x8b/05_lesson.sol\":612:726  function f0_selector_abi() public pure returns(bytes4) {... */\n    tag_23:\n        /* \"contract/2\\xe6\\x95\\xb0\\xe6\\x8d\\xae\\xe7\\xb1\\xbb\\xe5\\x9e\\x8b/05_lesson.sol\":659:665  bytes4 */\n      0x00\n        /* \"contract/2\\xe6\\x95\\xb0\\xe6\\x8d\\xae\\xe7\\xb1\\xbb\\xe5\\x9e\\x8b/05_lesson.sol\":693:717  keccak256(\"f0(uint256)\") */\n      0x2ae1431c8366c35dc6793022419a53ecf129fcc500a168ba0bdf69ca776d5a1c\n        /* \"contract/2\\xe6\\x95\\xb0\\xe6\\x8d\\xae\\xe7\\xb1\\xbb\\xe5\\x9e\\x8b/05_lesson.sol\":679:718  return bytes4(keccak256(\"f0(uint256)\")) */\n      swap1\n      pop\n        /* \"contract/2\\xe6\\x95\\xb0\\xe6\\x8d\\xae\\xe7\\xb1\\xbb\\xe5\\x9e\\x8b/05_lesson.sol\":612:726  function f0_selector_abi() public pure returns(bytes4) {... */\n      swap1\n      jump\t// out\n        /* \"#utility.yul\":88:205   */\n    tag_41:\n        /* \"#utility.yul\":197:198   */\n      0x00\n        /* \"#utility.yul\":194:195   */\n      dup1\n        /* \"#utility.yul\":187:199   */\n      revert\n        /* \"#utility.yul\":334:411   */\n    tag_43:\n        /* \"#utility.yul\":371:378   */\n      0x00\n        /* \"#utility.yul\":400:405   */\n      dup2\n        /* \"#utility.yul\":389:405   */\n      swap1\n      pop\n        /* \"#utility.yul\":334:411   */\n      swap2\n      swap1\n      pop\n      jump\t// out\n        /* \"#utility.yul\":417:539   */\n    tag_44:\n        /* \"#utility.yul\":490:514   */\n      tag_65\n        /* \"#utility.yul\":508:513   */\n      dup2\n        /* \"#utility.yul\":490:514   */\n      tag_43\n      jump\t// in\n    tag_65:\n        /* \"#utility.yul\":483:488   */\n      dup2\n        /* \"#utility.yul\":480:515   */\n      eq\n        /* \"#utility.yul\":470:533   */\n      tag_66\n      jumpi\n        /* \"#utility.yul\":529:530   */\n      0x00\n        /* \"#utility.yul\":526:527   */\n      dup1\n        /* \"#utility.yul\":519:531   */\n      revert\n        /* \"#utility.yul\":470:533   */\n    tag_66:\n        /* \"#utility.yul\":417:539   */\n      pop\n      jump\t// out\n        /* \"#utility.yul\":545:684   */\n    tag_45:\n        /* \"#utility.yul\":591:596   */\n      0x00\n        /* \"#utility.yul\":629:635   */\n      dup2\n        /* \"#utility.yul\":616:636   */\n      calldataload\n        /* \"#utility.yul\":607:636   */\n      swap1\n      pop\n        /* \"#utility.yul\":645:678   */\n      tag_68\n        /* \"#utility.yul\":672:677   */\n      dup2\n        /* \"#utility.yul\":645:678   */\n      tag_44\n      jump\t// in\n    tag_68:\n        /* \"#utility.yul\":545:684   */\n      swap3\n      swap2\n      pop\n      pop\n      jump\t// out\n        /* \"#utility.yul\":690:1019   */\n    tag_9:\n        /* \"#utility.yul\":749:755   */\n      0x00\n        /* \"#utility.yul\":798:800   */\n      0x20\n        /* \"#utility.yul\":786:795   */\n      dup3\n        /* \"#utility.yul\":777:784   */\n      dup5\n        /* \"#utility.yul\":773:796   */\n      sub\n        /* \"#utility.yul\":769:801   */\n      slt\n        /* \"#utility.yul\":766:885   */\n      iszero\n      tag_70\n      jumpi\n        /* \"#utility.yul\":804:883   */\n      tag_71\n      tag_41\n      jump\t// in\n    tag_71:\n        /* \"#utility.yul\":766:885   */\n    tag_70:\n        /* \"#utility.yul\":924:925   */\n      0x00\n        /* \"#utility.yul\":949:1002   */\n      tag_72\n        /* \"#utility.yul\":994:1001   */\n      dup5\n        /* \"#utility.yul\":985:991   */\n      dup3\n        /* \"#utility.yul\":974:983   */\n      dup6\n        /* \"#utility.yul\":970:992   */\n      add\n        /* \"#utility.yul\":949:1002   */\n      tag_45\n      jump\t// in\n    tag_72:\n        /* \"#utility.yul\":939:1002   */\n      swap2\n      pop\n        /* \"#utility.yul\":895:1012   */\n      pop\n        /* \"#utility.yul\":690:1019   */\n      swap3\n      swap2\n      pop\n      pop\n      jump\t// out\n        /* \"#utility.yul\":1025:1143   */\n    tag_46:\n        /* \"#utility.yul\":1112:1136   */\n      tag_74\n        /* \"#utility.yul\":1130:1135   */\n      dup2\n        /* \"#utility.yul\":1112:1136   */\n      tag_43\n      jump\t// in\n    tag_74:\n        /* \"#utility.yul\":1107:1110   */\n      dup3\n        /* \"#utility.yul\":1100:1137   */\n      mstore\n        /* \"#utility.yul\":1025:1143   */\n      pop\n      pop\n      jump\t// out\n        /* \"#utility.yul\":1149:1371   */\n    tag_12:\n        /* \"#utility.yul\":1242:1246   */\n      0x00\n        /* \"#utility.yul\":1280:1282   */\n      0x20\n        /* \"#utility.yul\":1269:1278   */\n      dup3\n        /* \"#utility.yul\":1265:1283   */\n      add\n        /* \"#utility.yul\":1257:1283   */\n      swap1\n      pop\n        /* \"#utility.yul\":1293:1364   */\n      tag_76\n        /* \"#utility.yul\":1361:1362   */\n      0x00\n        /* \"#utility.yul\":1350:1359   */\n      dup4\n        /* \"#utility.yul\":1346:1363   */\n      add\n        /* \"#utility.yul\":1337:1343   */\n      dup5\n        /* \"#utility.yul\":1293:1364   */\n      tag_46\n      jump\t// in\n    tag_76:\n        /* \"#utility.yul\":1149:1371   */\n      swap3\n      swap2\n      pop\n      pop\n      jump\t// out\n        /* \"#utility.yul\":1377:1526   */\n    tag_47:\n        /* \"#utility.yul\":1413:1420   */\n      0x00\n        /* \"#utility.yul\":1453:1519   */\n      0xffffffff00000000000000000000000000000000000000000000000000000000\n        /* \"#utility.yul\":1446:1451   */\n      dup3\n        /* \"#utility.yul\":1442:1520   */\n      and\n        /* \"#utility.yul\":1431:1520   */\n      swap1\n      pop\n        /* \"#utility.yul\":1377:1526   */\n      swap2\n      swap1\n      pop\n      jump\t// out\n        /* \"#utility.yul\":1532:1647   */\n    tag_48:\n        /* \"#utility.yul\":1617:1640   */\n      tag_79\n        /* \"#utility.yul\":1634:1639   */\n      dup2\n        /* \"#utility.yul\":1617:1640   */\n      tag_47\n      jump\t// in\n    tag_79:\n        /* \"#utility.yul\":1612:1615   */\n      dup3\n        /* \"#utility.yul\":1605:1641   */\n      mstore\n        /* \"#utility.yul\":1532:1647   */\n      pop\n      pop\n      jump\t// out\n        /* \"#utility.yul\":1653:1871   */\n    tag_16:\n        /* \"#utility.yul\":1744:1748   */\n      0x00\n        /* \"#utility.yul\":1782:1784   */\n      0x20\n        /* \"#utility.yul\":1771:1780   */\n      dup3\n        /* \"#utility.yul\":1767:1785   */\n      add\n        /* \"#utility.yul\":1759:1785   */\n      swap1\n      pop\n        /* \"#utility.yul\":1795:1864   */\n      tag_81\n        /* \"#utility.yul\":1861:1862   */\n      0x00\n        /* \"#utility.yul\":1850:1859   */\n      dup4\n        /* \"#utility.yul\":1846:1863   */\n      add\n        /* \"#utility.yul\":1837:1843   */\n      dup5\n        /* \"#utility.yul\":1795:1864   */\n      tag_48\n      jump\t// in\n    tag_81:\n        /* \"#utility.yul\":1653:1871   */\n      swap3\n      swap2\n      pop\n      pop\n      jump\t// out\n        /* \"#utility.yul\":1877:1997   */\n    tag_49:\n        /* \"#utility.yul\":1949:1972   */\n      tag_83\n        /* \"#utility.yul\":1966:1971   */\n      dup2\n        /* \"#utility.yul\":1949:1972   */\n      tag_47\n      jump\t// in\n    tag_83:\n        /* \"#utility.yul\":1942:1947   */\n      dup2\n        /* \"#utility.yul\":1939:1973   */\n      eq\n        /* \"#utility.yul\":1929:1991   */\n      tag_84\n      jumpi\n        /* \"#utility.yul\":1987:1988   */\n      0x00\n        /* \"#utility.yul\":1984:1985   */\n      dup1\n        /* \"#utility.yul\":1977:1989   */\n      revert\n        /* \"#utility.yul\":1929:1991   */\n    tag_84:\n        /* \"#utility.yul\":1877:1997   */\n      pop\n      jump\t// out\n        /* \"#utility.yul\":2003:2140   */\n    tag_50:\n        /* \"#utility.yul\":2048:2053   */\n      0x00\n        /* \"#utility.yul\":2086:2092   */\n      dup2\n        /* \"#utility.yul\":2073:2093   */\n      calldataload\n        /* \"#utility.yul\":2064:2093   */\n      swap1\n      pop\n        /* \"#utility.yul\":2102:2134   */\n      tag_86\n        /* \"#utility.yul\":2128:2133   */\n      dup2\n        /* \"#utility.yul\":2102:2134   */\n      tag_49\n      jump\t// in\n    tag_86:\n        /* \"#utility.yul\":2003:2140   */\n      swap3\n      swap2\n      pop\n      pop\n      jump\t// out\n        /* \"#utility.yul\":2146:2618   */\n    tag_19:\n        /* \"#utility.yul\":2213:2219   */\n      0x00\n        /* \"#utility.yul\":2221:2227   */\n      dup1\n        /* \"#utility.yul\":2270:2272   */\n      0x40\n        /* \"#utility.yul\":2258:2267   */\n      dup4\n        /* \"#utility.yul\":2249:2256   */\n      dup6\n        /* \"#utility.yul\":2245:2268   */\n      sub\n        /* \"#utility.yul\":2241:2273   */\n      slt\n        /* \"#utility.yul\":2238:2357   */\n      iszero\n      tag_88\n      jumpi\n        /* \"#utility.yul\":2276:2355   */\n      tag_89\n      tag_41\n      jump\t// in\n    tag_89:\n        /* \"#utility.yul\":2238:2357   */\n    tag_88:\n        /* \"#utility.yul\":2396:2397   */\n      0x00\n        /* \"#utility.yul\":2421:2473   */\n      tag_90\n        /* \"#utility.yul\":2465:2472   */\n      dup6\n        /* \"#utility.yul\":2456:2462   */\n      dup3\n        /* \"#utility.yul\":2445:2454   */\n      dup7\n        /* \"#utility.yul\":2441:2463   */\n      add\n        /* \"#utility.yul\":2421:2473   */\n      tag_50\n      jump\t// in\n    tag_90:\n        /* \"#utility.yul\":2411:2473   */\n      swap3\n      pop\n        /* \"#utility.yul\":2367:2483   */\n      pop\n        /* \"#utility.yul\":2522:2524   */\n      0x20\n        /* \"#utility.yul\":2548:2601   */\n      tag_91\n        /* \"#utility.yul\":2593:2600   */\n      dup6\n        /* \"#utility.yul\":2584:2590   */\n      dup3\n        /* \"#utility.yul\":2573:2582   */\n      dup7\n        /* \"#utility.yul\":2569:2591   */\n      add\n        /* \"#utility.yul\":2548:2601   */\n      tag_45\n      jump\t// in\n    tag_91:\n        /* \"#utility.yul\":2538:2601   */\n      swap2\n      pop\n        /* \"#utility.yul\":2493:2611   */\n      pop\n        /* \"#utility.yul\":2146:2618   */\n      swap3\n      pop\n      swap3\n      swap1\n      pop\n      jump\t// out\n        /* \"#utility.yul\":2624:2722   */\n    tag_51:\n        /* \"#utility.yul\":2675:2681   */\n      0x00\n        /* \"#utility.yul\":2709:2714   */\n      dup2\n        /* \"#utility.yul\":2703:2715   */\n      mload\n        /* \"#utility.yul\":2693:2715   */\n      swap1\n      pop\n        /* \"#utility.yul\":2624:2722   */\n      swap2\n      swap1\n      pop\n      jump\t// out\n        /* \"#utility.yul\":2728:2875   */\n    tag_52:\n        /* \"#utility.yul\":2829:2840   */\n      0x00\n        /* \"#utility.yul\":2866:2869   */\n      dup2\n        /* \"#utility.yul\":2851:2869   */\n      swap1\n      pop\n        /* \"#utility.yul\":2728:2875   */\n      swap3\n      swap2\n      pop\n      pop\n      jump\t// out\n        /* \"#utility.yul\":2881:3020   */\n    tag_53:\n        /* \"#utility.yul\":2970:2976   */\n      dup3\n        /* \"#utility.yul\":2965:2968   */\n      dup2\n        /* \"#utility.yul\":2960:2963   */\n      dup4\n        /* \"#utility.yul\":2954:2977   */\n      mcopy\n        /* \"#utility.yul\":3011:3012   */\n      0x00\n        /* \"#utility.yul\":3002:3008   */\n      dup4\n        /* \"#utility.yul\":2997:3000   */\n      dup4\n        /* \"#utility.yul\":2993:3009   */\n      add\n        /* \"#utility.yul\":2986:3013   */\n      mstore\n        /* \"#utility.yul\":2881:3020   */\n      pop\n      pop\n      pop\n      jump\t// out\n        /* \"#utility.yul\":3026:3412   */\n    tag_54:\n        /* \"#utility.yul\":3130:3133   */\n      0x00\n        /* \"#utility.yul\":3158:3196   */\n      tag_96\n        /* \"#utility.yul\":3190:3195   */\n      dup3\n        /* \"#utility.yul\":3158:3196   */\n      tag_51\n      jump\t// in\n    tag_96:\n        /* \"#utility.yul\":3212:3300   */\n      tag_97\n        /* \"#utility.yul\":3293:3299   */\n      dup2\n        /* \"#utility.yul\":3288:3291   */\n      dup6\n        /* \"#utility.yul\":3212:3300   */\n      tag_52\n      jump\t// in\n    tag_97:\n        /* \"#utility.yul\":3205:3300   */\n      swap4\n      pop\n        /* \"#utility.yul\":3309:3374   */\n      tag_98\n        /* \"#utility.yul\":3367:3373   */\n      dup2\n        /* \"#utility.yul\":3362:3365   */\n      dup6\n        /* \"#utility.yul\":3355:3359   */\n      0x20\n        /* \"#utility.yul\":3348:3353   */\n      dup7\n        /* \"#utility.yul\":3344:3360   */\n      add\n        /* \"#utility.yul\":3309:3374   */\n      tag_53\n      jump\t// in\n    tag_98:\n        /* \"#utility.yul\":3399:3405   */\n      dup1\n        /* \"#utility.yul\":3394:3397   */\n      dup5\n        /* \"#utility.yul\":3390:3406   */\n      add\n        /* \"#utility.yul\":3383:3406   */\n      swap2\n      pop\n        /* \"#utility.yul\":3134:3412   */\n      pop\n        /* \"#utility.yul\":3026:3412   */\n      swap3\n      swap2\n      pop\n      pop\n      jump\t// out\n        /* \"#utility.yul\":3418:3689   */\n    tag_30:\n        /* \"#utility.yul\":3548:3551   */\n      0x00\n        /* \"#utility.yul\":3570:3663   */\n      tag_100\n        /* \"#utility.yul\":3659:3662   */\n      dup3\n        /* \"#utility.yul\":3650:3656   */\n      dup5\n        /* \"#utility.yul\":3570:3663   */\n      tag_54\n      jump\t// in\n    tag_100:\n        /* \"#utility.yul\":3563:3663   */\n      swap2\n      pop\n        /* \"#utility.yul\":3680:3683   */\n      dup2\n        /* \"#utility.yul\":3673:3683   */\n      swap1\n      pop\n        /* \"#utility.yul\":3418:3689   */\n      swap3\n      swap2\n      pop\n      pop\n      jump\t// out\n        /* \"#utility.yul\":3695:3864   */\n    tag_55:\n        /* \"#utility.yul\":3779:3790   */\n      0x00\n        /* \"#utility.yul\":3813:3819   */\n      dup3\n        /* \"#utility.yul\":3808:3811   */\n      dup3\n        /* \"#utility.yul\":3801:3820   */\n      mstore\n        /* \"#utility.yul\":3853:3857   */\n      0x20\n        /* \"#utility.yul\":3848:3851   */\n      dup3\n        /* \"#utility.yul\":3844:3858   */\n      add\n        /* \"#utility.yul\":3829:3858   */\n      swap1\n      pop\n        /* \"#utility.yul\":3695:3864   */\n      swap3\n      swap2\n      pop\n      pop\n      jump\t// out\n        /* \"#utility.yul\":3870:4040   */\n    tag_56:\n        /* \"#utility.yul\":4010:4032   */\n      0x46756e6374696f6e2063616c6c206661696c6564000000000000000000000000\n        /* \"#utility.yul\":4006:4007   */\n      0x00\n        /* \"#utility.yul\":3998:4004   */\n      dup3\n        /* \"#utility.yul\":3994:4008   */\n      add\n        /* \"#utility.yul\":3987:4033   */\n      mstore\n        /* \"#utility.yul\":3870:4040   */\n      pop\n      jump\t// out\n        /* \"#utility.yul\":4046:4412   */\n    tag_57:\n        /* \"#utility.yul\":4188:4191   */\n      0x00\n        /* \"#utility.yul\":4209:4276   */\n      tag_104\n        /* \"#utility.yul\":4273:4275   */\n      0x14\n        /* \"#utility.yul\":4268:4271   */\n      dup4\n        /* \"#utility.yul\":4209:4276   */\n      tag_55\n      jump\t// in\n    tag_104:\n        /* \"#utility.yul\":4202:4276   */\n      swap2\n      pop\n        /* \"#utility.yul\":4285:4378   */\n      tag_105\n        /* \"#utility.yul\":4374:4377   */\n      dup3\n        /* \"#utility.yul\":4285:4378   */\n      tag_56\n      jump\t// in\n    tag_105:\n        /* \"#utility.yul\":4403:4405   */\n      0x20\n        /* \"#utility.yul\":4398:4401   */\n      dup3\n        /* \"#utility.yul\":4394:4406   */\n      add\n        /* \"#utility.yul\":4387:4406   */\n      swap1\n      pop\n        /* \"#utility.yul\":4046:4412   */\n      swap2\n      swap1\n      pop\n      jump\t// out\n        /* \"#utility.yul\":4418:4837   */\n    tag_36:\n        /* \"#utility.yul\":4584:4588   */\n      0x00\n        /* \"#utility.yul\":4622:4624   */\n      0x20\n        /* \"#utility.yul\":4611:4620   */\n      dup3\n        /* \"#utility.yul\":4607:4625   */\n      add\n        /* \"#utility.yul\":4599:4625   */\n      swap1\n      pop\n        /* \"#utility.yul\":4671:4680   */\n      dup2\n        /* \"#utility.yul\":4665:4669   */\n      dup2\n        /* \"#utility.yul\":4661:4681   */\n      sub\n        /* \"#utility.yul\":4657:4658   */\n      0x00\n        /* \"#utility.yul\":4646:4655   */\n      dup4\n        /* \"#utility.yul\":4642:4659   */\n      add\n        /* \"#utility.yul\":4635:4682   */\n      mstore\n        /* \"#utility.yul\":4699:4830   */\n      tag_107\n        /* \"#utility.yul\":4825:4829   */\n      dup2\n        /* \"#utility.yul\":4699:4830   */\n      tag_57\n      jump\t// in\n    tag_107:\n        /* \"#utility.yul\":4691:4830   */\n      swap1\n      pop\n        /* \"#utility.yul\":4418:4837   */\n      swap2\n      swap1\n      pop\n      jump\t// out\n        /* \"#utility.yul\":4843:4986   */\n    tag_58:\n        /* \"#utility.yul\":4900:4905   */\n      0x00\n        /* \"#utility.yul\":4931:4937   */\n      dup2\n        /* \"#utility.yul\":4925:4938   */\n      mload\n        /* \"#utility.yul\":4916:4938   */\n      swap1\n      pop\n        /* \"#utility.yul\":4947:4980   */\n      tag_109\n        /* \"#utility.yul\":4974:4979   */\n      dup2\n        /* \"#utility.yul\":4947:4980   */\n      tag_44\n      jump\t// in\n    tag_109:\n        /* \"#utility.yul\":4843:4986   */\n      swap3\n      swap2\n      pop\n      pop\n      jump\t// out\n        /* \"#utility.yul\":4992:5343   */\n    tag_38:\n        /* \"#utility.yul\":5062:5068   */\n      0x00\n        /* \"#utility.yul\":5111:5113   */\n      0x20\n        /* \"#utility.yul\":5099:5108   */\n      dup3\n        /* \"#utility.yul\":5090:5097   */\n      dup5\n        /* \"#utility.yul\":5086:5109   */\n      sub\n        /* \"#utility.yul\":5082:5114   */\n      slt\n        /* \"#utility.yul\":5079:5198   */\n      iszero\n      tag_111\n      jumpi\n        /* \"#utility.yul\":5117:5196   */\n      tag_112\n      tag_41\n      jump\t// in\n    tag_112:\n        /* \"#utility.yul\":5079:5198   */\n    tag_111:\n        /* \"#utility.yul\":5237:5238   */\n      0x00\n        /* \"#utility.yul\":5262:5326   */\n      tag_113\n        /* \"#utility.yul\":5318:5325   */\n      dup5\n        /* \"#utility.yul\":5309:5315   */\n      dup3\n        /* \"#utility.yul\":5298:5307   */\n      dup6\n        /* \"#utility.yul\":5294:5316   */\n      add\n        /* \"#utility.yul\":5262:5326   */\n      tag_58\n      jump\t// in\n    tag_113:\n        /* \"#utility.yul\":5252:5326   */\n      swap2\n      pop\n        /* \"#utility.yul\":5208:5336   */\n      pop\n        /* \"#utility.yul\":4992:5343   */\n      swap3\n      swap2\n      pop\n      pop\n      jump\t// out\n\n    auxdata: 0xa26469706673582212208ed8a7994cd2475e876ae4150a627762f51b77bbe037512310762266099cb2a264736f6c634300081a0033\n}\n",
				"bytecode": {
					"linkReferences": {},
					"object": "6080604052348015600e575f80fd5b506104f98061001c5f395ff3fe608060405234801561000f575f80fd5b506004361061004a575f3560e01c80632ae1431c1461004e57806332cdf8a71461007e5780634c93bab51461009c578063fe6cd306146100cc575b5f80fd5b61006860048036038101906100639190610296565b6100ea565b60405161007591906102d0565b60405180910390f35b6100866100f3565b6040516100939190610323565b60405180910390f35b6100b660048036038101906100b19190610366565b610101565b6040516100c391906102d0565b60405180910390f35b6100d4610238565b6040516100e19190610323565b60405180910390f35b5f819050919050565b5f632ae1431c60e01b905090565b5f805f3073ffffffffffffffffffffffffffffffffffffffff16858560405160240161012d91906102d0565b604051602081830303815290604052907bffffffffffffffffffffffffffffffffffffffffffffffffffffffff19166020820180517bffffffffffffffffffffffffffffffffffffffffffffffffffffffff838183161783525050505060405161019791906103f6565b5f604051808303815f865af19150503d805f81146101d0576040519150601f19603f3d011682016040523d82523d5f602084013e6101d5565b606091505b50915091508161021a576040517f08c379a000000000000000000000000000000000000000000000000000000000815260040161021190610466565b60405180910390fd5b8080602001905181019061022e9190610498565b9250505092915050565b5f7f2ae1431c8366c35dc6793022419a53ecf129fcc500a168ba0bdf69ca776d5a1c905090565b5f80fd5b5f819050919050565b61027581610263565b811461027f575f80fd5b50565b5f813590506102908161026c565b92915050565b5f602082840312156102ab576102aa61025f565b5b5f6102b884828501610282565b91505092915050565b6102ca81610263565b82525050565b5f6020820190506102e35f8301846102c1565b92915050565b5f7fffffffff0000000000000000000000000000000000000000000000000000000082169050919050565b61031d816102e9565b82525050565b5f6020820190506103365f830184610314565b92915050565b610345816102e9565b811461034f575f80fd5b50565b5f813590506103608161033c565b92915050565b5f806040838503121561037c5761037b61025f565b5b5f61038985828601610352565b925050602061039a85828601610282565b9150509250929050565b5f81519050919050565b5f81905092915050565b8281835e5f83830152505050565b5f6103d0826103a4565b6103da81856103ae565b93506103ea8185602086016103b8565b80840191505092915050565b5f61040182846103c6565b915081905092915050565b5f82825260208201905092915050565b7f46756e6374696f6e2063616c6c206661696c65640000000000000000000000005f82015250565b5f61045060148361040c565b915061045b8261041c565b602082019050919050565b5f6020820190508181035f83015261047d81610444565b9050919050565b5f815190506104928161026c565b92915050565b5f602082840312156104ad576104ac61025f565b5b5f6104ba84828501610484565b9150509291505056fea26469706673582212208ed8a7994cd2475e876ae4150a627762f51b77bbe037512310762266099cb2a264736f6c634300081a0033",
					"opcodes": "PUSH1 0x80 PUSH1 0x40 MSTORE CALLVALUE DUP1 ISZERO PUSH1 0xE JUMPI PUSH0 DUP1 REVERT JUMPDEST POP PUSH2 0x4F9 DUP1 PUSH2 0x1C PUSH0 CODECOPY PUSH0 RETURN INVALID PUSH1 0x80 PUSH1 0x40 MSTORE CALLVALUE DUP1 ISZERO PUSH2 0xF JUMPI PUSH0 DUP1 REVERT JUMPDEST POP PUSH1 0x4 CALLDATASIZE LT PUSH2 0x4A JUMPI PUSH0 CALLDATALOAD PUSH1 0xE0 SHR DUP1 PUSH4 0x2AE1431C EQ PUSH2 0x4E JUMPI DUP1 PUSH4 0x32CDF8A7 EQ PUSH2 0x7E JUMPI DUP1 PUSH4 0x4C93BAB5 EQ PUSH2 0x9C JUMPI DUP1 PUSH4 0xFE6CD306 EQ PUSH2 0xCC JUMPI JUMPDEST PUSH0 DUP1 REVERT JUMPDEST PUSH2 0x68 PUSH1 0x4 DUP1 CALLDATASIZE SUB DUP2 ADD SWAP1 PUSH2 0x63 SWAP2 SWAP1 PUSH2 0x296 JUMP JUMPDEST PUSH2 0xEA JUMP JUMPDEST PUSH1 0x40 MLOAD PUSH2 0x75 SWAP2 SWAP1 PUSH2 0x2D0 JUMP JUMPDEST PUSH1 0x40 MLOAD DUP1 SWAP2 SUB SWAP1 RETURN JUMPDEST PUSH2 0x86 PUSH2 0xF3 JUMP JUMPDEST PUSH1 0x40 MLOAD PUSH2 0x93 SWAP2 SWAP1 PUSH2 0x323 JUMP JUMPDEST PUSH1 0x40 MLOAD DUP1 SWAP2 SUB SWAP1 RETURN JUMPDEST PUSH2 0xB6 PUSH1 0x4 DUP1 CALLDATASIZE SUB DUP2 ADD SWAP1 PUSH2 0xB1 SWAP2 SWAP1 PUSH2 0x366 JUMP JUMPDEST PUSH2 0x101 JUMP JUMPDEST PUSH1 0x40 MLOAD PUSH2 0xC3 SWAP2 SWAP1 PUSH2 0x2D0 JUMP JUMPDEST PUSH1 0x40 MLOAD DUP1 SWAP2 SUB SWAP1 RETURN JUMPDEST PUSH2 0xD4 PUSH2 0x238 JUMP JUMPDEST PUSH1 0x40 MLOAD PUSH2 0xE1 SWAP2 SWAP1 PUSH2 0x323 JUMP JUMPDEST PUSH1 0x40 MLOAD DUP1 SWAP2 SUB SWAP1 RETURN JUMPDEST PUSH0 DUP2 SWAP1 POP SWAP2 SWAP1 POP JUMP JUMPDEST PUSH0 PUSH4 0x2AE1431C PUSH1 0xE0 SHL SWAP1 POP SWAP1 JUMP JUMPDEST PUSH0 DUP1 PUSH0 ADDRESS PUSH20 0xFFFFFFFFFFFFFFFFFFFFFFFFFFFFFFFFFFFFFFFF AND DUP6 DUP6 PUSH1 0x40 MLOAD PUSH1 0x24 ADD PUSH2 0x12D SWAP2 SWAP1 PUSH2 0x2D0 JUMP JUMPDEST PUSH1 0x40 MLOAD PUSH1 0x20 DUP2 DUP4 SUB SUB DUP2 MSTORE SWAP1 PUSH1 0x40 MSTORE SWAP1 PUSH28 0xFFFFFFFFFFFFFFFFFFFFFFFFFFFFFFFFFFFFFFFFFFFFFFFFFFFFFFFF NOT AND PUSH1 0x20 DUP3 ADD DUP1 MLOAD PUSH28 0xFFFFFFFFFFFFFFFFFFFFFFFFFFFFFFFFFFFFFFFFFFFFFFFFFFFFFFFF DUP4 DUP2 DUP4 AND OR DUP4 MSTORE POP POP POP POP PUSH1 0x40 MLOAD PUSH2 0x197 SWAP2 SWAP1 PUSH2 0x3F6 JUMP JUMPDEST PUSH0 PUSH1 0x40 MLOAD DUP1 DUP4 SUB DUP2 PUSH0 DUP7 GAS CALL SWAP2 POP POP RETURNDATASIZE DUP1 PUSH0 DUP2 EQ PUSH2 0x1D0 JUMPI PUSH1 0x40 MLOAD SWAP2 POP PUSH1 0x1F NOT PUSH1 0x3F RETURNDATASIZE ADD AND DUP3 ADD PUSH1 0x40 MSTORE RETURNDATASIZE DUP3 MSTORE RETURNDATASIZE PUSH0 PUSH1 0x20 DUP5 ADD RETURNDATACOPY PUSH2 0x1D5 JUMP JUMPDEST PUSH1 0x60 SWAP2 POP JUMPDEST POP SWAP2 POP SWAP2 POP DUP2 PUSH2 0x21A JUMPI PUSH1 0x40 MLOAD PUSH32 0x8C379A000000000000000000000000000000000000000000000000000000000 DUP2 MSTORE PUSH1 0x4 ADD PUSH2 0x211 SWAP1 PUSH2 0x466 JUMP JUMPDEST PUSH1 0x40 MLOAD DUP1 SWAP2 SUB SWAP1 REVERT JUMPDEST DUP1 DUP1 PUSH1 0x20 ADD SWAP1 MLOAD DUP2 ADD SWAP1 PUSH2 0x22E SWAP2 SWAP1 PUSH2 0x498 JUMP JUMPDEST SWAP3 POP POP POP SWAP3 SWAP2 POP POP JUMP JUMPDEST PUSH0 PUSH32 0x2AE1431C8366C35DC6793022419A53ECF129FCC500A168BA0BDF69CA776D5A1C SWAP1 POP SWAP1 JUMP JUMPDEST PUSH0 DUP1 REVERT JUMPDEST PUSH0 DUP2 SWAP1 POP SWAP2 SWAP1 POP JUMP JUMPDEST PUSH2 0x275 DUP2 PUSH2 0x263 JUMP JUMPDEST DUP2 EQ PUSH2 0x27F JUMPI PUSH0 DUP1 REVERT JUMPDEST POP JUMP JUMPDEST PUSH0 DUP2 CALLDATALOAD SWAP1 POP PUSH2 0x290 DUP2 PUSH2 0x26C JUMP JUMPDEST SWAP3 SWAP2 POP POP JUMP JUMPDEST PUSH0 PUSH1 0x20 DUP3 DUP5 SUB SLT ISZERO PUSH2 0x2AB JUMPI PUSH2 0x2AA PUSH2 0x25F JUMP JUMPDEST JUMPDEST PUSH0 PUSH2 0x2B8 DUP5 DUP3 DUP6 ADD PUSH2 0x282 JUMP JUMPDEST SWAP2 POP POP SWAP3 SWAP2 POP POP JUMP JUMPDEST PUSH2 0x2CA DUP2 PUSH2 0x263 JUMP JUMPDEST DUP3 MSTORE POP POP JUMP JUMPDEST PUSH0 PUSH1 0x20 DUP3 ADD SWAP1 POP PUSH2 0x2E3 PUSH0 DUP4 ADD DUP5 PUSH2 0x2C1 JUMP JUMPDEST SWAP3 SWAP2 POP POP JUMP JUMPDEST PUSH0 PUSH32 0xFFFFFFFF00000000000000000000000000000000000000000000000000000000 DUP3 AND SWAP1 POP SWAP2 SWAP1 POP JUMP JUMPDEST PUSH2 0x31D DUP2 PUSH2 0x2E9 JUMP JUMPDEST DUP3 MSTORE POP POP JUMP JUMPDEST PUSH0 PUSH1 0x20 DUP3 ADD SWAP1 POP PUSH2 0x336 PUSH0 DUP4 ADD DUP5 PUSH2 0x314 JUMP JUMPDEST SWAP3 SWAP2 POP POP JUMP JUMPDEST PUSH2 0x345 DUP2 PUSH2 0x2E9 JUMP JUMPDEST DUP2 EQ PUSH2 0x34F JUMPI PUSH0 DUP1 REVERT JUMPDEST POP JUMP JUMPDEST PUSH0 DUP2 CALLDATALOAD SWAP1 POP PUSH2 0x360 DUP2 PUSH2 0x33C JUMP JUMPDEST SWAP3 SWAP2 POP POP JUMP JUMPDEST PUSH0 DUP1 PUSH1 0x40 DUP4 DUP6 SUB SLT ISZERO PUSH2 0x37C JUMPI PUSH2 0x37B PUSH2 0x25F JUMP JUMPDEST JUMPDEST PUSH0 PUSH2 0x389 DUP6 DUP3 DUP7 ADD PUSH2 0x352 JUMP JUMPDEST SWAP3 POP POP PUSH1 0x20 PUSH2 0x39A DUP6 DUP3 DUP7 ADD PUSH2 0x282 JUMP JUMPDEST SWAP2 POP POP SWAP3 POP SWAP3 SWAP1 POP JUMP JUMPDEST PUSH0 DUP2 MLOAD SWAP1 POP SWAP2 SWAP1 POP JUMP JUMPDEST PUSH0 DUP2 SWAP1 POP SWAP3 SWAP2 POP POP JUMP JUMPDEST DUP3 DUP2 DUP4 MCOPY PUSH0 DUP4 DUP4 ADD MSTORE POP POP POP JUMP JUMPDEST PUSH0 PUSH2 0x3D0 DUP3 PUSH2 0x3A4 JUMP JUMPDEST PUSH2 0x3DA DUP2 DUP6 PUSH2 0x3AE JUMP JUMPDEST SWAP4 POP PUSH2 0x3EA DUP2 DUP6 PUSH1 0x20 DUP7 ADD PUSH2 0x3B8 JUMP JUMPDEST DUP1 DUP5 ADD SWAP2 POP POP SWAP3 SWAP2 POP POP JUMP JUMPDEST PUSH0 PUSH2 0x401 DUP3 DUP5 PUSH2 0x3C6 JUMP JUMPDEST SWAP2 POP DUP2 SWAP1 POP SWAP3 SWAP2 POP POP JUMP JUMPDEST PUSH0 DUP3 DUP3 MSTORE PUSH1 0x20 DUP3 ADD SWAP1 POP SWAP3 SWAP2 POP POP JUMP JUMPDEST PUSH32 0x46756E6374696F6E2063616C6C206661696C6564000000000000000000000000 PUSH0 DUP3 ADD MSTORE POP JUMP JUMPDEST PUSH0 PUSH2 0x450 PUSH1 0x14 DUP4 PUSH2 0x40C JUMP JUMPDEST SWAP2 POP PUSH2 0x45B DUP3 PUSH2 0x41C JUMP JUMPDEST PUSH1 0x20 DUP3 ADD SWAP1 POP SWAP2 SWAP1 POP JUMP JUMPDEST PUSH0 PUSH1 0x20 DUP3 ADD SWAP1 POP DUP2 DUP2 SUB PUSH0 DUP4 ADD MSTORE PUSH2 0x47D DUP2 PUSH2 0x444 JUMP JUMPDEST SWAP1 POP SWAP2 SWAP1 POP JUMP JUMPDEST PUSH0 DUP2 MLOAD SWAP1 POP PUSH2 0x492 DUP2 PUSH2 0x26C JUMP JUMPDEST SWAP3 SWAP2 POP POP JUMP JUMPDEST PUSH0 PUSH1 0x20 DUP3 DUP5 SUB SLT ISZERO PUSH2 0x4AD JUMPI PUSH2 0x4AC PUSH2 0x25F JUMP JUMPDEST JUMPDEST PUSH0 PUSH2 0x4BA DUP5 DUP3 DUP6 ADD PUSH2 0x484 JUMP JUMPDEST SWAP2 POP POP SWAP3 SWAP2 POP POP JUMP INVALID LOG2 PUSH5 0x6970667358 0x22 SLT KECCAK256 DUP15 0xD8 0xA7 SWAP10 0x4C 0xD2 SELFBALANCE MCOPY DUP8 PUSH11 0xE4150A627762F51B77BBE0 CALLDATACOPY MLOAD 0x23 LT PUSH23 0x2266099CB2A264736F6C634300081A0033000000000000 "
				},
				"gasEstimates": {
					"creation": {
						"codeDepositCost": "254600",
						"executionCost": "292",
						"totalCost": "254892"
					},
					"external": {
						"f0(uint256)": "infinite",
						"f0_selector()": "344",
						"f0_selector_abi()": "382",
						"select(bytes4,uint256)": "infinite"
					}
				},
				"methodIdentifiers": {
					"f0(uint256)": "2ae1431c",
					"f0_selector()": "32cdf8a7",
					"f0_selector_abi()": "fe6cd306",
					"select(bytes4,uint256)": "4c93bab5"
				}
			},
			"storageLayout": {
				"storage": [],
				"types": null
			},
			"userdoc": {
				"kind": "user",
				"methods": {},
				"version": 1
			}
		}
	}
}