{
	"data": {
		"bytecode": {
			"linkReferences": {},
			"object": "6080604052348015600e575f80fd5b506103c68061001c5f395ff3fe608060405260043610610028575f3560e01c806375949c131461002c578063b69ef8a814610048575b5f80fd5b610046600480360381019061004191906101a2565b610072565b005b348015610053575f80fd5b5061005c61013f565b60405161006991906101e5565b60405180910390f35b5f600234610080919061022b565b146100c0576040517f08c379a00000000000000000000000000000000000000000000000000000000081526004016100b7906102b5565b60405180910390fd5b5f4790508173ffffffffffffffffffffffffffffffffffffffff166108fc6002346100eb9190610300565b90811502906040515f60405180830381858888f19350505050158015610113573d5f803e3d5ffd5b506002346101219190610300565b8161012c9190610330565b471461013b5761013a610363565b5b5050565b5f5481565b5f80fd5b5f73ffffffffffffffffffffffffffffffffffffffff82169050919050565b5f61017182610148565b9050919050565b61018181610167565b811461018b575f80fd5b50565b5f8135905061019c81610178565b92915050565b5f602082840312156101b7576101b6610144565b5b5f6101c48482850161018e565b91505092915050565b5f819050919050565b6101df816101cd565b82525050565b5f6020820190506101f85f8301846101d6565b92915050565b7f4e487b71000000000000000000000000000000000000000000000000000000005f52601260045260245ffd5b5f610235826101cd565b9150610240836101cd565b9250826102505761024f6101fe565b5b828206905092915050565b5f82825260208201905092915050565b7f4576656e2076616c75652072657175697265642e0000000000000000000000005f82015250565b5f61029f60148361025b565b91506102aa8261026b565b602082019050919050565b5f6020820190508181035f8301526102cc81610293565b9050919050565b7f4e487b71000000000000000000000000000000000000000000000000000000005f52601160045260245ffd5b5f61030a826101cd565b9150610315836101cd565b925082610325576103246101fe565b5b828204905092915050565b5f61033a826101cd565b9150610345836101cd565b925082820390508181111561035d5761035c6102d3565b5b92915050565b7f4e487b71000000000000000000000000000000000000000000000000000000005f52600160045260245ffdfea264697066735822122007c13954eae77accd155689640fcd3634bf14d439ba85794e8c101b39d4c4c9264736f6c634300081a0033",
			"opcodes": "PUSH1 0x80 PUSH1 0x40 MSTORE CALLVALUE DUP1 ISZERO PUSH1 0xE JUMPI PUSH0 DUP1 REVERT JUMPDEST POP PUSH2 0x3C6 DUP1 PUSH2 0x1C PUSH0 CODECOPY PUSH0 RETURN INVALID PUSH1 0x80 PUSH1 0x40 MSTORE PUSH1 0x4 CALLDATASIZE LT PUSH2 0x28 JUMPI PUSH0 CALLDATALOAD PUSH1 0xE0 SHR DUP1 PUSH4 0x75949C13 EQ PUSH2 0x2C JUMPI DUP1 PUSH4 0xB69EF8A8 EQ PUSH2 0x48 JUMPI JUMPDEST PUSH0 DUP1 REVERT JUMPDEST PUSH2 0x46 PUSH1 0x4 DUP1 CALLDATASIZE SUB DUP2 ADD SWAP1 PUSH2 0x41 SWAP2 SWAP1 PUSH2 0x1A2 JUMP JUMPDEST PUSH2 0x72 JUMP JUMPDEST STOP JUMPDEST CALLVALUE DUP1 ISZERO PUSH2 0x53 JUMPI PUSH0 DUP1 REVERT JUMPDEST POP PUSH2 0x5C PUSH2 0x13F JUMP JUMPDEST PUSH1 0x40 MLOAD PUSH2 0x69 SWAP2 SWAP1 PUSH2 0x1E5 JUMP JUMPDEST PUSH1 0x40 MLOAD DUP1 SWAP2 SUB SWAP1 RETURN JUMPDEST PUSH0 PUSH1 0x2 CALLVALUE PUSH2 0x80 SWAP2 SWAP1 PUSH2 0x22B JUMP JUMPDEST EQ PUSH2 0xC0 JUMPI PUSH1 0x40 MLOAD PUSH32 0x8C379A000000000000000000000000000000000000000000000000000000000 DUP2 MSTORE PUSH1 0x4 ADD PUSH2 0xB7 SWAP1 PUSH2 0x2B5 JUMP JUMPDEST PUSH1 0x40 MLOAD DUP1 SWAP2 SUB SWAP1 REVERT JUMPDEST PUSH0 SELFBALANCE SWAP1 POP DUP2 PUSH20 0xFFFFFFFFFFFFFFFFFFFFFFFFFFFFFFFFFFFFFFFF AND PUSH2 0x8FC PUSH1 0x2 CALLVALUE PUSH2 0xEB SWAP2 SWAP1 PUSH2 0x300 JUMP JUMPDEST SWAP1 DUP2 ISZERO MUL SWAP1 PUSH1 0x40 MLOAD PUSH0 PUSH1 0x40 MLOAD DUP1 DUP4 SUB DUP2 DUP6 DUP9 DUP9 CALL SWAP4 POP POP POP POP ISZERO DUP1 ISZERO PUSH2 0x113 JUMPI RETURNDATASIZE PUSH0 DUP1 RETURNDATACOPY RETURNDATASIZE PUSH0 REVERT JUMPDEST POP PUSH1 0x2 CALLVALUE PUSH2 0x121 SWAP2 SWAP1 PUSH2 0x300 JUMP JUMPDEST DUP2 PUSH2 0x12C SWAP2 SWAP1 PUSH2 0x330 JUMP JUMPDEST SELFBALANCE EQ PUSH2 0x13B JUMPI PUSH2 0x13A PUSH2 0x363 JUMP JUMPDEST JUMPDEST POP POP JUMP JUMPDEST PUSH0 SLOAD DUP2 JUMP JUMPDEST PUSH0 DUP1 REVERT JUMPDEST PUSH0 PUSH20 0xFFFFFFFFFFFFFFFFFFFFFFFFFFFFFFFFFFFFFFFF DUP3 AND SWAP1 POP SWAP2 SWAP1 POP JUMP JUMPDEST PUSH0 PUSH2 0x171 DUP3 PUSH2 0x148 JUMP JUMPDEST SWAP1 POP SWAP2 SWAP1 POP JUMP JUMPDEST PUSH2 0x181 DUP2 PUSH2 0x167 JUMP JUMPDEST DUP2 EQ PUSH2 0x18B JUMPI PUSH0 DUP1 REVERT JUMPDEST POP JUMP JUMPDEST PUSH0 DUP2 CALLDATALOAD SWAP1 POP PUSH2 0x19C DUP2 PUSH2 0x178 JUMP JUMPDEST SWAP3 SWAP2 POP POP JUMP JUMPDEST PUSH0 PUSH1 0x20 DUP3 DUP5 SUB SLT ISZERO PUSH2 0x1B7 JUMPI PUSH2 0x1B6 PUSH2 0x144 JUMP JUMPDEST JUMPDEST PUSH0 PUSH2 0x1C4 DUP5 DUP3 DUP6 ADD PUSH2 0x18E JUMP JUMPDEST SWAP2 POP POP SWAP3 SWAP2 POP POP JUMP JUMPDEST PUSH0 DUP2 SWAP1 POP SWAP2 SWAP1 POP JUMP JUMPDEST PUSH2 0x1DF DUP2 PUSH2 0x1CD JUMP JUMPDEST DUP3 MSTORE POP POP JUMP JUMPDEST PUSH0 PUSH1 0x20 DUP3 ADD SWAP1 POP PUSH2 0x1F8 PUSH0 DUP4 ADD DUP5 PUSH2 0x1D6 JUMP JUMPDEST SWAP3 SWAP2 POP POP JUMP JUMPDEST PUSH32 0x4E487B7100000000000000000000000000000000000000000000000000000000 PUSH0 MSTORE PUSH1 0x12 PUSH1 0x4 MSTORE PUSH1 0x24 PUSH0 REVERT JUMPDEST PUSH0 PUSH2 0x235 DUP3 PUSH2 0x1CD JUMP JUMPDEST SWAP2 POP PUSH2 0x240 DUP4 PUSH2 0x1CD JUMP JUMPDEST SWAP3 POP DUP3 PUSH2 0x250 JUMPI PUSH2 0x24F PUSH2 0x1FE JUMP JUMPDEST JUMPDEST DUP3 DUP3 MOD SWAP1 POP SWAP3 SWAP2 POP POP JUMP JUMPDEST PUSH0 DUP3 DUP3 MSTORE PUSH1 0x20 DUP3 ADD SWAP1 POP SWAP3 SWAP2 POP POP JUMP JUMPDEST PUSH32 0x4576656E2076616C75652072657175697265642E000000000000000000000000 PUSH0 DUP3 ADD MSTORE POP JUMP JUMPDEST PUSH0 PUSH2 0x29F PUSH1 0x14 DUP4 PUSH2 0x25B JUMP JUMPDEST SWAP2 POP PUSH2 0x2AA DUP3 PUSH2 0x26B JUMP JUMPDEST PUSH1 0x20 DUP3 ADD SWAP1 POP SWAP2 SWAP1 POP JUMP JUMPDEST PUSH0 PUSH1 0x20 DUP3 ADD SWAP1 POP DUP2 DUP2 SUB PUSH0 DUP4 ADD MSTORE PUSH2 0x2CC DUP2 PUSH2 0x293 JUMP JUMPDEST SWAP1 POP SWAP2 SWAP1 POP JUMP JUMPDEST PUSH32 0x4E487B7100000000000000000000000000000000000000000000000000000000 PUSH0 MSTORE PUSH1 0x11 PUSH1 0x4 MSTORE PUSH1 0x24 PUSH0 REVERT JUMPDEST PUSH0 PUSH2 0x30A DUP3 PUSH2 0x1CD JUMP JUMPDEST SWAP2 POP PUSH2 0x315 DUP4 PUSH2 0x1CD JUMP JUMPDEST SWAP3 POP DUP3 PUSH2 0x325 JUMPI PUSH2 0x324 PUSH2 0x1FE JUMP JUMPDEST JUMPDEST DUP3 DUP3 DIV SWAP1 POP SWAP3 SWAP2 POP POP JUMP JUMPDEST PUSH0 PUSH2 0x33A DUP3 PUSH2 0x1CD JUMP JUMPDEST SWAP2 POP PUSH2 0x345 DUP4 PUSH2 0x1CD JUMP JUMPDEST SWAP3 POP DUP3 DUP3 SUB SWAP1 POP DUP2 DUP2 GT ISZERO PUSH2 0x35D JUMPI PUSH2 0x35C PUSH2 0x2D3 JUMP JUMPDEST JUMPDEST SWAP3 SWAP2 POP POP JUMP JUMPDEST PUSH32 0x4E487B7100000000000000000000000000000000000000000000000000000000 PUSH0 MSTORE PUSH1 0x1 PUSH1 0x4 MSTORE PUSH1 0x24 PUSH0 REVERT INVALID LOG2 PUSH5 0x6970667358 0x22 SLT KECCAK256 SMOD 0xC1 CODECOPY SLOAD 0xEA 0xE7 PUSH27 0xCCD155689640FCD3634BF14D439BA85794E8C101B39D4C4C926473 PUSH16 0x6C634300081A00330000000000000000 "
		},
		"gasEstimates": {
			"creation": {
				"codeDepositCost": "193200",
				"executionCost": "236",
				"totalCost": "193436"
			},
			"external": {
				"balance()": "2424",
				"sendHalf(address)": "infinite"
			}
		},
		"methodIdentifiers": {
			"balance()": "b69ef8a8",
			"sendHalf(address)": "75949c13"
		}
	},
	"abi": [
		{
			"inputs": [],
			"name": "balance",
			"outputs": [
				{
					"internalType": "uint256",
					"name": "",
					"type": "uint256"
				}
			],
			"stateMutability": "view",
			"type": "function"
		},
		{
			"inputs": [
				{
					"internalType": "address",
					"name": "addr",
					"type": "address"
				}
			],
			"name": "sendHalf",
			"outputs": [],
			"stateMutability": "payable",
			"type": "function"
		}
	]
}