{
	"data": {
		"bytecode": {
			"linkReferences": {},
			"object": "6080604052348015600e575f80fd5b506103978061001c5f395ff3fe608060405234801561000f575f80fd5b506004361061004a575f3560e01c80632da7a34a1461004e57806338f63f2c1461007e578063e061a420146100ae578063f54b5638146100de575b5f80fd5b61006860048036038101906100639190610208565b61010e565b604051610075919061024b565b60405180910390f35b61009860048036038101906100939190610208565b610158565b6040516100a5919061024b565b60405180910390f35b6100c860048036038101906100c39190610208565b61016b565b6040516100d5919061024b565b60405180910390f35b6100f860048036038101906100f39190610208565b6101b7565b604051610105919061024b565b60405180910390f35b5f8161014f576040517f08c379a0000000000000000000000000000000000000000000000000000000008152600401610146906102be565b60405180910390fd5b60019050919050565b5f81610162575f80fd5b60019050919050565b5f816101ae57336040517f8e4a23d60000000000000000000000000000000000000000000000000000000081526004016101a5919061031b565b60405180910390fd5b60019050919050565b5f816101c6576101c5610334565b5b60019050919050565b5f80fd5b5f8115159050919050565b6101e7816101d3565b81146101f1575f80fd5b50565b5f81359050610202816101de565b92915050565b5f6020828403121561021d5761021c6101cf565b5b5f61022a848285016101f4565b91505092915050565b5f819050919050565b61024581610233565b82525050565b5f60208201905061025e5f83018461023c565b92915050565b5f82825260208201905092915050565b7f666c61672069732066616c7365000000000000000000000000000000000000005f82015250565b5f6102a8600d83610264565b91506102b382610274565b602082019050919050565b5f6020820190508181035f8301526102d58161029c565b9050919050565b5f73ffffffffffffffffffffffffffffffffffffffff82169050919050565b5f610305826102dc565b9050919050565b610315816102fb565b82525050565b5f60208201905061032e5f83018461030c565b92915050565b7f4e487b71000000000000000000000000000000000000000000000000000000005f52600160045260245ffdfea2646970667358221220fc27f1e7a8f2cb29d74b3ddd8bc064570f311033405a10a6c0d53b988861c20964736f6c634300081a0033",
			"opcodes": "PUSH1 0x80 PUSH1 0x40 MSTORE CALLVALUE DUP1 ISZERO PUSH1 0xE JUMPI PUSH0 DUP1 REVERT JUMPDEST POP PUSH2 0x397 DUP1 PUSH2 0x1C PUSH0 CODECOPY PUSH0 RETURN INVALID PUSH1 0x80 PUSH1 0x40 MSTORE CALLVALUE DUP1 ISZERO PUSH2 0xF JUMPI PUSH0 DUP1 REVERT JUMPDEST POP PUSH1 0x4 CALLDATASIZE LT PUSH2 0x4A JUMPI PUSH0 CALLDATALOAD PUSH1 0xE0 SHR DUP1 PUSH4 0x2DA7A34A EQ PUSH2 0x4E JUMPI DUP1 PUSH4 0x38F63F2C EQ PUSH2 0x7E JUMPI DUP1 PUSH4 0xE061A420 EQ PUSH2 0xAE JUMPI DUP1 PUSH4 0xF54B5638 EQ PUSH2 0xDE JUMPI JUMPDEST PUSH0 DUP1 REVERT JUMPDEST PUSH2 0x68 PUSH1 0x4 DUP1 CALLDATASIZE SUB DUP2 ADD SWAP1 PUSH2 0x63 SWAP2 SWAP1 PUSH2 0x208 JUMP JUMPDEST PUSH2 0x10E JUMP JUMPDEST PUSH1 0x40 MLOAD PUSH2 0x75 SWAP2 SWAP1 PUSH2 0x24B JUMP JUMPDEST PUSH1 0x40 MLOAD DUP1 SWAP2 SUB SWAP1 RETURN JUMPDEST PUSH2 0x98 PUSH1 0x4 DUP1 CALLDATASIZE SUB DUP2 ADD SWAP1 PUSH2 0x93 SWAP2 SWAP1 PUSH2 0x208 JUMP JUMPDEST PUSH2 0x158 JUMP JUMPDEST PUSH1 0x40 MLOAD PUSH2 0xA5 SWAP2 SWAP1 PUSH2 0x24B JUMP JUMPDEST PUSH1 0x40 MLOAD DUP1 SWAP2 SUB SWAP1 RETURN JUMPDEST PUSH2 0xC8 PUSH1 0x4 DUP1 CALLDATASIZE SUB DUP2 ADD SWAP1 PUSH2 0xC3 SWAP2 SWAP1 PUSH2 0x208 JUMP JUMPDEST PUSH2 0x16B JUMP JUMPDEST PUSH1 0x40 MLOAD PUSH2 0xD5 SWAP2 SWAP1 PUSH2 0x24B JUMP JUMPDEST PUSH1 0x40 MLOAD DUP1 SWAP2 SUB SWAP1 RETURN JUMPDEST PUSH2 0xF8 PUSH1 0x4 DUP1 CALLDATASIZE SUB DUP2 ADD SWAP1 PUSH2 0xF3 SWAP2 SWAP1 PUSH2 0x208 JUMP JUMPDEST PUSH2 0x1B7 JUMP JUMPDEST PUSH1 0x40 MLOAD PUSH2 0x105 SWAP2 SWAP1 PUSH2 0x24B JUMP JUMPDEST PUSH1 0x40 MLOAD DUP1 SWAP2 SUB SWAP1 RETURN JUMPDEST PUSH0 DUP2 PUSH2 0x14F JUMPI PUSH1 0x40 MLOAD PUSH32 0x8C379A000000000000000000000000000000000000000000000000000000000 DUP2 MSTORE PUSH1 0x4 ADD PUSH2 0x146 SWAP1 PUSH2 0x2BE JUMP JUMPDEST PUSH1 0x40 MLOAD DUP1 SWAP2 SUB SWAP1 REVERT JUMPDEST PUSH1 0x1 SWAP1 POP SWAP2 SWAP1 POP JUMP JUMPDEST PUSH0 DUP2 PUSH2 0x162 JUMPI PUSH0 DUP1 REVERT JUMPDEST PUSH1 0x1 SWAP1 POP SWAP2 SWAP1 POP JUMP JUMPDEST PUSH0 DUP2 PUSH2 0x1AE JUMPI CALLER PUSH1 0x40 MLOAD PUSH32 0x8E4A23D600000000000000000000000000000000000000000000000000000000 DUP2 MSTORE PUSH1 0x4 ADD PUSH2 0x1A5 SWAP2 SWAP1 PUSH2 0x31B JUMP JUMPDEST PUSH1 0x40 MLOAD DUP1 SWAP2 SUB SWAP1 REVERT JUMPDEST PUSH1 0x1 SWAP1 POP SWAP2 SWAP1 POP JUMP JUMPDEST PUSH0 DUP2 PUSH2 0x1C6 JUMPI PUSH2 0x1C5 PUSH2 0x334 JUMP JUMPDEST JUMPDEST PUSH1 0x1 SWAP1 POP SWAP2 SWAP1 POP JUMP JUMPDEST PUSH0 DUP1 REVERT JUMPDEST PUSH0 DUP2 ISZERO ISZERO SWAP1 POP SWAP2 SWAP1 POP JUMP JUMPDEST PUSH2 0x1E7 DUP2 PUSH2 0x1D3 JUMP JUMPDEST DUP2 EQ PUSH2 0x1F1 JUMPI PUSH0 DUP1 REVERT JUMPDEST POP JUMP JUMPDEST PUSH0 DUP2 CALLDATALOAD SWAP1 POP PUSH2 0x202 DUP2 PUSH2 0x1DE JUMP JUMPDEST SWAP3 SWAP2 POP POP JUMP JUMPDEST PUSH0 PUSH1 0x20 DUP3 DUP5 SUB SLT ISZERO PUSH2 0x21D JUMPI PUSH2 0x21C PUSH2 0x1CF JUMP JUMPDEST JUMPDEST PUSH0 PUSH2 0x22A DUP5 DUP3 DUP6 ADD PUSH2 0x1F4 JUMP JUMPDEST SWAP2 POP POP SWAP3 SWAP2 POP POP JUMP JUMPDEST PUSH0 DUP2 SWAP1 POP SWAP2 SWAP1 POP JUMP JUMPDEST PUSH2 0x245 DUP2 PUSH2 0x233 JUMP JUMPDEST DUP3 MSTORE POP POP JUMP JUMPDEST PUSH0 PUSH1 0x20 DUP3 ADD SWAP1 POP PUSH2 0x25E PUSH0 DUP4 ADD DUP5 PUSH2 0x23C JUMP JUMPDEST SWAP3 SWAP2 POP POP JUMP JUMPDEST PUSH0 DUP3 DUP3 MSTORE PUSH1 0x20 DUP3 ADD SWAP1 POP SWAP3 SWAP2 POP POP JUMP JUMPDEST PUSH32 0x666C61672069732066616C736500000000000000000000000000000000000000 PUSH0 DUP3 ADD MSTORE POP JUMP JUMPDEST PUSH0 PUSH2 0x2A8 PUSH1 0xD DUP4 PUSH2 0x264 JUMP JUMPDEST SWAP2 POP PUSH2 0x2B3 DUP3 PUSH2 0x274 JUMP JUMPDEST PUSH1 0x20 DUP3 ADD SWAP1 POP SWAP2 SWAP1 POP JUMP JUMPDEST PUSH0 PUSH1 0x20 DUP3 ADD SWAP1 POP DUP2 DUP2 SUB PUSH0 DUP4 ADD MSTORE PUSH2 0x2D5 DUP2 PUSH2 0x29C JUMP JUMPDEST SWAP1 POP SWAP2 SWAP1 POP JUMP JUMPDEST PUSH0 PUSH20 0xFFFFFFFFFFFFFFFFFFFFFFFFFFFFFFFFFFFFFFFF DUP3 AND SWAP1 POP SWAP2 SWAP1 POP JUMP JUMPDEST PUSH0 PUSH2 0x305 DUP3 PUSH2 0x2DC JUMP JUMPDEST SWAP1 POP SWAP2 SWAP1 POP JUMP JUMPDEST PUSH2 0x315 DUP2 PUSH2 0x2FB JUMP JUMPDEST DUP3 MSTORE POP POP JUMP JUMPDEST PUSH0 PUSH1 0x20 DUP3 ADD SWAP1 POP PUSH2 0x32E PUSH0 DUP4 ADD DUP5 PUSH2 0x30C JUMP JUMPDEST SWAP3 SWAP2 POP POP JUMP JUMPDEST PUSH32 0x4E487B7100000000000000000000000000000000000000000000000000000000 PUSH0 MSTORE PUSH1 0x1 PUSH1 0x4 MSTORE PUSH1 0x24 PUSH0 REVERT INVALID LOG2 PUSH5 0x6970667358 0x22 SLT KECCAK256 0xFC 0x27 CALL 0xE7 0xA8 CALLCODE 0xCB 0x29 0xD7 0x4B RETURNDATASIZE 0xDD DUP12 0xC0 PUSH5 0x570F311033 BLOCKHASH GAS LT 0xA6 0xC0 0xD5 EXTCODESIZE SWAP9 DUP9 PUSH2 0xC209 PUSH5 0x736F6C6343 STOP ADDMOD BYTE STOP CALLER "
		},
		"gasEstimates": {
			"creation": {
				"codeDepositCost": "183800",
				"executionCost": "224",
				"totalCost": "184024"
			},
			"external": {
				"fun_assert(bool)": "660",
				"fun_require(bool)": "686",
				"fun_revert(bool)": "616",
				"fun_revert_err(bool)": "680"
			}
		},
		"methodIdentifiers": {
			"fun_assert(bool)": "f54b5638",
			"fun_require(bool)": "2da7a34a",
			"fun_revert(bool)": "38f63f2c",
			"fun_revert_err(bool)": "e061a420"
		}
	},
	"abi": [
		{
			"inputs": [
				{
					"internalType": "address",
					"name": "caller",
					"type": "address"
				}
			],
			"name": "Unauthorized",
			"type": "error"
		},
		{
			"inputs": [
				{
					"internalType": "bool",
					"name": "flag",
					"type": "bool"
				}
			],
			"name": "fun_assert",
			"outputs": [
				{
					"internalType": "uint256",
					"name": "",
					"type": "uint256"
				}
			],
			"stateMutability": "pure",
			"type": "function"
		},
		{
			"inputs": [
				{
					"internalType": "bool",
					"name": "flag",
					"type": "bool"
				}
			],
			"name": "fun_require",
			"outputs": [
				{
					"internalType": "uint256",
					"name": "",
					"type": "uint256"
				}
			],
			"stateMutability": "pure",
			"type": "function"
		},
		{
			"inputs": [
				{
					"internalType": "bool",
					"name": "flag",
					"type": "bool"
				}
			],
			"name": "fun_revert",
			"outputs": [
				{
					"internalType": "uint256",
					"name": "",
					"type": "uint256"
				}
			],
			"stateMutability": "pure",
			"type": "function"
		},
		{
			"inputs": [
				{
					"internalType": "bool",
					"name": "flag",
					"type": "bool"
				}
			],
			"name": "fun_revert_err",
			"outputs": [
				{
					"internalType": "uint256",
					"name": "",
					"type": "uint256"
				}
			],
			"stateMutability": "view",
			"type": "function"
		}
	]
}