{
	"data": {
		"bytecode": {
			"linkReferences": {},
			"object": "6080604052348015600e575f80fd5b506106758061001c5f395ff3fe608060405234801561000f575f80fd5b506004361061003f575f3560e01c806315cad552146100435780633c1c8e4914610063578063e5c5e9a314610093575b5f80fd5b61004b6100c4565b60405161005a93929190610178565b60405180910390f35b61007d60048036038101906100789190610324565b6100d5565b60405161008a91906103de565b60405180910390f35b6100ad60048036038101906100a8919061049c565b610101565b6040516100bb929190610535565b60405180910390f35b5f805f434145925092509250909192565b606082826040516020016100ea929190610535565b604051602081830303815290604052905092915050565b60605f8280602001905181019061011891906105e5565b91509150915091565b5f819050919050565b61013381610121565b82525050565b5f73ffffffffffffffffffffffffffffffffffffffff82169050919050565b5f61016282610139565b9050919050565b61017281610158565b82525050565b5f60608201905061018b5f83018661012a565b6101986020830185610169565b6101a5604083018461012a565b949350505050565b5f604051905090565b5f80fd5b5f80fd5b5f80fd5b5f80fd5b5f601f19601f8301169050919050565b7f4e487b71000000000000000000000000000000000000000000000000000000005f52604160045260245ffd5b61020c826101c6565b810181811067ffffffffffffffff8211171561022b5761022a6101d6565b5b80604052505050565b5f61023d6101ad565b90506102498282610203565b919050565b5f67ffffffffffffffff821115610268576102676101d6565b5b610271826101c6565b9050602081019050919050565b828183375f83830152505050565b5f61029e6102998461024e565b610234565b9050828152602081018484840111156102ba576102b96101c2565b5b6102c584828561027e565b509392505050565b5f82601f8301126102e1576102e06101be565b5b81356102f184826020860161028c565b91505092915050565b61030381610121565b811461030d575f80fd5b50565b5f8135905061031e816102fa565b92915050565b5f806040838503121561033a576103396101b6565b5b5f83013567ffffffffffffffff811115610357576103566101ba565b5b610363858286016102cd565b925050602061037485828601610310565b9150509250929050565b5f81519050919050565b5f82825260208201905092915050565b8281835e5f83830152505050565b5f6103b08261037e565b6103ba8185610388565b93506103ca818560208601610398565b6103d3816101c6565b840191505092915050565b5f6020820190508181035f8301526103f681846103a6565b905092915050565b5f67ffffffffffffffff821115610418576104176101d6565b5b610421826101c6565b9050602081019050919050565b5f61044061043b846103fe565b610234565b90508281526020810184848401111561045c5761045b6101c2565b5b61046784828561027e565b509392505050565b5f82601f830112610483576104826101be565b5b813561049384826020860161042e565b91505092915050565b5f602082840312156104b1576104b06101b6565b5b5f82013567ffffffffffffffff8111156104ce576104cd6101ba565b5b6104da8482850161046f565b91505092915050565b5f81519050919050565b5f82825260208201905092915050565b5f610507826104e3565b61051181856104ed565b9350610521818560208601610398565b61052a816101c6565b840191505092915050565b5f6040820190508181035f83015261054d81856104fd565b905061055c602083018461012a565b9392505050565b5f6105756105708461024e565b610234565b905082815260208101848484011115610591576105906101c2565b5b61059c848285610398565b509392505050565b5f82601f8301126105b8576105b76101be565b5b81516105c8848260208601610563565b91505092915050565b5f815190506105df816102fa565b92915050565b5f80604083850312156105fb576105fa6101b6565b5b5f83015167ffffffffffffffff811115610618576106176101ba565b5b610624858286016105a4565b9250506020610635858286016105d1565b915050925092905056fea26469706673582212207d556b3e531de397ba78a2fbed224e6b54e68f065e05cb6b18e3e0ab2f6f6e1664736f6c634300081a0033",
			"opcodes": "PUSH1 0x80 PUSH1 0x40 MSTORE CALLVALUE DUP1 ISZERO PUSH1 0xE JUMPI PUSH0 DUP1 REVERT JUMPDEST POP PUSH2 0x675 DUP1 PUSH2 0x1C PUSH0 CODECOPY PUSH0 RETURN INVALID PUSH1 0x80 PUSH1 0x40 MSTORE CALLVALUE DUP1 ISZERO PUSH2 0xF JUMPI PUSH0 DUP1 REVERT JUMPDEST POP PUSH1 0x4 CALLDATASIZE LT PUSH2 0x3F JUMPI PUSH0 CALLDATALOAD PUSH1 0xE0 SHR DUP1 PUSH4 0x15CAD552 EQ PUSH2 0x43 JUMPI DUP1 PUSH4 0x3C1C8E49 EQ PUSH2 0x63 JUMPI DUP1 PUSH4 0xE5C5E9A3 EQ PUSH2 0x93 JUMPI JUMPDEST PUSH0 DUP1 REVERT JUMPDEST PUSH2 0x4B PUSH2 0xC4 JUMP JUMPDEST PUSH1 0x40 MLOAD PUSH2 0x5A SWAP4 SWAP3 SWAP2 SWAP1 PUSH2 0x178 JUMP JUMPDEST PUSH1 0x40 MLOAD DUP1 SWAP2 SUB SWAP1 RETURN JUMPDEST PUSH2 0x7D PUSH1 0x4 DUP1 CALLDATASIZE SUB DUP2 ADD SWAP1 PUSH2 0x78 SWAP2 SWAP1 PUSH2 0x324 JUMP JUMPDEST PUSH2 0xD5 JUMP JUMPDEST PUSH1 0x40 MLOAD PUSH2 0x8A SWAP2 SWAP1 PUSH2 0x3DE JUMP JUMPDEST PUSH1 0x40 MLOAD DUP1 SWAP2 SUB SWAP1 RETURN JUMPDEST PUSH2 0xAD PUSH1 0x4 DUP1 CALLDATASIZE SUB DUP2 ADD SWAP1 PUSH2 0xA8 SWAP2 SWAP1 PUSH2 0x49C JUMP JUMPDEST PUSH2 0x101 JUMP JUMPDEST PUSH1 0x40 MLOAD PUSH2 0xBB SWAP3 SWAP2 SWAP1 PUSH2 0x535 JUMP JUMPDEST PUSH1 0x40 MLOAD DUP1 SWAP2 SUB SWAP1 RETURN JUMPDEST PUSH0 DUP1 PUSH0 NUMBER COINBASE GASLIMIT SWAP3 POP SWAP3 POP SWAP3 POP SWAP1 SWAP2 SWAP3 JUMP JUMPDEST PUSH1 0x60 DUP3 DUP3 PUSH1 0x40 MLOAD PUSH1 0x20 ADD PUSH2 0xEA SWAP3 SWAP2 SWAP1 PUSH2 0x535 JUMP JUMPDEST PUSH1 0x40 MLOAD PUSH1 0x20 DUP2 DUP4 SUB SUB DUP2 MSTORE SWAP1 PUSH1 0x40 MSTORE SWAP1 POP SWAP3 SWAP2 POP POP JUMP JUMPDEST PUSH1 0x60 PUSH0 DUP3 DUP1 PUSH1 0x20 ADD SWAP1 MLOAD DUP2 ADD SWAP1 PUSH2 0x118 SWAP2 SWAP1 PUSH2 0x5E5 JUMP JUMPDEST SWAP2 POP SWAP2 POP SWAP2 POP SWAP2 JUMP JUMPDEST PUSH0 DUP2 SWAP1 POP SWAP2 SWAP1 POP JUMP JUMPDEST PUSH2 0x133 DUP2 PUSH2 0x121 JUMP JUMPDEST DUP3 MSTORE POP POP JUMP JUMPDEST PUSH0 PUSH20 0xFFFFFFFFFFFFFFFFFFFFFFFFFFFFFFFFFFFFFFFF DUP3 AND SWAP1 POP SWAP2 SWAP1 POP JUMP JUMPDEST PUSH0 PUSH2 0x162 DUP3 PUSH2 0x139 JUMP JUMPDEST SWAP1 POP SWAP2 SWAP1 POP JUMP JUMPDEST PUSH2 0x172 DUP2 PUSH2 0x158 JUMP JUMPDEST DUP3 MSTORE POP POP JUMP JUMPDEST PUSH0 PUSH1 0x60 DUP3 ADD SWAP1 POP PUSH2 0x18B PUSH0 DUP4 ADD DUP7 PUSH2 0x12A JUMP JUMPDEST PUSH2 0x198 PUSH1 0x20 DUP4 ADD DUP6 PUSH2 0x169 JUMP JUMPDEST PUSH2 0x1A5 PUSH1 0x40 DUP4 ADD DUP5 PUSH2 0x12A JUMP JUMPDEST SWAP5 SWAP4 POP POP POP POP JUMP JUMPDEST PUSH0 PUSH1 0x40 MLOAD SWAP1 POP SWAP1 JUMP JUMPDEST PUSH0 DUP1 REVERT JUMPDEST PUSH0 DUP1 REVERT JUMPDEST PUSH0 DUP1 REVERT JUMPDEST PUSH0 DUP1 REVERT JUMPDEST PUSH0 PUSH1 0x1F NOT PUSH1 0x1F DUP4 ADD AND SWAP1 POP SWAP2 SWAP1 POP JUMP JUMPDEST PUSH32 0x4E487B7100000000000000000000000000000000000000000000000000000000 PUSH0 MSTORE PUSH1 0x41 PUSH1 0x4 MSTORE PUSH1 0x24 PUSH0 REVERT JUMPDEST PUSH2 0x20C DUP3 PUSH2 0x1C6 JUMP JUMPDEST DUP2 ADD DUP2 DUP2 LT PUSH8 0xFFFFFFFFFFFFFFFF DUP3 GT OR ISZERO PUSH2 0x22B JUMPI PUSH2 0x22A PUSH2 0x1D6 JUMP JUMPDEST JUMPDEST DUP1 PUSH1 0x40 MSTORE POP POP POP JUMP JUMPDEST PUSH0 PUSH2 0x23D PUSH2 0x1AD JUMP JUMPDEST SWAP1 POP PUSH2 0x249 DUP3 DUP3 PUSH2 0x203 JUMP JUMPDEST SWAP2 SWAP1 POP JUMP JUMPDEST PUSH0 PUSH8 0xFFFFFFFFFFFFFFFF DUP3 GT ISZERO PUSH2 0x268 JUMPI PUSH2 0x267 PUSH2 0x1D6 JUMP JUMPDEST JUMPDEST PUSH2 0x271 DUP3 PUSH2 0x1C6 JUMP JUMPDEST SWAP1 POP PUSH1 0x20 DUP2 ADD SWAP1 POP SWAP2 SWAP1 POP JUMP JUMPDEST DUP3 DUP2 DUP4 CALLDATACOPY PUSH0 DUP4 DUP4 ADD MSTORE POP POP POP JUMP JUMPDEST PUSH0 PUSH2 0x29E PUSH2 0x299 DUP5 PUSH2 0x24E JUMP JUMPDEST PUSH2 0x234 JUMP JUMPDEST SWAP1 POP DUP3 DUP2 MSTORE PUSH1 0x20 DUP2 ADD DUP5 DUP5 DUP5 ADD GT ISZERO PUSH2 0x2BA JUMPI PUSH2 0x2B9 PUSH2 0x1C2 JUMP JUMPDEST JUMPDEST PUSH2 0x2C5 DUP5 DUP3 DUP6 PUSH2 0x27E JUMP JUMPDEST POP SWAP4 SWAP3 POP POP POP JUMP JUMPDEST PUSH0 DUP3 PUSH1 0x1F DUP4 ADD SLT PUSH2 0x2E1 JUMPI PUSH2 0x2E0 PUSH2 0x1BE JUMP JUMPDEST JUMPDEST DUP2 CALLDATALOAD PUSH2 0x2F1 DUP5 DUP3 PUSH1 0x20 DUP7 ADD PUSH2 0x28C JUMP JUMPDEST SWAP2 POP POP SWAP3 SWAP2 POP POP JUMP JUMPDEST PUSH2 0x303 DUP2 PUSH2 0x121 JUMP JUMPDEST DUP2 EQ PUSH2 0x30D JUMPI PUSH0 DUP1 REVERT JUMPDEST POP JUMP JUMPDEST PUSH0 DUP2 CALLDATALOAD SWAP1 POP PUSH2 0x31E DUP2 PUSH2 0x2FA JUMP JUMPDEST SWAP3 SWAP2 POP POP JUMP JUMPDEST PUSH0 DUP1 PUSH1 0x40 DUP4 DUP6 SUB SLT ISZERO PUSH2 0x33A JUMPI PUSH2 0x339 PUSH2 0x1B6 JUMP JUMPDEST JUMPDEST PUSH0 DUP4 ADD CALLDATALOAD PUSH8 0xFFFFFFFFFFFFFFFF DUP2 GT ISZERO PUSH2 0x357 JUMPI PUSH2 0x356 PUSH2 0x1BA JUMP JUMPDEST JUMPDEST PUSH2 0x363 DUP6 DUP3 DUP7 ADD PUSH2 0x2CD JUMP JUMPDEST SWAP3 POP POP PUSH1 0x20 PUSH2 0x374 DUP6 DUP3 DUP7 ADD PUSH2 0x310 JUMP JUMPDEST SWAP2 POP POP SWAP3 POP SWAP3 SWAP1 POP JUMP JUMPDEST PUSH0 DUP2 MLOAD SWAP1 POP SWAP2 SWAP1 POP JUMP JUMPDEST PUSH0 DUP3 DUP3 MSTORE PUSH1 0x20 DUP3 ADD SWAP1 POP SWAP3 SWAP2 POP POP JUMP JUMPDEST DUP3 DUP2 DUP4 MCOPY PUSH0 DUP4 DUP4 ADD MSTORE POP POP POP JUMP JUMPDEST PUSH0 PUSH2 0x3B0 DUP3 PUSH2 0x37E JUMP JUMPDEST PUSH2 0x3BA DUP2 DUP6 PUSH2 0x388 JUMP JUMPDEST SWAP4 POP PUSH2 0x3CA DUP2 DUP6 PUSH1 0x20 DUP7 ADD PUSH2 0x398 JUMP JUMPDEST PUSH2 0x3D3 DUP2 PUSH2 0x1C6 JUMP JUMPDEST DUP5 ADD SWAP2 POP POP SWAP3 SWAP2 POP POP JUMP JUMPDEST PUSH0 PUSH1 0x20 DUP3 ADD SWAP1 POP DUP2 DUP2 SUB PUSH0 DUP4 ADD MSTORE PUSH2 0x3F6 DUP2 DUP5 PUSH2 0x3A6 JUMP JUMPDEST SWAP1 POP SWAP3 SWAP2 POP POP JUMP JUMPDEST PUSH0 PUSH8 0xFFFFFFFFFFFFFFFF DUP3 GT ISZERO PUSH2 0x418 JUMPI PUSH2 0x417 PUSH2 0x1D6 JUMP JUMPDEST JUMPDEST PUSH2 0x421 DUP3 PUSH2 0x1C6 JUMP JUMPDEST SWAP1 POP PUSH1 0x20 DUP2 ADD SWAP1 POP SWAP2 SWAP1 POP JUMP JUMPDEST PUSH0 PUSH2 0x440 PUSH2 0x43B DUP5 PUSH2 0x3FE JUMP JUMPDEST PUSH2 0x234 JUMP JUMPDEST SWAP1 POP DUP3 DUP2 MSTORE PUSH1 0x20 DUP2 ADD DUP5 DUP5 DUP5 ADD GT ISZERO PUSH2 0x45C JUMPI PUSH2 0x45B PUSH2 0x1C2 JUMP JUMPDEST JUMPDEST PUSH2 0x467 DUP5 DUP3 DUP6 PUSH2 0x27E JUMP JUMPDEST POP SWAP4 SWAP3 POP POP POP JUMP JUMPDEST PUSH0 DUP3 PUSH1 0x1F DUP4 ADD SLT PUSH2 0x483 JUMPI PUSH2 0x482 PUSH2 0x1BE JUMP JUMPDEST JUMPDEST DUP2 CALLDATALOAD PUSH2 0x493 DUP5 DUP3 PUSH1 0x20 DUP7 ADD PUSH2 0x42E JUMP JUMPDEST SWAP2 POP POP SWAP3 SWAP2 POP POP JUMP JUMPDEST PUSH0 PUSH1 0x20 DUP3 DUP5 SUB SLT ISZERO PUSH2 0x4B1 JUMPI PUSH2 0x4B0 PUSH2 0x1B6 JUMP JUMPDEST JUMPDEST PUSH0 DUP3 ADD CALLDATALOAD PUSH8 0xFFFFFFFFFFFFFFFF DUP2 GT ISZERO PUSH2 0x4CE JUMPI PUSH2 0x4CD PUSH2 0x1BA JUMP JUMPDEST JUMPDEST PUSH2 0x4DA DUP5 DUP3 DUP6 ADD PUSH2 0x46F JUMP JUMPDEST SWAP2 POP POP SWAP3 SWAP2 POP POP JUMP JUMPDEST PUSH0 DUP2 MLOAD SWAP1 POP SWAP2 SWAP1 POP JUMP JUMPDEST PUSH0 DUP3 DUP3 MSTORE PUSH1 0x20 DUP3 ADD SWAP1 POP SWAP3 SWAP2 POP POP JUMP JUMPDEST PUSH0 PUSH2 0x507 DUP3 PUSH2 0x4E3 JUMP JUMPDEST PUSH2 0x511 DUP2 DUP6 PUSH2 0x4ED JUMP JUMPDEST SWAP4 POP PUSH2 0x521 DUP2 DUP6 PUSH1 0x20 DUP7 ADD PUSH2 0x398 JUMP JUMPDEST PUSH2 0x52A DUP2 PUSH2 0x1C6 JUMP JUMPDEST DUP5 ADD SWAP2 POP POP SWAP3 SWAP2 POP POP JUMP JUMPDEST PUSH0 PUSH1 0x40 DUP3 ADD SWAP1 POP DUP2 DUP2 SUB PUSH0 DUP4 ADD MSTORE PUSH2 0x54D DUP2 DUP6 PUSH2 0x4FD JUMP JUMPDEST SWAP1 POP PUSH2 0x55C PUSH1 0x20 DUP4 ADD DUP5 PUSH2 0x12A JUMP JUMPDEST SWAP4 SWAP3 POP POP POP JUMP JUMPDEST PUSH0 PUSH2 0x575 PUSH2 0x570 DUP5 PUSH2 0x24E JUMP JUMPDEST PUSH2 0x234 JUMP JUMPDEST SWAP1 POP DUP3 DUP2 MSTORE PUSH1 0x20 DUP2 ADD DUP5 DUP5 DUP5 ADD GT ISZERO PUSH2 0x591 JUMPI PUSH2 0x590 PUSH2 0x1C2 JUMP JUMPDEST JUMPDEST PUSH2 0x59C DUP5 DUP3 DUP6 PUSH2 0x398 JUMP JUMPDEST POP SWAP4 SWAP3 POP POP POP JUMP JUMPDEST PUSH0 DUP3 PUSH1 0x1F DUP4 ADD SLT PUSH2 0x5B8 JUMPI PUSH2 0x5B7 PUSH2 0x1BE JUMP JUMPDEST JUMPDEST DUP2 MLOAD PUSH2 0x5C8 DUP5 DUP3 PUSH1 0x20 DUP7 ADD PUSH2 0x563 JUMP JUMPDEST SWAP2 POP POP SWAP3 SWAP2 POP POP JUMP JUMPDEST PUSH0 DUP2 MLOAD SWAP1 POP PUSH2 0x5DF DUP2 PUSH2 0x2FA JUMP JUMPDEST SWAP3 SWAP2 POP POP JUMP JUMPDEST PUSH0 DUP1 PUSH1 0x40 DUP4 DUP6 SUB SLT ISZERO PUSH2 0x5FB JUMPI PUSH2 0x5FA PUSH2 0x1B6 JUMP JUMPDEST JUMPDEST PUSH0 DUP4 ADD MLOAD PUSH8 0xFFFFFFFFFFFFFFFF DUP2 GT ISZERO PUSH2 0x618 JUMPI PUSH2 0x617 PUSH2 0x1BA JUMP JUMPDEST JUMPDEST PUSH2 0x624 DUP6 DUP3 DUP7 ADD PUSH2 0x5A4 JUMP JUMPDEST SWAP3 POP POP PUSH1 0x20 PUSH2 0x635 DUP6 DUP3 DUP7 ADD PUSH2 0x5D1 JUMP JUMPDEST SWAP2 POP POP SWAP3 POP SWAP3 SWAP1 POP JUMP INVALID LOG2 PUSH5 0x6970667358 0x22 SLT KECCAK256 PUSH30 0x556B3E531DE397BA78A2FBED224E6B54E68F065E05CB6B18E3E0AB2F6F6E AND PUSH5 0x736F6C6343 STOP ADDMOD BYTE STOP CALLER "
		},
		"gasEstimates": {
			"creation": {
				"codeDepositCost": "330600",
				"executionCost": "366",
				"totalCost": "330966"
			},
			"external": {
				"blockInfo()": "infinite",
				"decode(bytes)": "infinite",
				"encode(string,uint256)": "infinite"
			}
		},
		"methodIdentifiers": {
			"blockInfo()": "15cad552",
			"decode(bytes)": "e5c5e9a3",
			"encode(string,uint256)": "3c1c8e49"
		}
	},
	"abi": [
		{
			"inputs": [],
			"name": "blockInfo",
			"outputs": [
				{
					"internalType": "uint256",
					"name": "",
					"type": "uint256"
				},
				{
					"internalType": "address",
					"name": "",
					"type": "address"
				},
				{
					"internalType": "uint256",
					"name": "",
					"type": "uint256"
				}
			],
			"stateMutability": "view",
			"type": "function"
		},
		{
			"inputs": [
				{
					"internalType": "bytes",
					"name": "bs",
					"type": "bytes"
				}
			],
			"name": "decode",
			"outputs": [
				{
					"internalType": "string",
					"name": "",
					"type": "string"
				},
				{
					"internalType": "uint256",
					"name": "",
					"type": "uint256"
				}
			],
			"stateMutability": "pure",
			"type": "function"
		},
		{
			"inputs": [
				{
					"internalType": "string",
					"name": "text",
					"type": "string"
				},
				{
					"internalType": "uint256",
					"name": "num",
					"type": "uint256"
				}
			],
			"name": "encode",
			"outputs": [
				{
					"internalType": "bytes",
					"name": "",
					"type": "bytes"
				}
			],
			"stateMutability": "pure",
			"type": "function"
		}
	]
}