{
	"contract/函数库/TestMath.sol": {
		"TestMath": {
			"abi": [
				{
					"inputs": [],
					"name": "testAdd",
					"outputs": [
						{
							"internalType": "uint256",
							"name": "",
							"type": "uint256"
						}
					],
					"stateMutability": "pure",
					"type": "function"
				},
				{
					"inputs": [],
					"name": "testMinus",
					"outputs": [
						{
							"internalType": "uint256",
							"name": "",
							"type": "uint256"
						}
					],
					"stateMutability": "pure",
					"type": "function"
				}
			],
			"devdoc": {
				"kind": "dev",
				"methods": {},
				"version": 1
			},
			"evm": {
				"assembly": "    /* \"contract/\\xe5\\x87\\xbd\\xe6\\x95\\xb0\\xe5\\xba\\x93/TestMath.sol\":117:446  contract TestMath {... */\n  mstore(0x40, 0x80)\n  callvalue\n  dup1\n  iszero\n  tag_1\n  jumpi\n  0x00\n  dup1\n  revert\ntag_1:\n  pop\n  dataSize(sub_0)\n  dup1\n  dataOffset(sub_0)\n  0x00\n  codecopy\n  0x00\n  return\nstop\n\nsub_0: assembly {\n        /* \"contract/\\xe5\\x87\\xbd\\xe6\\x95\\xb0\\xe5\\xba\\x93/TestMath.sol\":117:446  contract TestMath {... */\n      mstore(0x40, 0x80)\n      callvalue\n      dup1\n      iszero\n      tag_1\n      jumpi\n      0x00\n      dup1\n      revert\n    tag_1:\n      pop\n      jumpi(tag_2, lt(calldatasize, 0x04))\n      shr(0xe0, calldataload(0x00))\n      dup1\n      0xa89d4e9a\n      eq\n      tag_3\n      jumpi\n      dup1\n      0xae40f72f\n      eq\n      tag_4\n      jumpi\n    tag_2:\n      0x00\n      dup1\n      revert\n        /* \"contract/\\xe5\\x87\\xbd\\xe6\\x95\\xb0\\xe5\\xba\\x93/TestMath.sol\":307:441  function testMinus() public pure returns (uint256) {... */\n    tag_3:\n      tag_5\n      tag_6\n      jump\t// in\n    tag_5:\n      mload(0x40)\n      tag_7\n      swap2\n      swap1\n      tag_8\n      jump\t// in\n    tag_7:\n      mload(0x40)\n      dup1\n      swap2\n      sub\n      swap1\n      return\n        /* \"contract/\\xe5\\x87\\xbd\\xe6\\x95\\xb0\\xe5\\xba\\x93/TestMath.sol\":172:301  function testAdd() public pure returns (uint256) {... */\n    tag_4:\n      tag_9\n      tag_10\n      jump\t// in\n    tag_9:\n      mload(0x40)\n      tag_11\n      swap2\n      swap1\n      tag_8\n      jump\t// in\n    tag_11:\n      mload(0x40)\n      dup1\n      swap2\n      sub\n      swap1\n      return\n        /* \"contract/\\xe5\\x87\\xbd\\xe6\\x95\\xb0\\xe5\\xba\\x93/TestMath.sol\":307:441  function testMinus() public pure returns (uint256) {... */\n    tag_6:\n        /* \"contract/\\xe5\\x87\\xbd\\xe6\\x95\\xb0\\xe5\\xba\\x93/TestMath.sol\":349:356  uint256 */\n      0x00\n        /* \"contract/\\xe5\\x87\\xbd\\xe6\\x95\\xb0\\xe5\\xba\\x93/TestMath.sol\":369:375  uint a */\n      dup1\n        /* \"contract/\\xe5\\x87\\xbd\\xe6\\x95\\xb0\\xe5\\xba\\x93/TestMath.sol\":378:380  10 */\n      0x0a\n        /* \"contract/\\xe5\\x87\\xbd\\xe6\\x95\\xb0\\xe5\\xba\\x93/TestMath.sol\":369:380  uint a = 10 */\n      swap1\n      pop\n        /* \"contract/\\xe5\\x87\\xbd\\xe6\\x95\\xb0\\xe5\\xba\\x93/TestMath.sol\":391:399  uint res */\n      0x00\n        /* \"contract/\\xe5\\x87\\xbd\\xe6\\x95\\xb0\\xe5\\xba\\x93/TestMath.sol\":402:412  a.minus(2) */\n      tag_13\n        /* \"contract/\\xe5\\x87\\xbd\\xe6\\x95\\xb0\\xe5\\xba\\x93/TestMath.sol\":410:411  2 */\n      0x02\n        /* \"contract/\\xe5\\x87\\xbd\\xe6\\x95\\xb0\\xe5\\xba\\x93/TestMath.sol\":402:403  a */\n      dup4\n        /* \"contract/\\xe5\\x87\\xbd\\xe6\\x95\\xb0\\xe5\\xba\\x93/TestMath.sol\":402:409  a.minus */\n      tag_14\n      swap1\n        /* \"contract/\\xe5\\x87\\xbd\\xe6\\x95\\xb0\\xe5\\xba\\x93/TestMath.sol\":402:412  a.minus(2) */\n      swap2\n      swap1\n      0xffffffff\n      and\n      jump\t// in\n    tag_13:\n        /* \"contract/\\xe5\\x87\\xbd\\xe6\\x95\\xb0\\xe5\\xba\\x93/TestMath.sol\":391:412  uint res = a.minus(2) */\n      swap1\n      pop\n        /* \"contract/\\xe5\\x87\\xbd\\xe6\\x95\\xb0\\xe5\\xba\\x93/TestMath.sol\":430:433  res */\n      dup1\n        /* \"contract/\\xe5\\x87\\xbd\\xe6\\x95\\xb0\\xe5\\xba\\x93/TestMath.sol\":423:433  return res */\n      swap3\n      pop\n      pop\n      pop\n        /* \"contract/\\xe5\\x87\\xbd\\xe6\\x95\\xb0\\xe5\\xba\\x93/TestMath.sol\":307:441  function testMinus() public pure returns (uint256) {... */\n      swap1\n      jump\t// out\n        /* \"contract/\\xe5\\x87\\xbd\\xe6\\x95\\xb0\\xe5\\xba\\x93/TestMath.sol\":172:301  function testAdd() public pure returns (uint256) {... */\n    tag_10:\n        /* \"contract/\\xe5\\x87\\xbd\\xe6\\x95\\xb0\\xe5\\xba\\x93/TestMath.sol\":212:219  uint256 */\n      0x00\n        /* \"contract/\\xe5\\x87\\xbd\\xe6\\x95\\xb0\\xe5\\xba\\x93/TestMath.sol\":232:238  uint a */\n      dup1\n        /* \"contract/\\xe5\\x87\\xbd\\xe6\\x95\\xb0\\xe5\\xba\\x93/TestMath.sol\":241:242  1 */\n      0x01\n        /* \"contract/\\xe5\\x87\\xbd\\xe6\\x95\\xb0\\xe5\\xba\\x93/TestMath.sol\":232:242  uint a = 1 */\n      swap1\n      pop\n        /* \"contract/\\xe5\\x87\\xbd\\xe6\\x95\\xb0\\xe5\\xba\\x93/TestMath.sol\":253:261  uint res */\n      0x00\n        /* \"contract/\\xe5\\x87\\xbd\\xe6\\x95\\xb0\\xe5\\xba\\x93/TestMath.sol\":264:272  a.add(2) */\n      tag_16\n        /* \"contract/\\xe5\\x87\\xbd\\xe6\\x95\\xb0\\xe5\\xba\\x93/TestMath.sol\":270:271  2 */\n      0x02\n        /* \"contract/\\xe5\\x87\\xbd\\xe6\\x95\\xb0\\xe5\\xba\\x93/TestMath.sol\":264:265  a */\n      dup4\n        /* \"contract/\\xe5\\x87\\xbd\\xe6\\x95\\xb0\\xe5\\xba\\x93/TestMath.sol\":264:269  a.add */\n      tag_17\n      swap1\n        /* \"contract/\\xe5\\x87\\xbd\\xe6\\x95\\xb0\\xe5\\xba\\x93/TestMath.sol\":264:272  a.add(2) */\n      swap2\n      swap1\n      0xffffffff\n      and\n      jump\t// in\n    tag_16:\n        /* \"contract/\\xe5\\x87\\xbd\\xe6\\x95\\xb0\\xe5\\xba\\x93/TestMath.sol\":253:272  uint res = a.add(2) */\n      swap1\n      pop\n        /* \"contract/\\xe5\\x87\\xbd\\xe6\\x95\\xb0\\xe5\\xba\\x93/TestMath.sol\":290:293  res */\n      dup1\n        /* \"contract/\\xe5\\x87\\xbd\\xe6\\x95\\xb0\\xe5\\xba\\x93/TestMath.sol\":283:293  return res */\n      swap3\n      pop\n      pop\n      pop\n        /* \"contract/\\xe5\\x87\\xbd\\xe6\\x95\\xb0\\xe5\\xba\\x93/TestMath.sol\":172:301  function testAdd() public pure returns (uint256) {... */\n      swap1\n      jump\t// out\n        /* \"contract/\\xe5\\x87\\xbd\\xe6\\x95\\xb0\\xe5\\xba\\x93/math.sol\":225:325  function minus(uint256 a, uint256 b) internal pure returns (uint256) {... */\n    tag_14:\n        /* \"contract/\\xe5\\x87\\xbd\\xe6\\x95\\xb0\\xe5\\xba\\x93/math.sol\":285:292  uint256 */\n      0x00\n        /* \"contract/\\xe5\\x87\\xbd\\xe6\\x95\\xb0\\xe5\\xba\\x93/math.sol\":316:317  b */\n      dup2\n        /* \"contract/\\xe5\\x87\\xbd\\xe6\\x95\\xb0\\xe5\\xba\\x93/math.sol\":312:313  a */\n      dup4\n        /* \"contract/\\xe5\\x87\\xbd\\xe6\\x95\\xb0\\xe5\\xba\\x93/math.sol\":312:317  a - b */\n      tag_19\n      swap2\n      swap1\n      tag_20\n      jump\t// in\n    tag_19:\n        /* \"contract/\\xe5\\x87\\xbd\\xe6\\x95\\xb0\\xe5\\xba\\x93/math.sol\":305:317  return a - b */\n      swap1\n      pop\n        /* \"contract/\\xe5\\x87\\xbd\\xe6\\x95\\xb0\\xe5\\xba\\x93/math.sol\":225:325  function minus(uint256 a, uint256 b) internal pure returns (uint256) {... */\n      swap3\n      swap2\n      pop\n      pop\n      jump\t// out\n        /* \"contract/\\xe5\\x87\\xbd\\xe6\\x95\\xb0\\xe5\\xba\\x93/math.sol\":115:213  function add(uint256 a, uint256 b) internal pure returns (uint256) {... */\n    tag_17:\n        /* \"contract/\\xe5\\x87\\xbd\\xe6\\x95\\xb0\\xe5\\xba\\x93/math.sol\":173:180  uint256 */\n      0x00\n        /* \"contract/\\xe5\\x87\\xbd\\xe6\\x95\\xb0\\xe5\\xba\\x93/math.sol\":204:205  b */\n      dup2\n        /* \"contract/\\xe5\\x87\\xbd\\xe6\\x95\\xb0\\xe5\\xba\\x93/math.sol\":200:201  a */\n      dup4\n        /* \"contract/\\xe5\\x87\\xbd\\xe6\\x95\\xb0\\xe5\\xba\\x93/math.sol\":200:205  a + b */\n      tag_22\n      swap2\n      swap1\n      tag_23\n      jump\t// in\n    tag_22:\n        /* \"contract/\\xe5\\x87\\xbd\\xe6\\x95\\xb0\\xe5\\xba\\x93/math.sol\":193:205  return a + b */\n      swap1\n      pop\n        /* \"contract/\\xe5\\x87\\xbd\\xe6\\x95\\xb0\\xe5\\xba\\x93/math.sol\":115:213  function add(uint256 a, uint256 b) internal pure returns (uint256) {... */\n      swap3\n      swap2\n      pop\n      pop\n      jump\t// out\n        /* \"#utility.yul\":7:84   */\n    tag_24:\n        /* \"#utility.yul\":44:51   */\n      0x00\n        /* \"#utility.yul\":73:78   */\n      dup2\n        /* \"#utility.yul\":62:78   */\n      swap1\n      pop\n        /* \"#utility.yul\":7:84   */\n      swap2\n      swap1\n      pop\n      jump\t// out\n        /* \"#utility.yul\":90:208   */\n    tag_25:\n        /* \"#utility.yul\":177:201   */\n      tag_30\n        /* \"#utility.yul\":195:200   */\n      dup2\n        /* \"#utility.yul\":177:201   */\n      tag_24\n      jump\t// in\n    tag_30:\n        /* \"#utility.yul\":172:175   */\n      dup3\n        /* \"#utility.yul\":165:202   */\n      mstore\n        /* \"#utility.yul\":90:208   */\n      pop\n      pop\n      jump\t// out\n        /* \"#utility.yul\":214:436   */\n    tag_8:\n        /* \"#utility.yul\":307:311   */\n      0x00\n        /* \"#utility.yul\":345:347   */\n      0x20\n        /* \"#utility.yul\":334:343   */\n      dup3\n        /* \"#utility.yul\":330:348   */\n      add\n        /* \"#utility.yul\":322:348   */\n      swap1\n      pop\n        /* \"#utility.yul\":358:429   */\n      tag_32\n        /* \"#utility.yul\":426:427   */\n      0x00\n        /* \"#utility.yul\":415:424   */\n      dup4\n        /* \"#utility.yul\":411:428   */\n      add\n        /* \"#utility.yul\":402:408   */\n      dup5\n        /* \"#utility.yul\":358:429   */\n      tag_25\n      jump\t// in\n    tag_32:\n        /* \"#utility.yul\":214:436   */\n      swap3\n      swap2\n      pop\n      pop\n      jump\t// out\n        /* \"#utility.yul\":442:622   */\n    tag_26:\n        /* \"#utility.yul\":490:567   */\n      0x4e487b7100000000000000000000000000000000000000000000000000000000\n        /* \"#utility.yul\":487:488   */\n      0x00\n        /* \"#utility.yul\":480:568   */\n      mstore\n        /* \"#utility.yul\":587:591   */\n      0x11\n        /* \"#utility.yul\":584:585   */\n      0x04\n        /* \"#utility.yul\":577:592   */\n      mstore\n        /* \"#utility.yul\":611:615   */\n      0x24\n        /* \"#utility.yul\":608:609   */\n      0x00\n        /* \"#utility.yul\":601:616   */\n      revert\n        /* \"#utility.yul\":628:822   */\n    tag_20:\n        /* \"#utility.yul\":668:672   */\n      0x00\n        /* \"#utility.yul\":688:708   */\n      tag_35\n        /* \"#utility.yul\":706:707   */\n      dup3\n        /* \"#utility.yul\":688:708   */\n      tag_24\n      jump\t// in\n    tag_35:\n        /* \"#utility.yul\":683:708   */\n      swap2\n      pop\n        /* \"#utility.yul\":722:742   */\n      tag_36\n        /* \"#utility.yul\":740:741   */\n      dup4\n        /* \"#utility.yul\":722:742   */\n      tag_24\n      jump\t// in\n    tag_36:\n        /* \"#utility.yul\":717:742   */\n      swap3\n      pop\n        /* \"#utility.yul\":766:767   */\n      dup3\n        /* \"#utility.yul\":763:764   */\n      dup3\n        /* \"#utility.yul\":759:768   */\n      sub\n        /* \"#utility.yul\":751:768   */\n      swap1\n      pop\n        /* \"#utility.yul\":790:791   */\n      dup2\n        /* \"#utility.yul\":784:788   */\n      dup2\n        /* \"#utility.yul\":781:792   */\n      gt\n        /* \"#utility.yul\":778:815   */\n      iszero\n      tag_37\n      jumpi\n        /* \"#utility.yul\":795:813   */\n      tag_38\n      tag_26\n      jump\t// in\n    tag_38:\n        /* \"#utility.yul\":778:815   */\n    tag_37:\n        /* \"#utility.yul\":628:822   */\n      swap3\n      swap2\n      pop\n      pop\n      jump\t// out\n        /* \"#utility.yul\":828:1019   */\n    tag_23:\n        /* \"#utility.yul\":868:871   */\n      0x00\n        /* \"#utility.yul\":887:907   */\n      tag_40\n        /* \"#utility.yul\":905:906   */\n      dup3\n        /* \"#utility.yul\":887:907   */\n      tag_24\n      jump\t// in\n    tag_40:\n        /* \"#utility.yul\":882:907   */\n      swap2\n      pop\n        /* \"#utility.yul\":921:941   */\n      tag_41\n        /* \"#utility.yul\":939:940   */\n      dup4\n        /* \"#utility.yul\":921:941   */\n      tag_24\n      jump\t// in\n    tag_41:\n        /* \"#utility.yul\":916:941   */\n      swap3\n      pop\n        /* \"#utility.yul\":964:965   */\n      dup3\n        /* \"#utility.yul\":961:962   */\n      dup3\n        /* \"#utility.yul\":957:966   */\n      add\n        /* \"#utility.yul\":950:966   */\n      swap1\n      pop\n        /* \"#utility.yul\":985:988   */\n      dup1\n        /* \"#utility.yul\":982:983   */\n      dup3\n        /* \"#utility.yul\":979:989   */\n      gt\n        /* \"#utility.yul\":976:1012   */\n      iszero\n      tag_42\n      jumpi\n        /* \"#utility.yul\":992:1010   */\n      tag_43\n      tag_26\n      jump\t// in\n    tag_43:\n        /* \"#utility.yul\":976:1012   */\n    tag_42:\n        /* \"#utility.yul\":828:1019   */\n      swap3\n      swap2\n      pop\n      pop\n      jump\t// out\n\n    auxdata: 0xa2646970667358221220af721f8c3a92c6469c370a1f4f76d4fe51a06569054f45a45d39833fc44cf81164736f6c634300081a0033\n}\n",
				"bytecode": {
					"linkReferences": {},
					"object": "6080604052348015600e575f80fd5b506101e28061001c5f395ff3fe608060405234801561000f575f80fd5b5060043610610034575f3560e01c8063a89d4e9a14610038578063ae40f72f14610056575b5f80fd5b610040610074565b60405161004d9190610100565b60405180910390f35b61005e610099565b60405161006b9190610100565b60405180910390f35b5f80600a90505f61008f6002836100be90919063ffffffff16565b9050809250505090565b5f80600190505f6100b46002836100d390919063ffffffff16565b9050809250505090565b5f81836100cb9190610146565b905092915050565b5f81836100e09190610179565b905092915050565b5f819050919050565b6100fa816100e8565b82525050565b5f6020820190506101135f8301846100f1565b92915050565b7f4e487b71000000000000000000000000000000000000000000000000000000005f52601160045260245ffd5b5f610150826100e8565b915061015b836100e8565b925082820390508181111561017357610172610119565b5b92915050565b5f610183826100e8565b915061018e836100e8565b92508282019050808211156101a6576101a5610119565b5b9291505056fea2646970667358221220af721f8c3a92c6469c370a1f4f76d4fe51a06569054f45a45d39833fc44cf81164736f6c634300081a0033",
					"opcodes": "PUSH1 0x80 PUSH1 0x40 MSTORE CALLVALUE DUP1 ISZERO PUSH1 0xE JUMPI PUSH0 DUP1 REVERT JUMPDEST POP PUSH2 0x1E2 DUP1 PUSH2 0x1C PUSH0 CODECOPY PUSH0 RETURN INVALID PUSH1 0x80 PUSH1 0x40 MSTORE CALLVALUE DUP1 ISZERO PUSH2 0xF JUMPI PUSH0 DUP1 REVERT JUMPDEST POP PUSH1 0x4 CALLDATASIZE LT PUSH2 0x34 JUMPI PUSH0 CALLDATALOAD PUSH1 0xE0 SHR DUP1 PUSH4 0xA89D4E9A EQ PUSH2 0x38 JUMPI DUP1 PUSH4 0xAE40F72F EQ PUSH2 0x56 JUMPI JUMPDEST PUSH0 DUP1 REVERT JUMPDEST PUSH2 0x40 PUSH2 0x74 JUMP JUMPDEST PUSH1 0x40 MLOAD PUSH2 0x4D SWAP2 SWAP1 PUSH2 0x100 JUMP JUMPDEST PUSH1 0x40 MLOAD DUP1 SWAP2 SUB SWAP1 RETURN JUMPDEST PUSH2 0x5E PUSH2 0x99 JUMP JUMPDEST PUSH1 0x40 MLOAD PUSH2 0x6B SWAP2 SWAP1 PUSH2 0x100 JUMP JUMPDEST PUSH1 0x40 MLOAD DUP1 SWAP2 SUB SWAP1 RETURN JUMPDEST PUSH0 DUP1 PUSH1 0xA SWAP1 POP PUSH0 PUSH2 0x8F PUSH1 0x2 DUP4 PUSH2 0xBE SWAP1 SWAP2 SWAP1 PUSH4 0xFFFFFFFF AND JUMP JUMPDEST SWAP1 POP DUP1 SWAP3 POP POP POP SWAP1 JUMP JUMPDEST PUSH0 DUP1 PUSH1 0x1 SWAP1 POP PUSH0 PUSH2 0xB4 PUSH1 0x2 DUP4 PUSH2 0xD3 SWAP1 SWAP2 SWAP1 PUSH4 0xFFFFFFFF AND JUMP JUMPDEST SWAP1 POP DUP1 SWAP3 POP POP POP SWAP1 JUMP JUMPDEST PUSH0 DUP2 DUP4 PUSH2 0xCB SWAP2 SWAP1 PUSH2 0x146 JUMP JUMPDEST SWAP1 POP SWAP3 SWAP2 POP POP JUMP JUMPDEST PUSH0 DUP2 DUP4 PUSH2 0xE0 SWAP2 SWAP1 PUSH2 0x179 JUMP JUMPDEST SWAP1 POP SWAP3 SWAP2 POP POP JUMP JUMPDEST PUSH0 DUP2 SWAP1 POP SWAP2 SWAP1 POP JUMP JUMPDEST PUSH2 0xFA DUP2 PUSH2 0xE8 JUMP JUMPDEST DUP3 MSTORE POP POP JUMP JUMPDEST PUSH0 PUSH1 0x20 DUP3 ADD SWAP1 POP PUSH2 0x113 PUSH0 DUP4 ADD DUP5 PUSH2 0xF1 JUMP JUMPDEST SWAP3 SWAP2 POP POP JUMP JUMPDEST PUSH32 0x4E487B7100000000000000000000000000000000000000000000000000000000 PUSH0 MSTORE PUSH1 0x11 PUSH1 0x4 MSTORE PUSH1 0x24 PUSH0 REVERT JUMPDEST PUSH0 PUSH2 0x150 DUP3 PUSH2 0xE8 JUMP JUMPDEST SWAP2 POP PUSH2 0x15B DUP4 PUSH2 0xE8 JUMP JUMPDEST SWAP3 POP DUP3 DUP3 SUB SWAP1 POP DUP2 DUP2 GT ISZERO PUSH2 0x173 JUMPI PUSH2 0x172 PUSH2 0x119 JUMP JUMPDEST JUMPDEST SWAP3 SWAP2 POP POP JUMP JUMPDEST PUSH0 PUSH2 0x183 DUP3 PUSH2 0xE8 JUMP JUMPDEST SWAP2 POP PUSH2 0x18E DUP4 PUSH2 0xE8 JUMP JUMPDEST SWAP3 POP DUP3 DUP3 ADD SWAP1 POP DUP1 DUP3 GT ISZERO PUSH2 0x1A6 JUMPI PUSH2 0x1A5 PUSH2 0x119 JUMP JUMPDEST JUMPDEST SWAP3 SWAP2 POP POP JUMP INVALID LOG2 PUSH5 0x6970667358 0x22 SLT KECCAK256 0xAF PUSH19 0x1F8C3A92C6469C370A1F4F76D4FE51A0656905 0x4F GASLIMIT LOG4 TSTORE CODECOPY DUP4 EXTCODEHASH 0xC4 0x4C 0xF8 GT PUSH5 0x736F6C6343 STOP ADDMOD BYTE STOP CALLER "
				},
				"gasEstimates": {
					"creation": {
						"codeDepositCost": "96400",
						"executionCost": "145",
						"totalCost": "96545"
					},
					"external": {
						"testAdd()": "infinite",
						"testMinus()": "infinite"
					}
				},
				"methodIdentifiers": {
					"testAdd()": "ae40f72f",
					"testMinus()": "a89d4e9a"
				}
			},
			"storageLayout": {
				"storage": [],
				"types": null
			},
			"userdoc": {
				"kind": "user",
				"methods": {},
				"version": 1
			}
		}
	}
}