{
	"contract/函数库/math.sol": {
		"Math": {
			"abi": [
				{
					"inputs": [
						{
							"internalType": "uint256",
							"name": "a",
							"type": "uint256"
						},
						{
							"internalType": "uint256",
							"name": "b",
							"type": "uint256"
						}
					],
					"name": "add",
					"outputs": [
						{
							"internalType": "uint256",
							"name": "",
							"type": "uint256"
						}
					],
					"stateMutability": "pure",
					"type": "function"
				}
			],
			"devdoc": {
				"kind": "dev",
				"methods": {},
				"version": 1
			},
			"evm": {
				"assembly": "    /* \"contract/\\xe5\\x87\\xbd\\xe6\\x95\\xb0\\xe5\\xba\\x93/math.sol\":93:407  library Math {... */\n  dataSize(sub_0)\n  dataOffset(sub_0)\n  0x0b\n  dup3\n  dup3\n  dup3\n  codecopy\n  dup1\n  mload\n  0x00\n  byte\n  0x73\n  eq\n  tag_1\n  jumpi\n  mstore(0x00, 0x4e487b7100000000000000000000000000000000000000000000000000000000)\n  mstore(0x04, 0x00)\n  revert(0x00, 0x24)\ntag_1:\n  mstore(0x00, address)\n  0x73\n  dup2\n  mstore8\n  dup3\n  dup2\n  return\nstop\n\nsub_0: assembly {\n        /* \"contract/\\xe5\\x87\\xbd\\xe6\\x95\\xb0\\xe5\\xba\\x93/math.sol\":93:407  library Math {... */\n      eq(address, deployTimeAddress())\n      mstore(0x40, 0x80)\n      jumpi(tag_1, lt(calldatasize, 0x04))\n      shr(0xe0, calldataload(0x00))\n      dup1\n      0x771602f7\n      eq\n      tag_2\n      jumpi\n    tag_1:\n      0x00\n      dup1\n      revert\n        /* \"contract/\\xe5\\x87\\xbd\\xe6\\x95\\xb0\\xe5\\xba\\x93/math.sol\":115:292  function add(uint256 a, uint256 b) external  pure returns (uint256) {... */\n    tag_2:\n      tag_3\n      0x04\n      dup1\n      calldatasize\n      sub\n      dup2\n      add\n      swap1\n      tag_4\n      swap2\n      swap1\n      tag_5\n      jump\t// in\n    tag_4:\n      tag_6\n      jump\t// in\n    tag_3:\n      mload(0x40)\n      tag_7\n      swap2\n      swap1\n      tag_8\n      jump\t// in\n    tag_7:\n      mload(0x40)\n      dup1\n      swap2\n      sub\n      swap1\n      return\n    tag_6:\n        /* \"contract/\\xe5\\x87\\xbd\\xe6\\x95\\xb0\\xe5\\xba\\x93/math.sol\":174:181  uint256 */\n      0x00\n        /* \"contract/\\xe5\\x87\\xbd\\xe6\\x95\\xb0\\xe5\\xba\\x93/math.sol\":194:200  uint c */\n      dup1\n        /* \"contract/\\xe5\\x87\\xbd\\xe6\\x95\\xb0\\xe5\\xba\\x93/math.sol\":207:208  b */\n      dup3\n        /* \"contract/\\xe5\\x87\\xbd\\xe6\\x95\\xb0\\xe5\\xba\\x93/math.sol\":203:204  a */\n      dup5\n        /* \"contract/\\xe5\\x87\\xbd\\xe6\\x95\\xb0\\xe5\\xba\\x93/math.sol\":203:208  a + b */\n      tag_10\n      swap2\n      swap1\n      tag_11\n      jump\t// in\n    tag_10:\n        /* \"contract/\\xe5\\x87\\xbd\\xe6\\x95\\xb0\\xe5\\xba\\x93/math.sol\":194:208  uint c = a + b */\n      swap1\n      pop\n        /* \"contract/\\xe5\\x87\\xbd\\xe6\\x95\\xb0\\xe5\\xba\\x93/math.sol\":232:233  a */\n      dup4\n        /* \"contract/\\xe5\\x87\\xbd\\xe6\\x95\\xb0\\xe5\\xba\\x93/math.sol\":227:228  c */\n      dup2\n        /* \"contract/\\xe5\\x87\\xbd\\xe6\\x95\\xb0\\xe5\\xba\\x93/math.sol\":227:233  c >= a */\n      lt\n      iszero\n        /* \"contract/\\xe5\\x87\\xbd\\xe6\\x95\\xb0\\xe5\\xba\\x93/math.sol\":219:265  require(c >= a, \"SafeMath: addition overflow\") */\n      tag_12\n      jumpi\n      mload(0x40)\n      0x08c379a000000000000000000000000000000000000000000000000000000000\n      dup2\n      mstore\n      0x04\n      add\n      tag_13\n      swap1\n      tag_14\n      jump\t// in\n    tag_13:\n      mload(0x40)\n      dup1\n      swap2\n      sub\n      swap1\n      revert\n    tag_12:\n        /* \"contract/\\xe5\\x87\\xbd\\xe6\\x95\\xb0\\xe5\\xba\\x93/math.sol\":283:284  c */\n      dup1\n        /* \"contract/\\xe5\\x87\\xbd\\xe6\\x95\\xb0\\xe5\\xba\\x93/math.sol\":276:284  return c */\n      swap2\n      pop\n      pop\n        /* \"contract/\\xe5\\x87\\xbd\\xe6\\x95\\xb0\\xe5\\xba\\x93/math.sol\":115:292  function add(uint256 a, uint256 b) external  pure returns (uint256) {... */\n      swap3\n      swap2\n      pop\n      pop\n      jump\t// out\n        /* \"#utility.yul\":88:205   */\n    tag_16:\n        /* \"#utility.yul\":197:198   */\n      0x00\n        /* \"#utility.yul\":194:195   */\n      dup1\n        /* \"#utility.yul\":187:199   */\n      revert\n        /* \"#utility.yul\":334:411   */\n    tag_18:\n        /* \"#utility.yul\":371:378   */\n      0x00\n        /* \"#utility.yul\":400:405   */\n      dup2\n        /* \"#utility.yul\":389:405   */\n      swap1\n      pop\n        /* \"#utility.yul\":334:411   */\n      swap2\n      swap1\n      pop\n      jump\t// out\n        /* \"#utility.yul\":417:539   */\n    tag_19:\n        /* \"#utility.yul\":490:514   */\n      tag_32\n        /* \"#utility.yul\":508:513   */\n      dup2\n        /* \"#utility.yul\":490:514   */\n      tag_18\n      jump\t// in\n    tag_32:\n        /* \"#utility.yul\":483:488   */\n      dup2\n        /* \"#utility.yul\":480:515   */\n      eq\n        /* \"#utility.yul\":470:533   */\n      tag_33\n      jumpi\n        /* \"#utility.yul\":529:530   */\n      0x00\n        /* \"#utility.yul\":526:527   */\n      dup1\n        /* \"#utility.yul\":519:531   */\n      revert\n        /* \"#utility.yul\":470:533   */\n    tag_33:\n        /* \"#utility.yul\":417:539   */\n      pop\n      jump\t// out\n        /* \"#utility.yul\":545:684   */\n    tag_20:\n        /* \"#utility.yul\":591:596   */\n      0x00\n        /* \"#utility.yul\":629:635   */\n      dup2\n        /* \"#utility.yul\":616:636   */\n      calldataload\n        /* \"#utility.yul\":607:636   */\n      swap1\n      pop\n        /* \"#utility.yul\":645:678   */\n      tag_35\n        /* \"#utility.yul\":672:677   */\n      dup2\n        /* \"#utility.yul\":645:678   */\n      tag_19\n      jump\t// in\n    tag_35:\n        /* \"#utility.yul\":545:684   */\n      swap3\n      swap2\n      pop\n      pop\n      jump\t// out\n        /* \"#utility.yul\":690:1164   */\n    tag_5:\n        /* \"#utility.yul\":758:764   */\n      0x00\n        /* \"#utility.yul\":766:772   */\n      dup1\n        /* \"#utility.yul\":815:817   */\n      0x40\n        /* \"#utility.yul\":803:812   */\n      dup4\n        /* \"#utility.yul\":794:801   */\n      dup6\n        /* \"#utility.yul\":790:813   */\n      sub\n        /* \"#utility.yul\":786:818   */\n      slt\n        /* \"#utility.yul\":783:902   */\n      iszero\n      tag_37\n      jumpi\n        /* \"#utility.yul\":821:900   */\n      tag_38\n      tag_16\n      jump\t// in\n    tag_38:\n        /* \"#utility.yul\":783:902   */\n    tag_37:\n        /* \"#utility.yul\":941:942   */\n      0x00\n        /* \"#utility.yul\":966:1019   */\n      tag_39\n        /* \"#utility.yul\":1011:1018   */\n      dup6\n        /* \"#utility.yul\":1002:1008   */\n      dup3\n        /* \"#utility.yul\":991:1000   */\n      dup7\n        /* \"#utility.yul\":987:1009   */\n      add\n        /* \"#utility.yul\":966:1019   */\n      tag_20\n      jump\t// in\n    tag_39:\n        /* \"#utility.yul\":956:1019   */\n      swap3\n      pop\n        /* \"#utility.yul\":912:1029   */\n      pop\n        /* \"#utility.yul\":1068:1070   */\n      0x20\n        /* \"#utility.yul\":1094:1147   */\n      tag_40\n        /* \"#utility.yul\":1139:1146   */\n      dup6\n        /* \"#utility.yul\":1130:1136   */\n      dup3\n        /* \"#utility.yul\":1119:1128   */\n      dup7\n        /* \"#utility.yul\":1115:1137   */\n      add\n        /* \"#utility.yul\":1094:1147   */\n      tag_20\n      jump\t// in\n    tag_40:\n        /* \"#utility.yul\":1084:1147   */\n      swap2\n      pop\n        /* \"#utility.yul\":1039:1157   */\n      pop\n        /* \"#utility.yul\":690:1164   */\n      swap3\n      pop\n      swap3\n      swap1\n      pop\n      jump\t// out\n        /* \"#utility.yul\":1170:1296   */\n    tag_21:\n        /* \"#utility.yul\":1265:1289   */\n      tag_42\n        /* \"#utility.yul\":1283:1288   */\n      dup2\n        /* \"#utility.yul\":1265:1289   */\n      tag_18\n      jump\t// in\n    tag_42:\n        /* \"#utility.yul\":1260:1263   */\n      dup3\n        /* \"#utility.yul\":1253:1290   */\n      mstore\n        /* \"#utility.yul\":1170:1296   */\n      pop\n      pop\n      jump\t// out\n        /* \"#utility.yul\":1302:1540   */\n    tag_8:\n        /* \"#utility.yul\":1403:1407   */\n      0x00\n        /* \"#utility.yul\":1441:1443   */\n      0x20\n        /* \"#utility.yul\":1430:1439   */\n      dup3\n        /* \"#utility.yul\":1426:1444   */\n      add\n        /* \"#utility.yul\":1418:1444   */\n      swap1\n      pop\n        /* \"#utility.yul\":1454:1533   */\n      tag_44\n        /* \"#utility.yul\":1530:1531   */\n      0x00\n        /* \"#utility.yul\":1519:1528   */\n      dup4\n        /* \"#utility.yul\":1515:1532   */\n      add\n        /* \"#utility.yul\":1506:1512   */\n      dup5\n        /* \"#utility.yul\":1454:1533   */\n      tag_21\n      jump\t// in\n    tag_44:\n        /* \"#utility.yul\":1302:1540   */\n      swap3\n      swap2\n      pop\n      pop\n      jump\t// out\n        /* \"#utility.yul\":1546:1726   */\n    tag_22:\n        /* \"#utility.yul\":1594:1671   */\n      0x4e487b7100000000000000000000000000000000000000000000000000000000\n        /* \"#utility.yul\":1591:1592   */\n      0x00\n        /* \"#utility.yul\":1584:1672   */\n      mstore\n        /* \"#utility.yul\":1691:1695   */\n      0x11\n        /* \"#utility.yul\":1688:1689   */\n      0x04\n        /* \"#utility.yul\":1681:1696   */\n      mstore\n        /* \"#utility.yul\":1715:1719   */\n      0x24\n        /* \"#utility.yul\":1712:1713   */\n      0x00\n        /* \"#utility.yul\":1705:1720   */\n      revert\n        /* \"#utility.yul\":1732:1923   */\n    tag_11:\n        /* \"#utility.yul\":1772:1775   */\n      0x00\n        /* \"#utility.yul\":1791:1811   */\n      tag_47\n        /* \"#utility.yul\":1809:1810   */\n      dup3\n        /* \"#utility.yul\":1791:1811   */\n      tag_18\n      jump\t// in\n    tag_47:\n        /* \"#utility.yul\":1786:1811   */\n      swap2\n      pop\n        /* \"#utility.yul\":1825:1845   */\n      tag_48\n        /* \"#utility.yul\":1843:1844   */\n      dup4\n        /* \"#utility.yul\":1825:1845   */\n      tag_18\n      jump\t// in\n    tag_48:\n        /* \"#utility.yul\":1820:1845   */\n      swap3\n      pop\n        /* \"#utility.yul\":1868:1869   */\n      dup3\n        /* \"#utility.yul\":1865:1866   */\n      dup3\n        /* \"#utility.yul\":1861:1870   */\n      add\n        /* \"#utility.yul\":1854:1870   */\n      swap1\n      pop\n        /* \"#utility.yul\":1889:1892   */\n      dup1\n        /* \"#utility.yul\":1886:1887   */\n      dup3\n        /* \"#utility.yul\":1883:1893   */\n      gt\n        /* \"#utility.yul\":1880:1916   */\n      iszero\n      tag_49\n      jumpi\n        /* \"#utility.yul\":1896:1914   */\n      tag_50\n      tag_22\n      jump\t// in\n    tag_50:\n        /* \"#utility.yul\":1880:1916   */\n    tag_49:\n        /* \"#utility.yul\":1732:1923   */\n      swap3\n      swap2\n      pop\n      pop\n      jump\t// out\n        /* \"#utility.yul\":1929:2098   */\n    tag_23:\n        /* \"#utility.yul\":2013:2024   */\n      0x00\n        /* \"#utility.yul\":2047:2053   */\n      dup3\n        /* \"#utility.yul\":2042:2045   */\n      dup3\n        /* \"#utility.yul\":2035:2054   */\n      mstore\n        /* \"#utility.yul\":2087:2091   */\n      0x20\n        /* \"#utility.yul\":2082:2085   */\n      dup3\n        /* \"#utility.yul\":2078:2092   */\n      add\n        /* \"#utility.yul\":2063:2092   */\n      swap1\n      pop\n        /* \"#utility.yul\":1929:2098   */\n      swap3\n      swap2\n      pop\n      pop\n      jump\t// out\n        /* \"#utility.yul\":2104:2281   */\n    tag_24:\n        /* \"#utility.yul\":2244:2273   */\n      0x536166654d6174683a206164646974696f6e206f766572666c6f770000000000\n        /* \"#utility.yul\":2240:2241   */\n      0x00\n        /* \"#utility.yul\":2232:2238   */\n      dup3\n        /* \"#utility.yul\":2228:2242   */\n      add\n        /* \"#utility.yul\":2221:2274   */\n      mstore\n        /* \"#utility.yul\":2104:2281   */\n      pop\n      jump\t// out\n        /* \"#utility.yul\":2287:2653   */\n    tag_25:\n        /* \"#utility.yul\":2429:2432   */\n      0x00\n        /* \"#utility.yul\":2450:2517   */\n      tag_54\n        /* \"#utility.yul\":2514:2516   */\n      0x1b\n        /* \"#utility.yul\":2509:2512   */\n      dup4\n        /* \"#utility.yul\":2450:2517   */\n      tag_23\n      jump\t// in\n    tag_54:\n        /* \"#utility.yul\":2443:2517   */\n      swap2\n      pop\n        /* \"#utility.yul\":2526:2619   */\n      tag_55\n        /* \"#utility.yul\":2615:2618   */\n      dup3\n        /* \"#utility.yul\":2526:2619   */\n      tag_24\n      jump\t// in\n    tag_55:\n        /* \"#utility.yul\":2644:2646   */\n      0x20\n        /* \"#utility.yul\":2639:2642   */\n      dup3\n        /* \"#utility.yul\":2635:2647   */\n      add\n        /* \"#utility.yul\":2628:2647   */\n      swap1\n      pop\n        /* \"#utility.yul\":2287:2653   */\n      swap2\n      swap1\n      pop\n      jump\t// out\n        /* \"#utility.yul\":2659:3078   */\n    tag_14:\n        /* \"#utility.yul\":2825:2829   */\n      0x00\n        /* \"#utility.yul\":2863:2865   */\n      0x20\n        /* \"#utility.yul\":2852:2861   */\n      dup3\n        /* \"#utility.yul\":2848:2866   */\n      add\n        /* \"#utility.yul\":2840:2866   */\n      swap1\n      pop\n        /* \"#utility.yul\":2912:2921   */\n      dup2\n        /* \"#utility.yul\":2906:2910   */\n      dup2\n        /* \"#utility.yul\":2902:2922   */\n      sub\n        /* \"#utility.yul\":2898:2899   */\n      0x00\n        /* \"#utility.yul\":2887:2896   */\n      dup4\n        /* \"#utility.yul\":2883:2900   */\n      add\n        /* \"#utility.yul\":2876:2923   */\n      mstore\n        /* \"#utility.yul\":2940:3071   */\n      tag_57\n        /* \"#utility.yul\":3066:3070   */\n      dup2\n        /* \"#utility.yul\":2940:3071   */\n      tag_25\n      jump\t// in\n    tag_57:\n        /* \"#utility.yul\":2932:3071   */\n      swap1\n      pop\n        /* \"#utility.yul\":2659:3078   */\n      swap2\n      swap1\n      pop\n      jump\t// out\n\n    auxdata: 0xa2646970667358221220788e2fb18295baccc58d7abe1f49472365b8405ae8aa8f5ccdc476ed30c621e264736f6c634300081a0033\n}\n",
				"bytecode": {
					"linkReferences": {},
					"object": "61027061004d600b8282823980515f1a6073146041577f4e487b71000000000000000000000000000000000000000000000000000000005f525f60045260245ffd5b305f52607381538281f3fe7300000000000000000000000000000000000000003014608060405260043610610034575f3560e01c8063771602f714610038575b5f80fd5b610052600480360381019061004d91906100fc565b610068565b60405161005f9190610149565b60405180910390f35b5f808284610076919061018f565b9050838110156100bb576040517f08c379a00000000000000000000000000000000000000000000000000000000081526004016100b29061021c565b60405180910390fd5b8091505092915050565b5f80fd5b5f819050919050565b6100db816100c9565b81146100e5575f80fd5b50565b5f813590506100f6816100d2565b92915050565b5f8060408385031215610112576101116100c5565b5b5f61011f858286016100e8565b9250506020610130858286016100e8565b9150509250929050565b610143816100c9565b82525050565b5f60208201905061015c5f83018461013a565b92915050565b7f4e487b71000000000000000000000000000000000000000000000000000000005f52601160045260245ffd5b5f610199826100c9565b91506101a4836100c9565b92508282019050808211156101bc576101bb610162565b5b92915050565b5f82825260208201905092915050565b7f536166654d6174683a206164646974696f6e206f766572666c6f7700000000005f82015250565b5f610206601b836101c2565b9150610211826101d2565b602082019050919050565b5f6020820190508181035f830152610233816101fa565b905091905056fea2646970667358221220788e2fb18295baccc58d7abe1f49472365b8405ae8aa8f5ccdc476ed30c621e264736f6c634300081a0033",
					"opcodes": "PUSH2 0x270 PUSH2 0x4D PUSH1 0xB DUP3 DUP3 DUP3 CODECOPY DUP1 MLOAD PUSH0 BYTE PUSH1 0x73 EQ PUSH1 0x41 JUMPI PUSH32 0x4E487B7100000000000000000000000000000000000000000000000000000000 PUSH0 MSTORE PUSH0 PUSH1 0x4 MSTORE PUSH1 0x24 PUSH0 REVERT JUMPDEST ADDRESS PUSH0 MSTORE PUSH1 0x73 DUP2 MSTORE8 DUP3 DUP2 RETURN INVALID PUSH20 0x0 ADDRESS EQ PUSH1 0x80 PUSH1 0x40 MSTORE PUSH1 0x4 CALLDATASIZE LT PUSH2 0x34 JUMPI PUSH0 CALLDATALOAD PUSH1 0xE0 SHR DUP1 PUSH4 0x771602F7 EQ PUSH2 0x38 JUMPI JUMPDEST PUSH0 DUP1 REVERT JUMPDEST PUSH2 0x52 PUSH1 0x4 DUP1 CALLDATASIZE SUB DUP2 ADD SWAP1 PUSH2 0x4D SWAP2 SWAP1 PUSH2 0xFC JUMP JUMPDEST PUSH2 0x68 JUMP JUMPDEST PUSH1 0x40 MLOAD PUSH2 0x5F SWAP2 SWAP1 PUSH2 0x149 JUMP JUMPDEST PUSH1 0x40 MLOAD DUP1 SWAP2 SUB SWAP1 RETURN JUMPDEST PUSH0 DUP1 DUP3 DUP5 PUSH2 0x76 SWAP2 SWAP1 PUSH2 0x18F JUMP JUMPDEST SWAP1 POP DUP4 DUP2 LT ISZERO PUSH2 0xBB JUMPI PUSH1 0x40 MLOAD PUSH32 0x8C379A000000000000000000000000000000000000000000000000000000000 DUP2 MSTORE PUSH1 0x4 ADD PUSH2 0xB2 SWAP1 PUSH2 0x21C JUMP JUMPDEST PUSH1 0x40 MLOAD DUP1 SWAP2 SUB SWAP1 REVERT JUMPDEST DUP1 SWAP2 POP POP SWAP3 SWAP2 POP POP JUMP JUMPDEST PUSH0 DUP1 REVERT JUMPDEST PUSH0 DUP2 SWAP1 POP SWAP2 SWAP1 POP JUMP JUMPDEST PUSH2 0xDB DUP2 PUSH2 0xC9 JUMP JUMPDEST DUP2 EQ PUSH2 0xE5 JUMPI PUSH0 DUP1 REVERT JUMPDEST POP JUMP JUMPDEST PUSH0 DUP2 CALLDATALOAD SWAP1 POP PUSH2 0xF6 DUP2 PUSH2 0xD2 JUMP JUMPDEST SWAP3 SWAP2 POP POP JUMP JUMPDEST PUSH0 DUP1 PUSH1 0x40 DUP4 DUP6 SUB SLT ISZERO PUSH2 0x112 JUMPI PUSH2 0x111 PUSH2 0xC5 JUMP JUMPDEST JUMPDEST PUSH0 PUSH2 0x11F DUP6 DUP3 DUP7 ADD PUSH2 0xE8 JUMP JUMPDEST SWAP3 POP POP PUSH1 0x20 PUSH2 0x130 DUP6 DUP3 DUP7 ADD PUSH2 0xE8 JUMP JUMPDEST SWAP2 POP POP SWAP3 POP SWAP3 SWAP1 POP JUMP JUMPDEST PUSH2 0x143 DUP2 PUSH2 0xC9 JUMP JUMPDEST DUP3 MSTORE POP POP JUMP JUMPDEST PUSH0 PUSH1 0x20 DUP3 ADD SWAP1 POP PUSH2 0x15C PUSH0 DUP4 ADD DUP5 PUSH2 0x13A JUMP JUMPDEST SWAP3 SWAP2 POP POP JUMP JUMPDEST PUSH32 0x4E487B7100000000000000000000000000000000000000000000000000000000 PUSH0 MSTORE PUSH1 0x11 PUSH1 0x4 MSTORE PUSH1 0x24 PUSH0 REVERT JUMPDEST PUSH0 PUSH2 0x199 DUP3 PUSH2 0xC9 JUMP JUMPDEST SWAP2 POP PUSH2 0x1A4 DUP4 PUSH2 0xC9 JUMP JUMPDEST SWAP3 POP DUP3 DUP3 ADD SWAP1 POP DUP1 DUP3 GT ISZERO PUSH2 0x1BC JUMPI PUSH2 0x1BB PUSH2 0x162 JUMP JUMPDEST JUMPDEST SWAP3 SWAP2 POP POP JUMP JUMPDEST PUSH0 DUP3 DUP3 MSTORE PUSH1 0x20 DUP3 ADD SWAP1 POP SWAP3 SWAP2 POP POP JUMP JUMPDEST PUSH32 0x536166654D6174683A206164646974696F6E206F766572666C6F770000000000 PUSH0 DUP3 ADD MSTORE POP JUMP JUMPDEST PUSH0 PUSH2 0x206 PUSH1 0x1B DUP4 PUSH2 0x1C2 JUMP JUMPDEST SWAP2 POP PUSH2 0x211 DUP3 PUSH2 0x1D2 JUMP JUMPDEST PUSH1 0x20 DUP3 ADD SWAP1 POP SWAP2 SWAP1 POP JUMP JUMPDEST PUSH0 PUSH1 0x20 DUP3 ADD SWAP1 POP DUP2 DUP2 SUB PUSH0 DUP4 ADD MSTORE PUSH2 0x233 DUP2 PUSH2 0x1FA JUMP JUMPDEST SWAP1 POP SWAP2 SWAP1 POP JUMP INVALID LOG2 PUSH5 0x6970667358 0x22 SLT KECCAK256 PUSH25 0x8E2FB18295BACCC58D7ABE1F49472365B8405AE8AA8F5CCDC4 PUSH23 0xED30C621E264736F6C634300081A003300000000000000 "
				},
				"gasEstimates": {
					"creation": {
						"codeDepositCost": "124800",
						"executionCost": "194",
						"totalCost": "124994"
					},
					"external": {
						"add(uint256,uint256)": "infinite"
					},
					"internal": {
						"minus(uint256,uint256)": "infinite"
					}
				},
				"methodIdentifiers": {
					"add(uint256,uint256)": "771602f7"
				}
			},
			"storageLayout": {
				"storage": [],
				"types": null
			},
			"userdoc": {
				"kind": "user",
				"methods": {},
				"version": 1
			}
		}
	}
}