{
	"data": {
		"bytecode": {
			"linkReferences": {},
			"object": "60806040526040518060400160405280600a60ff168152602001601460ff168152505f906002602e929190603e565b503480156039575f80fd5b506097565b8260028101928215606f579160200282015b82811115606e578251829060ff169055916020019190600101906050565b5b509050607a9190607e565b5090565b5b808211156093575f815f905550600101607f565b5090565b61011d806100a45f395ff3fe6080604052348015600e575f80fd5b50600436106026575f3560e01c8063463f5c3014602a575b5f80fd5b60406004803603810190603c9190609d565b6054565b604051604b919060d0565b60405180910390f35b5f81600281106061575f80fd5b015f915090505481565b5f80fd5b5f819050919050565b607f81606f565b81146088575f80fd5b50565b5f813590506097816078565b92915050565b5f6020828403121560af5760ae606b565b5b5f60ba84828501608b565b91505092915050565b60ca81606f565b82525050565b5f60208201905060e15f83018460c3565b9291505056fea2646970667358221220f54d3cb151feefece86f2470295348ff815e408f8f900eb9bfb9ac6bd0a2986464736f6c634300081a0033",
			"opcodes": "PUSH1 0x80 PUSH1 0x40 MSTORE PUSH1 0x40 MLOAD DUP1 PUSH1 0x40 ADD PUSH1 0x40 MSTORE DUP1 PUSH1 0xA PUSH1 0xFF AND DUP2 MSTORE PUSH1 0x20 ADD PUSH1 0x14 PUSH1 0xFF AND DUP2 MSTORE POP PUSH0 SWAP1 PUSH1 0x2 PUSH1 0x2E SWAP3 SWAP2 SWAP1 PUSH1 0x3E JUMP JUMPDEST POP CALLVALUE DUP1 ISZERO PUSH1 0x39 JUMPI PUSH0 DUP1 REVERT JUMPDEST POP PUSH1 0x97 JUMP JUMPDEST DUP3 PUSH1 0x2 DUP2 ADD SWAP3 DUP3 ISZERO PUSH1 0x6F JUMPI SWAP2 PUSH1 0x20 MUL DUP3 ADD JUMPDEST DUP3 DUP2 GT ISZERO PUSH1 0x6E JUMPI DUP3 MLOAD DUP3 SWAP1 PUSH1 0xFF AND SWAP1 SSTORE SWAP2 PUSH1 0x20 ADD SWAP2 SWAP1 PUSH1 0x1 ADD SWAP1 PUSH1 0x50 JUMP JUMPDEST JUMPDEST POP SWAP1 POP PUSH1 0x7A SWAP2 SWAP1 PUSH1 0x7E JUMP JUMPDEST POP SWAP1 JUMP JUMPDEST JUMPDEST DUP1 DUP3 GT ISZERO PUSH1 0x93 JUMPI PUSH0 DUP2 PUSH0 SWAP1 SSTORE POP PUSH1 0x1 ADD PUSH1 0x7F JUMP JUMPDEST POP SWAP1 JUMP JUMPDEST PUSH2 0x11D DUP1 PUSH2 0xA4 PUSH0 CODECOPY PUSH0 RETURN INVALID PUSH1 0x80 PUSH1 0x40 MSTORE CALLVALUE DUP1 ISZERO PUSH1 0xE JUMPI PUSH0 DUP1 REVERT JUMPDEST POP PUSH1 0x4 CALLDATASIZE LT PUSH1 0x26 JUMPI PUSH0 CALLDATALOAD PUSH1 0xE0 SHR DUP1 PUSH4 0x463F5C30 EQ PUSH1 0x2A JUMPI JUMPDEST PUSH0 DUP1 REVERT JUMPDEST PUSH1 0x40 PUSH1 0x4 DUP1 CALLDATASIZE SUB DUP2 ADD SWAP1 PUSH1 0x3C SWAP2 SWAP1 PUSH1 0x9D JUMP JUMPDEST PUSH1 0x54 JUMP JUMPDEST PUSH1 0x40 MLOAD PUSH1 0x4B SWAP2 SWAP1 PUSH1 0xD0 JUMP JUMPDEST PUSH1 0x40 MLOAD DUP1 SWAP2 SUB SWAP1 RETURN JUMPDEST PUSH0 DUP2 PUSH1 0x2 DUP2 LT PUSH1 0x61 JUMPI PUSH0 DUP1 REVERT JUMPDEST ADD PUSH0 SWAP2 POP SWAP1 POP SLOAD DUP2 JUMP JUMPDEST PUSH0 DUP1 REVERT JUMPDEST PUSH0 DUP2 SWAP1 POP SWAP2 SWAP1 POP JUMP JUMPDEST PUSH1 0x7F DUP2 PUSH1 0x6F JUMP JUMPDEST DUP2 EQ PUSH1 0x88 JUMPI PUSH0 DUP1 REVERT JUMPDEST POP JUMP JUMPDEST PUSH0 DUP2 CALLDATALOAD SWAP1 POP PUSH1 0x97 DUP2 PUSH1 0x78 JUMP JUMPDEST SWAP3 SWAP2 POP POP JUMP JUMPDEST PUSH0 PUSH1 0x20 DUP3 DUP5 SUB SLT ISZERO PUSH1 0xAF JUMPI PUSH1 0xAE PUSH1 0x6B JUMP JUMPDEST JUMPDEST PUSH0 PUSH1 0xBA DUP5 DUP3 DUP6 ADD PUSH1 0x8B JUMP JUMPDEST SWAP2 POP POP SWAP3 SWAP2 POP POP JUMP JUMPDEST PUSH1 0xCA DUP2 PUSH1 0x6F JUMP JUMPDEST DUP3 MSTORE POP POP JUMP JUMPDEST PUSH0 PUSH1 0x20 DUP3 ADD SWAP1 POP PUSH1 0xE1 PUSH0 DUP4 ADD DUP5 PUSH1 0xC3 JUMP JUMPDEST SWAP3 SWAP2 POP POP JUMP INVALID LOG2 PUSH5 0x6970667358 0x22 SLT KECCAK256 CREATE2 0x4D EXTCODECOPY 0xB1 MLOAD INVALID 0xEF 0xEC 0xE8 PUSH16 0x2470295348FF815E408F8F900EB9BFB9 0xAC PUSH12 0xD0A2986464736F6C63430008 BYTE STOP CALLER "
		},
		"gasEstimates": {
			"creation": {
				"codeDepositCost": "57000",
				"executionCost": "infinite",
				"totalCost": "infinite"
			},
			"external": {
				"testArray(uint256)": "infinite"
			}
		},
		"methodIdentifiers": {
			"testArray(uint256)": "463f5c30"
		}
	},
	"abi": [
		{
			"inputs": [
				{
					"internalType": "uint256",
					"name": "",
					"type": "uint256"
				}
			],
			"name": "testArray",
			"outputs": [
				{
					"internalType": "uint256",
					"name": "",
					"type": "uint256"
				}
			],
			"stateMutability": "view",
			"type": "function"
		}
	]
}