{
	"data": {
		"bytecode": {
			"linkReferences": {},
			"object": "608060405260405180608001604052806040518060400160405280600481526020017f546869730000000000000000000000000000000000000000000000000000000081525081526020016040518060400160405280600281526020017f697300000000000000000000000000000000000000000000000000000000000081525081526020016040518060400160405280600281526020017f616e00000000000000000000000000000000000000000000000000000000000081525081526020016040518060400160405280600581526020017f6172726179000000000000000000000000000000000000000000000000000000815250815250600a906004610109929190610238565b506040518060600160405280600160ff168152602001600260ff168152602001600360ff16815250600f906003610141929190610284565b50600567ffffffffffffffff81111561015d5761015c61039a565b5b60405190808252806020026020018201604052801561018b5781602001602082028036833780820191505090505b50601090805190602001906101a19291906102d4565b506040518060a00160405280607e8152602001611047607e9139601190816101c991906105d4565b50600a67ffffffffffffffff8111156101e5576101e461039a565b5b6040519080825280601f01601f1916602001820160405280156102175781602001600182028036833780820191505090505b506012908161022691906106ad565b50348015610232575f80fd5b506108a3565b8260048101928215610273579160200282015b8281111561027257825182908161026291906107d4565b509160200191906001019061024b565b5b509050610280919061031f565b5090565b828054828255905f5260205f209081019282156102c3579160200282015b828111156102c2578251829060ff169055916020019190600101906102a2565b5b5090506102d09190610342565b5090565b828054828255905f5260205f2090810192821561030e579160200282015b8281111561030d5782518255916020019190600101906102f2565b5b50905061031b9190610342565b5090565b5b8082111561033e575f8181610335919061035d565b50600101610320565b5090565b5b80821115610359575f815f905550600101610343565b5090565b508054610369906103fe565b5f825580601f1061037a5750610397565b601f0160209004905f5260205f20908101906103969190610342565b5b50565b7f4e487b71000000000000000000000000000000000000000000000000000000005f52604160045260245ffd5b5f81519050919050565b7f4e487b71000000000000000000000000000000000000000000000000000000005f52602260045260245ffd5b5f600282049050600182168061041557607f821691505b602082108103610428576104276103d1565b5b50919050565b5f819050815f5260205f209050919050565b5f6020601f8301049050919050565b5f82821b905092915050565b5f6008830261048a7fffffffffffffffffffffffffffffffffffffffffffffffffffffffffffffffff8261044f565b610494868361044f565b95508019841693508086168417925050509392505050565b5f819050919050565b5f819050919050565b5f6104d86104d36104ce846104ac565b6104b5565b6104ac565b9050919050565b5f819050919050565b6104f1836104be565b6105056104fd826104df565b84845461045b565b825550505050565b5f90565b61051961050d565b6105248184846104e8565b505050565b5b818110156105475761053c5f82610511565b60018101905061052a565b5050565b601f82111561058c5761055d8161042e565b61056684610440565b81016020851015610575578190505b61058961058185610440565b830182610529565b50505b505050565b5f82821c905092915050565b5f6105ac5f1984600802610591565b1980831691505092915050565b5f6105c4838361059d565b9150826002028217905092915050565b6105dd826103c7565b67ffffffffffffffff8111156105f6576105f561039a565b5b61060082546103fe565b61060b82828561054b565b5f60209050601f83116001811461063c575f841561062a578287015190505b61063485826105b9565b86555061069b565b601f19841661064a8661042e565b5f5b828110156106715784890151825560018201915060208501945060208101905061064c565b8683101561068e578489015161068a601f89168261059d565b8355505b6001600288020188555050505b505050505050565b5f81519050919050565b6106b6826106a3565b67ffffffffffffffff8111156106cf576106ce61039a565b5b6106d982546103fe565b6106e482828561054b565b5f60209050601f831160018114610715575f8415610703578287015190505b61070d85826105b9565b865550610774565b601f1984166107238661042e565b5f5b8281101561074a57848901518255600182019150602085019450602081019050610725565b868310156107675784890151610763601f89168261059d565b8355505b6001600288020188555050505b505050505050565b5f819050815f5260205f209050919050565b601f8211156107cf576107a08161077c565b6107a984610440565b810160208510156107b8578190505b6107cc6107c485610440565b830182610529565b50505b505050565b6107dd826103c7565b67ffffffffffffffff8111156107f6576107f561039a565b5b61080082546103fe565b61080b82828561078e565b5f60209050601f83116001811461083c575f841561082a578287015190505b61083485826105b9565b86555061089b565b601f19841661084a8661077c565b5f5b828110156108715784890151825560018201915060208501945060208101905061084c565b8683101561088e578489015161088a601f89168261059d565b8355505b6001600288020188555050505b505050505050565b610797806108b05f395ff3fe608060405234801561000f575f80fd5b506004361061004a575f3560e01c80635053cca41461004e57806368beab3f1461007e5780638f6701411461009c578063dd289db8146100cc575b5f80fd5b610068600480360381019061006391906102ab565b6100e8565b60405161007591906103b6565b60405180910390f35b61008661014a565b6040516100939190610446565b60405180910390f35b6100b660048036038101906100b19190610490565b6101d6565b6040516100c391906104ca565b60405180910390f35b6100e660048036038101906100e19190610538565b6101f6565b005b60605f83836001906003926100ff9392919061058b565b808060200260200160405190810160405280939291908181526020018383602002808284375f81840152601f19601f8201169050808301925050505050505090508091505092915050565b60128054610157906105f2565b80601f0160208091040260200160405190810160405280929190818152602001828054610183906105f2565b80156101ce5780601f106101a5576101008083540402835291602001916101ce565b820191905f5260205f20905b8154815290600101906020018083116101b157829003601f168201915b505050505081565b600f81815481106101e5575f80fd5b905f5260205f20015f915090505481565b5f82825f9060049261020a93929190610622565b81019061021791906106b1565b90505f8383600490809261022d93929190610622565b81019061023a9190610736565b905050505050565b5f80fd5b5f80fd5b5f80fd5b5f80fd5b5f80fd5b5f8083601f84011261026b5761026a61024a565b5b8235905067ffffffffffffffff8111156102885761028761024e565b5b6020830191508360208202830111156102a4576102a3610252565b5b9250929050565b5f80602083850312156102c1576102c0610242565b5b5f83013567ffffffffffffffff8111156102de576102dd610246565b5b6102ea85828601610256565b92509250509250929050565b5f81519050919050565b5f82825260208201905092915050565b5f819050602082019050919050565b5f819050919050565b6103318161031f565b82525050565b5f6103428383610328565b60208301905092915050565b5f602082019050919050565b5f610364826102f6565b61036e8185610300565b935061037983610310565b805f5b838110156103a95781516103908882610337565b975061039b8361034e565b92505060018101905061037c565b5085935050505092915050565b5f6020820190508181035f8301526103ce818461035a565b905092915050565b5f81519050919050565b5f82825260208201905092915050565b8281835e5f83830152505050565b5f601f19601f8301169050919050565b5f610418826103d6565b61042281856103e0565b93506104328185602086016103f0565b61043b816103fe565b840191505092915050565b5f6020820190508181035f83015261045e818461040e565b905092915050565b61046f8161031f565b8114610479575f80fd5b50565b5f8135905061048a81610466565b92915050565b5f602082840312156104a5576104a4610242565b5b5f6104b28482850161047c565b91505092915050565b6104c48161031f565b82525050565b5f6020820190506104dd5f8301846104bb565b92915050565b5f8083601f8401126104f8576104f761024a565b5b8235905067ffffffffffffffff8111156105155761051461024e565b5b60208301915083600182028301111561053157610530610252565b5b9250929050565b5f806020838503121561054e5761054d610242565b5b5f83013567ffffffffffffffff81111561056b5761056a610246565b5b610577858286016104e3565b92509250509250929050565b5f80fd5b5f80fd5b5f808585111561059e5761059d610583565b5b838611156105af576105ae610587565b5b6020850283019150848603905094509492505050565b7f4e487b71000000000000000000000000000000000000000000000000000000005f52602260045260245ffd5b5f600282049050600182168061060957607f821691505b60208210810361061c5761061b6105c5565b5b50919050565b5f808585111561063557610634610583565b5b8386111561064657610645610587565b5b6001850283019150848603905094509492505050565b5f7fffffffff0000000000000000000000000000000000000000000000000000000082169050919050565b6106908161065c565b811461069a575f80fd5b50565b5f813590506106ab81610687565b92915050565b5f602082840312156106c6576106c5610242565b5b5f6106d38482850161069d565b91505092915050565b5f73ffffffffffffffffffffffffffffffffffffffff82169050919050565b5f610705826106dc565b9050919050565b610715816106fb565b811461071f575f80fd5b50565b5f813590506107308161070c565b92915050565b5f6020828403121561074b5761074a610242565b5b5f61075884828501610722565b9150509291505056fea2646970667358221220cfa2a563e4efb3cb9a47b5cc8f2516f459bc411cb0eba1d24f347834e64a48af64736f6c634300081a0033307835423338446136613730316335363835343564436663423033466342383735663536626564644334307835423338446136613730316335363835343564436663423033466342383735663536626564644334307835423338446136613730316335363835343564436663423033466342383735663536626564644334",
			"opcodes": "PUSH1 0x80 PUSH1 0x40 MSTORE PUSH1 0x40 MLOAD DUP1 PUSH1 0x80 ADD PUSH1 0x40 MSTORE DUP1 PUSH1 0x40 MLOAD DUP1 PUSH1 0x40 ADD PUSH1 0x40 MSTORE DUP1 PUSH1 0x4 DUP2 MSTORE PUSH1 0x20 ADD PUSH32 0x5468697300000000000000000000000000000000000000000000000000000000 DUP2 MSTORE POP DUP2 MSTORE PUSH1 0x20 ADD PUSH1 0x40 MLOAD DUP1 PUSH1 0x40 ADD PUSH1 0x40 MSTORE DUP1 PUSH1 0x2 DUP2 MSTORE PUSH1 0x20 ADD PUSH32 0x6973000000000000000000000000000000000000000000000000000000000000 DUP2 MSTORE POP DUP2 MSTORE PUSH1 0x20 ADD PUSH1 0x40 MLOAD DUP1 PUSH1 0x40 ADD PUSH1 0x40 MSTORE DUP1 PUSH1 0x2 DUP2 MSTORE PUSH1 0x20 ADD PUSH32 0x616E000000000000000000000000000000000000000000000000000000000000 DUP2 MSTORE POP DUP2 MSTORE PUSH1 0x20 ADD PUSH1 0x40 MLOAD DUP1 PUSH1 0x40 ADD PUSH1 0x40 MSTORE DUP1 PUSH1 0x5 DUP2 MSTORE PUSH1 0x20 ADD PUSH32 0x6172726179000000000000000000000000000000000000000000000000000000 DUP2 MSTORE POP DUP2 MSTORE POP PUSH1 0xA SWAP1 PUSH1 0x4 PUSH2 0x109 SWAP3 SWAP2 SWAP1 PUSH2 0x238 JUMP JUMPDEST POP PUSH1 0x40 MLOAD DUP1 PUSH1 0x60 ADD PUSH1 0x40 MSTORE DUP1 PUSH1 0x1 PUSH1 0xFF AND DUP2 MSTORE PUSH1 0x20 ADD PUSH1 0x2 PUSH1 0xFF AND DUP2 MSTORE PUSH1 0x20 ADD PUSH1 0x3 PUSH1 0xFF AND DUP2 MSTORE POP PUSH1 0xF SWAP1 PUSH1 0x3 PUSH2 0x141 SWAP3 SWAP2 SWAP1 PUSH2 0x284 JUMP JUMPDEST POP PUSH1 0x5 PUSH8 0xFFFFFFFFFFFFFFFF DUP2 GT ISZERO PUSH2 0x15D JUMPI PUSH2 0x15C PUSH2 0x39A JUMP JUMPDEST JUMPDEST PUSH1 0x40 MLOAD SWAP1 DUP1 DUP3 MSTORE DUP1 PUSH1 0x20 MUL PUSH1 0x20 ADD DUP3 ADD PUSH1 0x40 MSTORE DUP1 ISZERO PUSH2 0x18B JUMPI DUP2 PUSH1 0x20 ADD PUSH1 0x20 DUP3 MUL DUP1 CALLDATASIZE DUP4 CALLDATACOPY DUP1 DUP3 ADD SWAP2 POP POP SWAP1 POP JUMPDEST POP PUSH1 0x10 SWAP1 DUP1 MLOAD SWAP1 PUSH1 0x20 ADD SWAP1 PUSH2 0x1A1 SWAP3 SWAP2 SWAP1 PUSH2 0x2D4 JUMP JUMPDEST POP PUSH1 0x40 MLOAD DUP1 PUSH1 0xA0 ADD PUSH1 0x40 MSTORE DUP1 PUSH1 0x7E DUP2 MSTORE PUSH1 0x20 ADD PUSH2 0x1047 PUSH1 0x7E SWAP2 CODECOPY PUSH1 0x11 SWAP1 DUP2 PUSH2 0x1C9 SWAP2 SWAP1 PUSH2 0x5D4 JUMP JUMPDEST POP PUSH1 0xA PUSH8 0xFFFFFFFFFFFFFFFF DUP2 GT ISZERO PUSH2 0x1E5 JUMPI PUSH2 0x1E4 PUSH2 0x39A JUMP JUMPDEST JUMPDEST PUSH1 0x40 MLOAD SWAP1 DUP1 DUP3 MSTORE DUP1 PUSH1 0x1F ADD PUSH1 0x1F NOT AND PUSH1 0x20 ADD DUP3 ADD PUSH1 0x40 MSTORE DUP1 ISZERO PUSH2 0x217 JUMPI DUP2 PUSH1 0x20 ADD PUSH1 0x1 DUP3 MUL DUP1 CALLDATASIZE DUP4 CALLDATACOPY DUP1 DUP3 ADD SWAP2 POP POP SWAP1 POP JUMPDEST POP PUSH1 0x12 SWAP1 DUP2 PUSH2 0x226 SWAP2 SWAP1 PUSH2 0x6AD JUMP JUMPDEST POP CALLVALUE DUP1 ISZERO PUSH2 0x232 JUMPI PUSH0 DUP1 REVERT JUMPDEST POP PUSH2 0x8A3 JUMP JUMPDEST DUP3 PUSH1 0x4 DUP2 ADD SWAP3 DUP3 ISZERO PUSH2 0x273 JUMPI SWAP2 PUSH1 0x20 MUL DUP3 ADD JUMPDEST DUP3 DUP2 GT ISZERO PUSH2 0x272 JUMPI DUP3 MLOAD DUP3 SWAP1 DUP2 PUSH2 0x262 SWAP2 SWAP1 PUSH2 0x7D4 JUMP JUMPDEST POP SWAP2 PUSH1 0x20 ADD SWAP2 SWAP1 PUSH1 0x1 ADD SWAP1 PUSH2 0x24B JUMP JUMPDEST JUMPDEST POP SWAP1 POP PUSH2 0x280 SWAP2 SWAP1 PUSH2 0x31F JUMP JUMPDEST POP SWAP1 JUMP JUMPDEST DUP3 DUP1 SLOAD DUP3 DUP3 SSTORE SWAP1 PUSH0 MSTORE PUSH1 0x20 PUSH0 KECCAK256 SWAP1 DUP2 ADD SWAP3 DUP3 ISZERO PUSH2 0x2C3 JUMPI SWAP2 PUSH1 0x20 MUL DUP3 ADD JUMPDEST DUP3 DUP2 GT ISZERO PUSH2 0x2C2 JUMPI DUP3 MLOAD DUP3 SWAP1 PUSH1 0xFF AND SWAP1 SSTORE SWAP2 PUSH1 0x20 ADD SWAP2 SWAP1 PUSH1 0x1 ADD SWAP1 PUSH2 0x2A2 JUMP JUMPDEST JUMPDEST POP SWAP1 POP PUSH2 0x2D0 SWAP2 SWAP1 PUSH2 0x342 JUMP JUMPDEST POP SWAP1 JUMP JUMPDEST DUP3 DUP1 SLOAD DUP3 DUP3 SSTORE SWAP1 PUSH0 MSTORE PUSH1 0x20 PUSH0 KECCAK256 SWAP1 DUP2 ADD SWAP3 DUP3 ISZERO PUSH2 0x30E JUMPI SWAP2 PUSH1 0x20 MUL DUP3 ADD JUMPDEST DUP3 DUP2 GT ISZERO PUSH2 0x30D JUMPI DUP3 MLOAD DUP3 SSTORE SWAP2 PUSH1 0x20 ADD SWAP2 SWAP1 PUSH1 0x1 ADD SWAP1 PUSH2 0x2F2 JUMP JUMPDEST JUMPDEST POP SWAP1 POP PUSH2 0x31B SWAP2 SWAP1 PUSH2 0x342 JUMP JUMPDEST POP SWAP1 JUMP JUMPDEST JUMPDEST DUP1 DUP3 GT ISZERO PUSH2 0x33E JUMPI PUSH0 DUP2 DUP2 PUSH2 0x335 SWAP2 SWAP1 PUSH2 0x35D JUMP JUMPDEST POP PUSH1 0x1 ADD PUSH2 0x320 JUMP JUMPDEST POP SWAP1 JUMP JUMPDEST JUMPDEST DUP1 DUP3 GT ISZERO PUSH2 0x359 JUMPI PUSH0 DUP2 PUSH0 SWAP1 SSTORE POP PUSH1 0x1 ADD PUSH2 0x343 JUMP JUMPDEST POP SWAP1 JUMP JUMPDEST POP DUP1 SLOAD PUSH2 0x369 SWAP1 PUSH2 0x3FE JUMP JUMPDEST PUSH0 DUP3 SSTORE DUP1 PUSH1 0x1F LT PUSH2 0x37A JUMPI POP PUSH2 0x397 JUMP JUMPDEST PUSH1 0x1F ADD PUSH1 0x20 SWAP1 DIV SWAP1 PUSH0 MSTORE PUSH1 0x20 PUSH0 KECCAK256 SWAP1 DUP2 ADD SWAP1 PUSH2 0x396 SWAP2 SWAP1 PUSH2 0x342 JUMP JUMPDEST JUMPDEST POP JUMP JUMPDEST PUSH32 0x4E487B7100000000000000000000000000000000000000000000000000000000 PUSH0 MSTORE PUSH1 0x41 PUSH1 0x4 MSTORE PUSH1 0x24 PUSH0 REVERT JUMPDEST PUSH0 DUP2 MLOAD SWAP1 POP SWAP2 SWAP1 POP JUMP JUMPDEST PUSH32 0x4E487B7100000000000000000000000000000000000000000000000000000000 PUSH0 MSTORE PUSH1 0x22 PUSH1 0x4 MSTORE PUSH1 0x24 PUSH0 REVERT JUMPDEST PUSH0 PUSH1 0x2 DUP3 DIV SWAP1 POP PUSH1 0x1 DUP3 AND DUP1 PUSH2 0x415 JUMPI PUSH1 0x7F DUP3 AND SWAP2 POP JUMPDEST PUSH1 0x20 DUP3 LT DUP2 SUB PUSH2 0x428 JUMPI PUSH2 0x427 PUSH2 0x3D1 JUMP JUMPDEST JUMPDEST POP SWAP2 SWAP1 POP JUMP JUMPDEST PUSH0 DUP2 SWAP1 POP DUP2 PUSH0 MSTORE PUSH1 0x20 PUSH0 KECCAK256 SWAP1 POP SWAP2 SWAP1 POP JUMP JUMPDEST PUSH0 PUSH1 0x20 PUSH1 0x1F DUP4 ADD DIV SWAP1 POP SWAP2 SWAP1 POP JUMP JUMPDEST PUSH0 DUP3 DUP3 SHL SWAP1 POP SWAP3 SWAP2 POP POP JUMP JUMPDEST PUSH0 PUSH1 0x8 DUP4 MUL PUSH2 0x48A PUSH32 0xFFFFFFFFFFFFFFFFFFFFFFFFFFFFFFFFFFFFFFFFFFFFFFFFFFFFFFFFFFFFFFFF DUP3 PUSH2 0x44F JUMP JUMPDEST PUSH2 0x494 DUP7 DUP4 PUSH2 0x44F JUMP JUMPDEST SWAP6 POP DUP1 NOT DUP5 AND SWAP4 POP DUP1 DUP7 AND DUP5 OR SWAP3 POP POP POP SWAP4 SWAP3 POP POP POP JUMP JUMPDEST PUSH0 DUP2 SWAP1 POP SWAP2 SWAP1 POP JUMP JUMPDEST PUSH0 DUP2 SWAP1 POP SWAP2 SWAP1 POP JUMP JUMPDEST PUSH0 PUSH2 0x4D8 PUSH2 0x4D3 PUSH2 0x4CE DUP5 PUSH2 0x4AC JUMP JUMPDEST PUSH2 0x4B5 JUMP JUMPDEST PUSH2 0x4AC JUMP JUMPDEST SWAP1 POP SWAP2 SWAP1 POP JUMP JUMPDEST PUSH0 DUP2 SWAP1 POP SWAP2 SWAP1 POP JUMP JUMPDEST PUSH2 0x4F1 DUP4 PUSH2 0x4BE JUMP JUMPDEST PUSH2 0x505 PUSH2 0x4FD DUP3 PUSH2 0x4DF JUMP JUMPDEST DUP5 DUP5 SLOAD PUSH2 0x45B JUMP JUMPDEST DUP3 SSTORE POP POP POP POP JUMP JUMPDEST PUSH0 SWAP1 JUMP JUMPDEST PUSH2 0x519 PUSH2 0x50D JUMP JUMPDEST PUSH2 0x524 DUP2 DUP5 DUP5 PUSH2 0x4E8 JUMP JUMPDEST POP POP POP JUMP JUMPDEST JUMPDEST DUP2 DUP2 LT ISZERO PUSH2 0x547 JUMPI PUSH2 0x53C PUSH0 DUP3 PUSH2 0x511 JUMP JUMPDEST PUSH1 0x1 DUP2 ADD SWAP1 POP PUSH2 0x52A JUMP JUMPDEST POP POP JUMP JUMPDEST PUSH1 0x1F DUP3 GT ISZERO PUSH2 0x58C JUMPI PUSH2 0x55D DUP2 PUSH2 0x42E JUMP JUMPDEST PUSH2 0x566 DUP5 PUSH2 0x440 JUMP JUMPDEST DUP2 ADD PUSH1 0x20 DUP6 LT ISZERO PUSH2 0x575 JUMPI DUP2 SWAP1 POP JUMPDEST PUSH2 0x589 PUSH2 0x581 DUP6 PUSH2 0x440 JUMP JUMPDEST DUP4 ADD DUP3 PUSH2 0x529 JUMP JUMPDEST POP POP JUMPDEST POP POP POP JUMP JUMPDEST PUSH0 DUP3 DUP3 SHR SWAP1 POP SWAP3 SWAP2 POP POP JUMP JUMPDEST PUSH0 PUSH2 0x5AC PUSH0 NOT DUP5 PUSH1 0x8 MUL PUSH2 0x591 JUMP JUMPDEST NOT DUP1 DUP4 AND SWAP2 POP POP SWAP3 SWAP2 POP POP JUMP JUMPDEST PUSH0 PUSH2 0x5C4 DUP4 DUP4 PUSH2 0x59D JUMP JUMPDEST SWAP2 POP DUP3 PUSH1 0x2 MUL DUP3 OR SWAP1 POP SWAP3 SWAP2 POP POP JUMP JUMPDEST PUSH2 0x5DD DUP3 PUSH2 0x3C7 JUMP JUMPDEST PUSH8 0xFFFFFFFFFFFFFFFF DUP2 GT ISZERO PUSH2 0x5F6 JUMPI PUSH2 0x5F5 PUSH2 0x39A JUMP JUMPDEST JUMPDEST PUSH2 0x600 DUP3 SLOAD PUSH2 0x3FE JUMP JUMPDEST PUSH2 0x60B DUP3 DUP3 DUP6 PUSH2 0x54B JUMP JUMPDEST PUSH0 PUSH1 0x20 SWAP1 POP PUSH1 0x1F DUP4 GT PUSH1 0x1 DUP2 EQ PUSH2 0x63C JUMPI PUSH0 DUP5 ISZERO PUSH2 0x62A JUMPI DUP3 DUP8 ADD MLOAD SWAP1 POP JUMPDEST PUSH2 0x634 DUP6 DUP3 PUSH2 0x5B9 JUMP JUMPDEST DUP7 SSTORE POP PUSH2 0x69B JUMP JUMPDEST PUSH1 0x1F NOT DUP5 AND PUSH2 0x64A DUP7 PUSH2 0x42E JUMP JUMPDEST PUSH0 JUMPDEST DUP3 DUP2 LT ISZERO PUSH2 0x671 JUMPI DUP5 DUP10 ADD MLOAD DUP3 SSTORE PUSH1 0x1 DUP3 ADD SWAP2 POP PUSH1 0x20 DUP6 ADD SWAP5 POP PUSH1 0x20 DUP2 ADD SWAP1 POP PUSH2 0x64C JUMP JUMPDEST DUP7 DUP4 LT ISZERO PUSH2 0x68E JUMPI DUP5 DUP10 ADD MLOAD PUSH2 0x68A PUSH1 0x1F DUP10 AND DUP3 PUSH2 0x59D JUMP JUMPDEST DUP4 SSTORE POP JUMPDEST PUSH1 0x1 PUSH1 0x2 DUP9 MUL ADD DUP9 SSTORE POP POP POP JUMPDEST POP POP POP POP POP POP JUMP JUMPDEST PUSH0 DUP2 MLOAD SWAP1 POP SWAP2 SWAP1 POP JUMP JUMPDEST PUSH2 0x6B6 DUP3 PUSH2 0x6A3 JUMP JUMPDEST PUSH8 0xFFFFFFFFFFFFFFFF DUP2 GT ISZERO PUSH2 0x6CF JUMPI PUSH2 0x6CE PUSH2 0x39A JUMP JUMPDEST JUMPDEST PUSH2 0x6D9 DUP3 SLOAD PUSH2 0x3FE JUMP JUMPDEST PUSH2 0x6E4 DUP3 DUP3 DUP6 PUSH2 0x54B JUMP JUMPDEST PUSH0 PUSH1 0x20 SWAP1 POP PUSH1 0x1F DUP4 GT PUSH1 0x1 DUP2 EQ PUSH2 0x715 JUMPI PUSH0 DUP5 ISZERO PUSH2 0x703 JUMPI DUP3 DUP8 ADD MLOAD SWAP1 POP JUMPDEST PUSH2 0x70D DUP6 DUP3 PUSH2 0x5B9 JUMP JUMPDEST DUP7 SSTORE POP PUSH2 0x774 JUMP JUMPDEST PUSH1 0x1F NOT DUP5 AND PUSH2 0x723 DUP7 PUSH2 0x42E JUMP JUMPDEST PUSH0 JUMPDEST DUP3 DUP2 LT ISZERO PUSH2 0x74A JUMPI DUP5 DUP10 ADD MLOAD DUP3 SSTORE PUSH1 0x1 DUP3 ADD SWAP2 POP PUSH1 0x20 DUP6 ADD SWAP5 POP PUSH1 0x20 DUP2 ADD SWAP1 POP PUSH2 0x725 JUMP JUMPDEST DUP7 DUP4 LT ISZERO PUSH2 0x767 JUMPI DUP5 DUP10 ADD MLOAD PUSH2 0x763 PUSH1 0x1F DUP10 AND DUP3 PUSH2 0x59D JUMP JUMPDEST DUP4 SSTORE POP JUMPDEST PUSH1 0x1 PUSH1 0x2 DUP9 MUL ADD DUP9 SSTORE POP POP POP JUMPDEST POP POP POP POP POP POP JUMP JUMPDEST PUSH0 DUP2 SWAP1 POP DUP2 PUSH0 MSTORE PUSH1 0x20 PUSH0 KECCAK256 SWAP1 POP SWAP2 SWAP1 POP JUMP JUMPDEST PUSH1 0x1F DUP3 GT ISZERO PUSH2 0x7CF JUMPI PUSH2 0x7A0 DUP2 PUSH2 0x77C JUMP JUMPDEST PUSH2 0x7A9 DUP5 PUSH2 0x440 JUMP JUMPDEST DUP2 ADD PUSH1 0x20 DUP6 LT ISZERO PUSH2 0x7B8 JUMPI DUP2 SWAP1 POP JUMPDEST PUSH2 0x7CC PUSH2 0x7C4 DUP6 PUSH2 0x440 JUMP JUMPDEST DUP4 ADD DUP3 PUSH2 0x529 JUMP JUMPDEST POP POP JUMPDEST POP POP POP JUMP JUMPDEST PUSH2 0x7DD DUP3 PUSH2 0x3C7 JUMP JUMPDEST PUSH8 0xFFFFFFFFFFFFFFFF DUP2 GT ISZERO PUSH2 0x7F6 JUMPI PUSH2 0x7F5 PUSH2 0x39A JUMP JUMPDEST JUMPDEST PUSH2 0x800 DUP3 SLOAD PUSH2 0x3FE JUMP JUMPDEST PUSH2 0x80B DUP3 DUP3 DUP6 PUSH2 0x78E JUMP JUMPDEST PUSH0 PUSH1 0x20 SWAP1 POP PUSH1 0x1F DUP4 GT PUSH1 0x1 DUP2 EQ PUSH2 0x83C JUMPI PUSH0 DUP5 ISZERO PUSH2 0x82A JUMPI DUP3 DUP8 ADD MLOAD SWAP1 POP JUMPDEST PUSH2 0x834 DUP6 DUP3 PUSH2 0x5B9 JUMP JUMPDEST DUP7 SSTORE POP PUSH2 0x89B JUMP JUMPDEST PUSH1 0x1F NOT DUP5 AND PUSH2 0x84A DUP7 PUSH2 0x77C JUMP JUMPDEST PUSH0 JUMPDEST DUP3 DUP2 LT ISZERO PUSH2 0x871 JUMPI DUP5 DUP10 ADD MLOAD DUP3 SSTORE PUSH1 0x1 DUP3 ADD SWAP2 POP PUSH1 0x20 DUP6 ADD SWAP5 POP PUSH1 0x20 DUP2 ADD SWAP1 POP PUSH2 0x84C JUMP JUMPDEST DUP7 DUP4 LT ISZERO PUSH2 0x88E JUMPI DUP5 DUP10 ADD MLOAD PUSH2 0x88A PUSH1 0x1F DUP10 AND DUP3 PUSH2 0x59D JUMP JUMPDEST DUP4 SSTORE POP JUMPDEST PUSH1 0x1 PUSH1 0x2 DUP9 MUL ADD DUP9 SSTORE POP POP POP JUMPDEST POP POP POP POP POP POP JUMP JUMPDEST PUSH2 0x797 DUP1 PUSH2 0x8B0 PUSH0 CODECOPY PUSH0 RETURN INVALID PUSH1 0x80 PUSH1 0x40 MSTORE CALLVALUE DUP1 ISZERO PUSH2 0xF JUMPI PUSH0 DUP1 REVERT JUMPDEST POP PUSH1 0x4 CALLDATASIZE LT PUSH2 0x4A JUMPI PUSH0 CALLDATALOAD PUSH1 0xE0 SHR DUP1 PUSH4 0x5053CCA4 EQ PUSH2 0x4E JUMPI DUP1 PUSH4 0x68BEAB3F EQ PUSH2 0x7E JUMPI DUP1 PUSH4 0x8F670141 EQ PUSH2 0x9C JUMPI DUP1 PUSH4 0xDD289DB8 EQ PUSH2 0xCC JUMPI JUMPDEST PUSH0 DUP1 REVERT JUMPDEST PUSH2 0x68 PUSH1 0x4 DUP1 CALLDATASIZE SUB DUP2 ADD SWAP1 PUSH2 0x63 SWAP2 SWAP1 PUSH2 0x2AB JUMP JUMPDEST PUSH2 0xE8 JUMP JUMPDEST PUSH1 0x40 MLOAD PUSH2 0x75 SWAP2 SWAP1 PUSH2 0x3B6 JUMP JUMPDEST PUSH1 0x40 MLOAD DUP1 SWAP2 SUB SWAP1 RETURN JUMPDEST PUSH2 0x86 PUSH2 0x14A JUMP JUMPDEST PUSH1 0x40 MLOAD PUSH2 0x93 SWAP2 SWAP1 PUSH2 0x446 JUMP JUMPDEST PUSH1 0x40 MLOAD DUP1 SWAP2 SUB SWAP1 RETURN JUMPDEST PUSH2 0xB6 PUSH1 0x4 DUP1 CALLDATASIZE SUB DUP2 ADD SWAP1 PUSH2 0xB1 SWAP2 SWAP1 PUSH2 0x490 JUMP JUMPDEST PUSH2 0x1D6 JUMP JUMPDEST PUSH1 0x40 MLOAD PUSH2 0xC3 SWAP2 SWAP1 PUSH2 0x4CA JUMP JUMPDEST PUSH1 0x40 MLOAD DUP1 SWAP2 SUB SWAP1 RETURN JUMPDEST PUSH2 0xE6 PUSH1 0x4 DUP1 CALLDATASIZE SUB DUP2 ADD SWAP1 PUSH2 0xE1 SWAP2 SWAP1 PUSH2 0x538 JUMP JUMPDEST PUSH2 0x1F6 JUMP JUMPDEST STOP JUMPDEST PUSH1 0x60 PUSH0 DUP4 DUP4 PUSH1 0x1 SWAP1 PUSH1 0x3 SWAP3 PUSH2 0xFF SWAP4 SWAP3 SWAP2 SWAP1 PUSH2 0x58B JUMP JUMPDEST DUP1 DUP1 PUSH1 0x20 MUL PUSH1 0x20 ADD PUSH1 0x40 MLOAD SWAP1 DUP2 ADD PUSH1 0x40 MSTORE DUP1 SWAP4 SWAP3 SWAP2 SWAP1 DUP2 DUP2 MSTORE PUSH1 0x20 ADD DUP4 DUP4 PUSH1 0x20 MUL DUP1 DUP3 DUP5 CALLDATACOPY PUSH0 DUP2 DUP5 ADD MSTORE PUSH1 0x1F NOT PUSH1 0x1F DUP3 ADD AND SWAP1 POP DUP1 DUP4 ADD SWAP3 POP POP POP POP POP POP POP SWAP1 POP DUP1 SWAP2 POP POP SWAP3 SWAP2 POP POP JUMP JUMPDEST PUSH1 0x12 DUP1 SLOAD PUSH2 0x157 SWAP1 PUSH2 0x5F2 JUMP JUMPDEST DUP1 PUSH1 0x1F ADD PUSH1 0x20 DUP1 SWAP2 DIV MUL PUSH1 0x20 ADD PUSH1 0x40 MLOAD SWAP1 DUP2 ADD PUSH1 0x40 MSTORE DUP1 SWAP3 SWAP2 SWAP1 DUP2 DUP2 MSTORE PUSH1 0x20 ADD DUP3 DUP1 SLOAD PUSH2 0x183 SWAP1 PUSH2 0x5F2 JUMP JUMPDEST DUP1 ISZERO PUSH2 0x1CE JUMPI DUP1 PUSH1 0x1F LT PUSH2 0x1A5 JUMPI PUSH2 0x100 DUP1 DUP4 SLOAD DIV MUL DUP4 MSTORE SWAP2 PUSH1 0x20 ADD SWAP2 PUSH2 0x1CE JUMP JUMPDEST DUP3 ADD SWAP2 SWAP1 PUSH0 MSTORE PUSH1 0x20 PUSH0 KECCAK256 SWAP1 JUMPDEST DUP2 SLOAD DUP2 MSTORE SWAP1 PUSH1 0x1 ADD SWAP1 PUSH1 0x20 ADD DUP1 DUP4 GT PUSH2 0x1B1 JUMPI DUP3 SWAP1 SUB PUSH1 0x1F AND DUP3 ADD SWAP2 JUMPDEST POP POP POP POP POP DUP2 JUMP JUMPDEST PUSH1 0xF DUP2 DUP2 SLOAD DUP2 LT PUSH2 0x1E5 JUMPI PUSH0 DUP1 REVERT JUMPDEST SWAP1 PUSH0 MSTORE PUSH1 0x20 PUSH0 KECCAK256 ADD PUSH0 SWAP2 POP SWAP1 POP SLOAD DUP2 JUMP JUMPDEST PUSH0 DUP3 DUP3 PUSH0 SWAP1 PUSH1 0x4 SWAP3 PUSH2 0x20A SWAP4 SWAP3 SWAP2 SWAP1 PUSH2 0x622 JUMP JUMPDEST DUP2 ADD SWAP1 PUSH2 0x217 SWAP2 SWAP1 PUSH2 0x6B1 JUMP JUMPDEST SWAP1 POP PUSH0 DUP4 DUP4 PUSH1 0x4 SWAP1 DUP1 SWAP3 PUSH2 0x22D SWAP4 SWAP3 SWAP2 SWAP1 PUSH2 0x622 JUMP JUMPDEST DUP2 ADD SWAP1 PUSH2 0x23A SWAP2 SWAP1 PUSH2 0x736 JUMP JUMPDEST SWAP1 POP POP POP POP POP JUMP JUMPDEST PUSH0 DUP1 REVERT JUMPDEST PUSH0 DUP1 REVERT JUMPDEST PUSH0 DUP1 REVERT JUMPDEST PUSH0 DUP1 REVERT JUMPDEST PUSH0 DUP1 REVERT JUMPDEST PUSH0 DUP1 DUP4 PUSH1 0x1F DUP5 ADD SLT PUSH2 0x26B JUMPI PUSH2 0x26A PUSH2 0x24A JUMP JUMPDEST JUMPDEST DUP3 CALLDATALOAD SWAP1 POP PUSH8 0xFFFFFFFFFFFFFFFF DUP2 GT ISZERO PUSH2 0x288 JUMPI PUSH2 0x287 PUSH2 0x24E JUMP JUMPDEST JUMPDEST PUSH1 0x20 DUP4 ADD SWAP2 POP DUP4 PUSH1 0x20 DUP3 MUL DUP4 ADD GT ISZERO PUSH2 0x2A4 JUMPI PUSH2 0x2A3 PUSH2 0x252 JUMP JUMPDEST JUMPDEST SWAP3 POP SWAP3 SWAP1 POP JUMP JUMPDEST PUSH0 DUP1 PUSH1 0x20 DUP4 DUP6 SUB SLT ISZERO PUSH2 0x2C1 JUMPI PUSH2 0x2C0 PUSH2 0x242 JUMP JUMPDEST JUMPDEST PUSH0 DUP4 ADD CALLDATALOAD PUSH8 0xFFFFFFFFFFFFFFFF DUP2 GT ISZERO PUSH2 0x2DE JUMPI PUSH2 0x2DD PUSH2 0x246 JUMP JUMPDEST JUMPDEST PUSH2 0x2EA DUP6 DUP3 DUP7 ADD PUSH2 0x256 JUMP JUMPDEST SWAP3 POP SWAP3 POP POP SWAP3 POP SWAP3 SWAP1 POP JUMP JUMPDEST PUSH0 DUP2 MLOAD SWAP1 POP SWAP2 SWAP1 POP JUMP JUMPDEST PUSH0 DUP3 DUP3 MSTORE PUSH1 0x20 DUP3 ADD SWAP1 POP SWAP3 SWAP2 POP POP JUMP JUMPDEST PUSH0 DUP2 SWAP1 POP PUSH1 0x20 DUP3 ADD SWAP1 POP SWAP2 SWAP1 POP JUMP JUMPDEST PUSH0 DUP2 SWAP1 POP SWAP2 SWAP1 POP JUMP JUMPDEST PUSH2 0x331 DUP2 PUSH2 0x31F JUMP JUMPDEST DUP3 MSTORE POP POP JUMP JUMPDEST PUSH0 PUSH2 0x342 DUP4 DUP4 PUSH2 0x328 JUMP JUMPDEST PUSH1 0x20 DUP4 ADD SWAP1 POP SWAP3 SWAP2 POP POP JUMP JUMPDEST PUSH0 PUSH1 0x20 DUP3 ADD SWAP1 POP SWAP2 SWAP1 POP JUMP JUMPDEST PUSH0 PUSH2 0x364 DUP3 PUSH2 0x2F6 JUMP JUMPDEST PUSH2 0x36E DUP2 DUP6 PUSH2 0x300 JUMP JUMPDEST SWAP4 POP PUSH2 0x379 DUP4 PUSH2 0x310 JUMP JUMPDEST DUP1 PUSH0 JUMPDEST DUP4 DUP2 LT ISZERO PUSH2 0x3A9 JUMPI DUP2 MLOAD PUSH2 0x390 DUP9 DUP3 PUSH2 0x337 JUMP JUMPDEST SWAP8 POP PUSH2 0x39B DUP4 PUSH2 0x34E JUMP JUMPDEST SWAP3 POP POP PUSH1 0x1 DUP2 ADD SWAP1 POP PUSH2 0x37C JUMP JUMPDEST POP DUP6 SWAP4 POP POP POP POP SWAP3 SWAP2 POP POP JUMP JUMPDEST PUSH0 PUSH1 0x20 DUP3 ADD SWAP1 POP DUP2 DUP2 SUB PUSH0 DUP4 ADD MSTORE PUSH2 0x3CE DUP2 DUP5 PUSH2 0x35A JUMP JUMPDEST SWAP1 POP SWAP3 SWAP2 POP POP JUMP JUMPDEST PUSH0 DUP2 MLOAD SWAP1 POP SWAP2 SWAP1 POP JUMP JUMPDEST PUSH0 DUP3 DUP3 MSTORE PUSH1 0x20 DUP3 ADD SWAP1 POP SWAP3 SWAP2 POP POP JUMP JUMPDEST DUP3 DUP2 DUP4 MCOPY PUSH0 DUP4 DUP4 ADD MSTORE POP POP POP JUMP JUMPDEST PUSH0 PUSH1 0x1F NOT PUSH1 0x1F DUP4 ADD AND SWAP1 POP SWAP2 SWAP1 POP JUMP JUMPDEST PUSH0 PUSH2 0x418 DUP3 PUSH2 0x3D6 JUMP JUMPDEST PUSH2 0x422 DUP2 DUP6 PUSH2 0x3E0 JUMP JUMPDEST SWAP4 POP PUSH2 0x432 DUP2 DUP6 PUSH1 0x20 DUP7 ADD PUSH2 0x3F0 JUMP JUMPDEST PUSH2 0x43B DUP2 PUSH2 0x3FE JUMP JUMPDEST DUP5 ADD SWAP2 POP POP SWAP3 SWAP2 POP POP JUMP JUMPDEST PUSH0 PUSH1 0x20 DUP3 ADD SWAP1 POP DUP2 DUP2 SUB PUSH0 DUP4 ADD MSTORE PUSH2 0x45E DUP2 DUP5 PUSH2 0x40E JUMP JUMPDEST SWAP1 POP SWAP3 SWAP2 POP POP JUMP JUMPDEST PUSH2 0x46F DUP2 PUSH2 0x31F JUMP JUMPDEST DUP2 EQ PUSH2 0x479 JUMPI PUSH0 DUP1 REVERT JUMPDEST POP JUMP JUMPDEST PUSH0 DUP2 CALLDATALOAD SWAP1 POP PUSH2 0x48A DUP2 PUSH2 0x466 JUMP JUMPDEST SWAP3 SWAP2 POP POP JUMP JUMPDEST PUSH0 PUSH1 0x20 DUP3 DUP5 SUB SLT ISZERO PUSH2 0x4A5 JUMPI PUSH2 0x4A4 PUSH2 0x242 JUMP JUMPDEST JUMPDEST PUSH0 PUSH2 0x4B2 DUP5 DUP3 DUP6 ADD PUSH2 0x47C JUMP JUMPDEST SWAP2 POP POP SWAP3 SWAP2 POP POP JUMP JUMPDEST PUSH2 0x4C4 DUP2 PUSH2 0x31F JUMP JUMPDEST DUP3 MSTORE POP POP JUMP JUMPDEST PUSH0 PUSH1 0x20 DUP3 ADD SWAP1 POP PUSH2 0x4DD PUSH0 DUP4 ADD DUP5 PUSH2 0x4BB JUMP JUMPDEST SWAP3 SWAP2 POP POP JUMP JUMPDEST PUSH0 DUP1 DUP4 PUSH1 0x1F DUP5 ADD SLT PUSH2 0x4F8 JUMPI PUSH2 0x4F7 PUSH2 0x24A JUMP JUMPDEST JUMPDEST DUP3 CALLDATALOAD SWAP1 POP PUSH8 0xFFFFFFFFFFFFFFFF DUP2 GT ISZERO PUSH2 0x515 JUMPI PUSH2 0x514 PUSH2 0x24E JUMP JUMPDEST JUMPDEST PUSH1 0x20 DUP4 ADD SWAP2 POP DUP4 PUSH1 0x1 DUP3 MUL DUP4 ADD GT ISZERO PUSH2 0x531 JUMPI PUSH2 0x530 PUSH2 0x252 JUMP JUMPDEST JUMPDEST SWAP3 POP SWAP3 SWAP1 POP JUMP JUMPDEST PUSH0 DUP1 PUSH1 0x20 DUP4 DUP6 SUB SLT ISZERO PUSH2 0x54E JUMPI PUSH2 0x54D PUSH2 0x242 JUMP JUMPDEST JUMPDEST PUSH0 DUP4 ADD CALLDATALOAD PUSH8 0xFFFFFFFFFFFFFFFF DUP2 GT ISZERO PUSH2 0x56B JUMPI PUSH2 0x56A PUSH2 0x246 JUMP JUMPDEST JUMPDEST PUSH2 0x577 DUP6 DUP3 DUP7 ADD PUSH2 0x4E3 JUMP JUMPDEST SWAP3 POP SWAP3 POP POP SWAP3 POP SWAP3 SWAP1 POP JUMP JUMPDEST PUSH0 DUP1 REVERT JUMPDEST PUSH0 DUP1 REVERT JUMPDEST PUSH0 DUP1 DUP6 DUP6 GT ISZERO PUSH2 0x59E JUMPI PUSH2 0x59D PUSH2 0x583 JUMP JUMPDEST JUMPDEST DUP4 DUP7 GT ISZERO PUSH2 0x5AF JUMPI PUSH2 0x5AE PUSH2 0x587 JUMP JUMPDEST JUMPDEST PUSH1 0x20 DUP6 MUL DUP4 ADD SWAP2 POP DUP5 DUP7 SUB SWAP1 POP SWAP5 POP SWAP5 SWAP3 POP POP POP JUMP JUMPDEST PUSH32 0x4E487B7100000000000000000000000000000000000000000000000000000000 PUSH0 MSTORE PUSH1 0x22 PUSH1 0x4 MSTORE PUSH1 0x24 PUSH0 REVERT JUMPDEST PUSH0 PUSH1 0x2 DUP3 DIV SWAP1 POP PUSH1 0x1 DUP3 AND DUP1 PUSH2 0x609 JUMPI PUSH1 0x7F DUP3 AND SWAP2 POP JUMPDEST PUSH1 0x20 DUP3 LT DUP2 SUB PUSH2 0x61C JUMPI PUSH2 0x61B PUSH2 0x5C5 JUMP JUMPDEST JUMPDEST POP SWAP2 SWAP1 POP JUMP JUMPDEST PUSH0 DUP1 DUP6 DUP6 GT ISZERO PUSH2 0x635 JUMPI PUSH2 0x634 PUSH2 0x583 JUMP JUMPDEST JUMPDEST DUP4 DUP7 GT ISZERO PUSH2 0x646 JUMPI PUSH2 0x645 PUSH2 0x587 JUMP JUMPDEST JUMPDEST PUSH1 0x1 DUP6 MUL DUP4 ADD SWAP2 POP DUP5 DUP7 SUB SWAP1 POP SWAP5 POP SWAP5 SWAP3 POP POP POP JUMP JUMPDEST PUSH0 PUSH32 0xFFFFFFFF00000000000000000000000000000000000000000000000000000000 DUP3 AND SWAP1 POP SWAP2 SWAP1 POP JUMP JUMPDEST PUSH2 0x690 DUP2 PUSH2 0x65C JUMP JUMPDEST DUP2 EQ PUSH2 0x69A JUMPI PUSH0 DUP1 REVERT JUMPDEST POP JUMP JUMPDEST PUSH0 DUP2 CALLDATALOAD SWAP1 POP PUSH2 0x6AB DUP2 PUSH2 0x687 JUMP JUMPDEST SWAP3 SWAP2 POP POP JUMP JUMPDEST PUSH0 PUSH1 0x20 DUP3 DUP5 SUB SLT ISZERO PUSH2 0x6C6 JUMPI PUSH2 0x6C5 PUSH2 0x242 JUMP JUMPDEST JUMPDEST PUSH0 PUSH2 0x6D3 DUP5 DUP3 DUP6 ADD PUSH2 0x69D JUMP JUMPDEST SWAP2 POP POP SWAP3 SWAP2 POP POP JUMP JUMPDEST PUSH0 PUSH20 0xFFFFFFFFFFFFFFFFFFFFFFFFFFFFFFFFFFFFFFFF DUP3 AND SWAP1 POP SWAP2 SWAP1 POP JUMP JUMPDEST PUSH0 PUSH2 0x705 DUP3 PUSH2 0x6DC JUMP JUMPDEST SWAP1 POP SWAP2 SWAP1 POP JUMP JUMPDEST PUSH2 0x715 DUP2 PUSH2 0x6FB JUMP JUMPDEST DUP2 EQ PUSH2 0x71F JUMPI PUSH0 DUP1 REVERT JUMPDEST POP JUMP JUMPDEST PUSH0 DUP2 CALLDATALOAD SWAP1 POP PUSH2 0x730 DUP2 PUSH2 0x70C JUMP JUMPDEST SWAP3 SWAP2 POP POP JUMP JUMPDEST PUSH0 PUSH1 0x20 DUP3 DUP5 SUB SLT ISZERO PUSH2 0x74B JUMPI PUSH2 0x74A PUSH2 0x242 JUMP JUMPDEST JUMPDEST PUSH0 PUSH2 0x758 DUP5 DUP3 DUP6 ADD PUSH2 0x722 JUMP JUMPDEST SWAP2 POP POP SWAP3 SWAP2 POP POP JUMP INVALID LOG2 PUSH5 0x6970667358 0x22 SLT KECCAK256 0xCF LOG2 0xA5 PUSH4 0xE4EFB3CB SWAP11 SELFBALANCE 0xB5 0xCC DUP16 0x25 AND DELEGATECALL MSIZE 0xBC COINBASE SHR 0xB0 0xEB LOG1 0xD2 0x4F CALLVALUE PUSH25 0x34E64A48AF64736F6C634300081A0033307835423338446136 PUSH2 0x3730 BALANCE PUSH4 0x35363835 CALLVALUE CALLDATALOAD PUSH5 0x4366634230 CALLER CHAINID PUSH4 0x42383735 PUSH7 0x35366265646443 CALLVALUE ADDRESS PUSH25 0x35423338446136613730316335363835343564436663423033 CHAINID PUSH4 0x42383735 PUSH7 0x35366265646443 CALLVALUE ADDRESS PUSH25 0x35423338446136613730316335363835343564436663423033 CHAINID PUSH4 0x42383735 PUSH7 0x35366265646443 CALLVALUE "
		},
		"gasEstimates": {
			"creation": {
				"codeDepositCost": "388600",
				"executionCost": "infinite",
				"totalCost": "infinite"
			},
			"external": {
				"_data()": "infinite",
				"f0(uint256[])": "infinite",
				"sliceArray(bytes)": "749",
				"u(uint256)": "infinite"
			}
		},
		"methodIdentifiers": {
			"_data()": "68beab3f",
			"f0(uint256[])": "5053cca4",
			"sliceArray(bytes)": "dd289db8",
			"u(uint256)": "8f670141"
		}
	},
	"abi": [
		{
			"inputs": [],
			"name": "_data",
			"outputs": [
				{
					"internalType": "bytes",
					"name": "",
					"type": "bytes"
				}
			],
			"stateMutability": "view",
			"type": "function"
		},
		{
			"inputs": [
				{
					"internalType": "uint256[]",
					"name": "nums",
					"type": "uint256[]"
				}
			],
			"name": "f0",
			"outputs": [
				{
					"internalType": "uint256[]",
					"name": "",
					"type": "uint256[]"
				}
			],
			"stateMutability": "pure",
			"type": "function"
		},
		{
			"inputs": [
				{
					"internalType": "bytes",
					"name": "_payload",
					"type": "bytes"
				}
			],
			"name": "sliceArray",
			"outputs": [],
			"stateMutability": "nonpayable",
			"type": "function"
		},
		{
			"inputs": [
				{
					"internalType": "uint256",
					"name": "",
					"type": "uint256"
				}
			],
			"name": "u",
			"outputs": [
				{
					"internalType": "uint256",
					"name": "",
					"type": "uint256"
				}
			],
			"stateMutability": "view",
			"type": "function"
		}
	]
}