{
	"data": {
		"bytecode": {
			"linkReferences": {},
			"object": "6080604052348015600e575f80fd5b5061013f8061001c5f395ff3fe608060405234801561000f575f80fd5b5060043610610029575f3560e01c806335b09a6e1461002d575b5f80fd5b61003561004b565b604051610042919061008a565b60405180910390f35b5f80600190505f600290505f818361006391906100d9565b90505f8114935050505090565b5f8115159050919050565b61008481610070565b82525050565b5f60208201905061009d5f83018461007b565b92915050565b5f819050919050565b7f4e487b71000000000000000000000000000000000000000000000000000000005f52601260045260245ffd5b5f6100e3826100a3565b91506100ee836100a3565b9250826100fe576100fd6100ac565b5b82820490509291505056fea2646970667358221220488706bcd829f27214d641004e03d6e0e2ef6de2f9df0808d845e73bdbf21ae464736f6c634300081a0033",
			"opcodes": "PUSH1 0x80 PUSH1 0x40 MSTORE CALLVALUE DUP1 ISZERO PUSH1 0xE JUMPI PUSH0 DUP1 REVERT JUMPDEST POP PUSH2 0x13F DUP1 PUSH2 0x1C PUSH0 CODECOPY PUSH0 RETURN INVALID PUSH1 0x80 PUSH1 0x40 MSTORE CALLVALUE DUP1 ISZERO PUSH2 0xF JUMPI PUSH0 DUP1 REVERT JUMPDEST POP PUSH1 0x4 CALLDATASIZE LT PUSH2 0x29 JUMPI PUSH0 CALLDATALOAD PUSH1 0xE0 SHR DUP1 PUSH4 0x35B09A6E EQ PUSH2 0x2D JUMPI JUMPDEST PUSH0 DUP1 REVERT JUMPDEST PUSH2 0x35 PUSH2 0x4B JUMP JUMPDEST PUSH1 0x40 MLOAD PUSH2 0x42 SWAP2 SWAP1 PUSH2 0x8A JUMP JUMPDEST PUSH1 0x40 MLOAD DUP1 SWAP2 SUB SWAP1 RETURN JUMPDEST PUSH0 DUP1 PUSH1 0x1 SWAP1 POP PUSH0 PUSH1 0x2 SWAP1 POP PUSH0 DUP2 DUP4 PUSH2 0x63 SWAP2 SWAP1 PUSH2 0xD9 JUMP JUMPDEST SWAP1 POP PUSH0 DUP2 EQ SWAP4 POP POP POP POP SWAP1 JUMP JUMPDEST PUSH0 DUP2 ISZERO ISZERO SWAP1 POP SWAP2 SWAP1 POP JUMP JUMPDEST PUSH2 0x84 DUP2 PUSH2 0x70 JUMP JUMPDEST DUP3 MSTORE POP POP JUMP JUMPDEST PUSH0 PUSH1 0x20 DUP3 ADD SWAP1 POP PUSH2 0x9D PUSH0 DUP4 ADD DUP5 PUSH2 0x7B JUMP JUMPDEST SWAP3 SWAP2 POP POP JUMP JUMPDEST PUSH0 DUP2 SWAP1 POP SWAP2 SWAP1 POP JUMP JUMPDEST PUSH32 0x4E487B7100000000000000000000000000000000000000000000000000000000 PUSH0 MSTORE PUSH1 0x12 PUSH1 0x4 MSTORE PUSH1 0x24 PUSH0 REVERT JUMPDEST PUSH0 PUSH2 0xE3 DUP3 PUSH2 0xA3 JUMP JUMPDEST SWAP2 POP PUSH2 0xEE DUP4 PUSH2 0xA3 JUMP JUMPDEST SWAP3 POP DUP3 PUSH2 0xFE JUMPI PUSH2 0xFD PUSH2 0xAC JUMP JUMPDEST JUMPDEST DUP3 DUP3 DIV SWAP1 POP SWAP3 SWAP2 POP POP JUMP INVALID LOG2 PUSH5 0x6970667358 0x22 SLT KECCAK256 BASEFEE DUP8 MOD 0xBC 0xD8 0x29 CALLCODE PUSH19 0x14D641004E03D6E0E2EF6DE2F9DF0808D845E7 EXTCODESIZE 0xDB CALLCODE BYTE 0xE4 PUSH5 0x736F6C6343 STOP ADDMOD BYTE STOP CALLER "
		},
		"gasEstimates": {
			"creation": {
				"codeDepositCost": "63800",
				"executionCost": "109",
				"totalCost": "63909"
			},
			"external": {
				"someFunction()": "infinite"
			}
		},
		"methodIdentifiers": {
			"someFunction()": "35b09a6e"
		}
	},
	"abi": [
		{
			"inputs": [],
			"name": "someFunction",
			"outputs": [
				{
					"internalType": "bool",
					"name": "",
					"type": "bool"
				}
			],
			"stateMutability": "nonpayable",
			"type": "function"
		}
	]
}